{
  "contractName": "ContentStorage",
  "abi": [
    {
      "inputs": [],
      "stateMutability": "nonpayable",
      "type": "constructor"
    },
    {
      "anonymous": false,
      "inputs": [
        {
          "indexed": true,
          "internalType": "string",
          "name": "id",
          "type": "string"
        },
        {
          "indexed": false,
          "internalType": "string",
          "name": "title",
          "type": "string"
        }
      ],
      "name": "ContentAdded",
      "type": "event"
    },
    {
      "anonymous": false,
      "inputs": [
        {
          "indexed": true,
          "internalType": "string",
          "name": "id",
          "type": "string"
        },
        {
          "indexed": false,
          "internalType": "string",
          "name": "name",
          "type": "string"
        }
      ],
      "name": "ContestCreated",
      "type": "event"
    },
    {
      "anonymous": false,
      "inputs": [
        {
          "indexed": false,
          "internalType": "string",
          "name": "jsonData",
          "type": "string"
        }
      ],
      "name": "ContestCreatedJson",
      "type": "event"
    },
    {
      "anonymous": false,
      "inputs": [
        {
          "indexed": true,
          "internalType": "string",
          "name": "id",
          "type": "string"
        },
        {
          "indexed": false,
          "internalType": "string",
          "name": "name",
          "type": "string"
        }
      ],
      "name": "ContestantAdded",
      "type": "event"
    },
    {
      "anonymous": false,
      "inputs": [
        {
          "indexed": true,
          "internalType": "string",
          "name": "contestId",
          "type": "string"
        },
        {
          "indexed": true,
          "internalType": "string",
          "name": "contestantId",
          "type": "string"
        }
      ],
      "name": "ContestantRegistered",
      "type": "event"
    },
    {
      "anonymous": false,
      "inputs": [
        {
          "indexed": true,
          "internalType": "string",
          "name": "id",
          "type": "string"
        },
        {
          "indexed": false,
          "internalType": "string",
          "name": "name",
          "type": "string"
        }
      ],
      "name": "SponsorAdded",
      "type": "event"
    },
    {
      "inputs": [
        {
          "internalType": "string",
          "name": "",
          "type": "string"
        }
      ],
      "name": "contestJsons",
      "outputs": [
        {
          "internalType": "string",
          "name": "",
          "type": "string"
        }
      ],
      "stateMutability": "view",
      "type": "function",
      "constant": true
    },
    {
      "inputs": [
        {
          "internalType": "string",
          "name": "id",
          "type": "string"
        },
        {
          "internalType": "string",
          "name": "title",
          "type": "string"
        },
        {
          "internalType": "string",
          "name": "contentText",
          "type": "string"
        },
        {
          "internalType": "bool",
          "name": "verified",
          "type": "bool"
        }
      ],
      "name": "storeContent",
      "outputs": [],
      "stateMutability": "nonpayable",
      "type": "function"
    },
    {
      "inputs": [
        {
          "internalType": "string",
          "name": "id",
          "type": "string"
        }
      ],
      "name": "getContent",
      "outputs": [
        {
          "internalType": "string",
          "name": "title",
          "type": "string"
        },
        {
          "internalType": "string",
          "name": "content",
          "type": "string"
        },
        {
          "internalType": "address",
          "name": "creator",
          "type": "address"
        },
        {
          "internalType": "uint256",
          "name": "timestamp",
          "type": "uint256"
        },
        {
          "internalType": "bool",
          "name": "verified",
          "type": "bool"
        }
      ],
      "stateMutability": "view",
      "type": "function",
      "constant": true
    },
    {
      "inputs": [],
      "name": "getAllContentIds",
      "outputs": [
        {
          "internalType": "string[]",
          "name": "",
          "type": "string[]"
        }
      ],
      "stateMutability": "view",
      "type": "function",
      "constant": true
    },
    {
      "inputs": [
        {
          "internalType": "string",
          "name": "id",
          "type": "string"
        },
        {
          "internalType": "string",
          "name": "name",
          "type": "string"
        },
        {
          "internalType": "string",
          "name": "details",
          "type": "string"
        },
        {
          "internalType": "bool",
          "name": "verified",
          "type": "bool"
        }
      ],
      "name": "addContestant",
      "outputs": [],
      "stateMutability": "nonpayable",
      "type": "function"
    },
    {
      "inputs": [
        {
          "internalType": "string",
          "name": "id",
          "type": "string"
        }
      ],
      "name": "getContestant",
      "outputs": [
        {
          "internalType": "string",
          "name": "name",
          "type": "string"
        },
        {
          "internalType": "string",
          "name": "details",
          "type": "string"
        },
        {
          "internalType": "address",
          "name": "creator",
          "type": "address"
        },
        {
          "internalType": "uint256",
          "name": "timestamp",
          "type": "uint256"
        },
        {
          "internalType": "bool",
          "name": "verified",
          "type": "bool"
        }
      ],
      "stateMutability": "view",
      "type": "function",
      "constant": true
    },
    {
      "inputs": [],
      "name": "getAllContestantIds",
      "outputs": [
        {
          "internalType": "string[]",
          "name": "",
          "type": "string[]"
        }
      ],
      "stateMutability": "view",
      "type": "function",
      "constant": true
    },
    {
      "inputs": [
        {
          "internalType": "string",
          "name": "id",
          "type": "string"
        },
        {
          "internalType": "string",
          "name": "name",
          "type": "string"
        },
        {
          "internalType": "string",
          "name": "description",
          "type": "string"
        },
        {
          "internalType": "uint256",
          "name": "startDate",
          "type": "uint256"
        },
        {
          "internalType": "uint256",
          "name": "endDate",
          "type": "uint256"
        },
        {
          "internalType": "string",
          "name": "imageURL",
          "type": "string"
        }
      ],
      "name": "createContest",
      "outputs": [],
      "stateMutability": "nonpayable",
      "type": "function"
    },
    {
      "inputs": [
        {
          "internalType": "string",
          "name": "id",
          "type": "string"
        },
        {
          "internalType": "string",
          "name": "jsonData",
          "type": "string"
        }
      ],
      "name": "createContestJson",
      "outputs": [],
      "stateMutability": "nonpayable",
      "type": "function"
    },
    {
      "inputs": [
        {
          "internalType": "string",
          "name": "id",
          "type": "string"
        }
      ],
      "name": "getContest",
      "outputs": [
        {
          "internalType": "string",
          "name": "name",
          "type": "string"
        },
        {
          "internalType": "string",
          "name": "description",
          "type": "string"
        },
        {
          "internalType": "uint256",
          "name": "startDate",
          "type": "uint256"
        },
        {
          "internalType": "uint256",
          "name": "endDate",
          "type": "uint256"
        },
        {
          "internalType": "address",
          "name": "organizer",
          "type": "address"
        },
        {
          "internalType": "bool",
          "name": "active",
          "type": "bool"
        },
        {
          "internalType": "string",
          "name": "imageURL",
          "type": "string"
        }
      ],
      "stateMutability": "view",
      "type": "function",
      "constant": true
    },
    {
      "inputs": [],
      "name": "getAllContestIds",
      "outputs": [
        {
          "internalType": "string[]",
          "name": "",
          "type": "string[]"
        }
      ],
      "stateMutability": "view",
      "type": "function",
      "constant": true
    },
    {
      "inputs": [
        {
          "internalType": "string",
          "name": "id",
          "type": "string"
        },
        {
          "internalType": "string",
          "name": "name",
          "type": "string"
        },
        {
          "internalType": "string",
          "name": "contactInfo",
          "type": "string"
        },
        {
          "internalType": "uint256",
          "name": "sponsorshipAmount",
          "type": "uint256"
        }
      ],
      "name": "addSponsor",
      "outputs": [],
      "stateMutability": "nonpayable",
      "type": "function"
    },
    {
      "inputs": [
        {
          "internalType": "string",
          "name": "id",
          "type": "string"
        }
      ],
      "name": "getSponsor",
      "outputs": [
        {
          "internalType": "string",
          "name": "name",
          "type": "string"
        },
        {
          "internalType": "string",
          "name": "contactInfo",
          "type": "string"
        },
        {
          "internalType": "uint256",
          "name": "sponsorshipAmount",
          "type": "uint256"
        },
        {
          "internalType": "address",
          "name": "walletAddress",
          "type": "address"
        }
      ],
      "stateMutability": "view",
      "type": "function",
      "constant": true
    },
    {
      "inputs": [],
      "name": "getAllSponsorIds",
      "outputs": [
        {
          "internalType": "string[]",
          "name": "",
          "type": "string[]"
        }
      ],
      "stateMutability": "view",
      "type": "function",
      "constant": true
    },
    {
      "inputs": [
        {
          "internalType": "string",
          "name": "contestId",
          "type": "string"
        },
        {
          "internalType": "string",
          "name": "contestantId",
          "type": "string"
        }
      ],
      "name": "registerContestant",
      "outputs": [],
      "stateMutability": "nonpayable",
      "type": "function"
    },
    {
      "inputs": [
        {
          "internalType": "string",
          "name": "contestId",
          "type": "string"
        },
        {
          "internalType": "string",
          "name": "contestantId",
          "type": "string"
        }
      ],
      "name": "isContestantRegistered",
      "outputs": [
        {
          "internalType": "bool",
          "name": "",
          "type": "bool"
        }
      ],
      "stateMutability": "view",
      "type": "function",
      "constant": true
    },
    {
      "inputs": [
        {
          "internalType": "string",
          "name": "contestId",
          "type": "string"
        }
      ],
      "name": "getContestantsInContest",
      "outputs": [
        {
          "internalType": "string[]",
          "name": "",
          "type": "string[]"
        }
      ],
      "stateMutability": "view",
      "type": "function",
      "constant": true
    },
    {
      "inputs": [
        {
          "internalType": "string",
          "name": "keyword",
          "type": "string"
        }
      ],
      "name": "searchContests",
      "outputs": [
        {
          "internalType": "string[]",
          "name": "",
          "type": "string[]"
        }
      ],
      "stateMutability": "view",
      "type": "function",
      "constant": true
    },
    {
      "inputs": [
        {
          "internalType": "string",
          "name": "id",
          "type": "string"
        }
      ],
      "name": "getContestJsonById",
      "outputs": [
        {
          "internalType": "string",
          "name": "",
          "type": "string"
        }
      ],
      "stateMutability": "view",
      "type": "function",
      "constant": true
    }
  ],
  "bytecode": "0x608060405234801561000f575f80fd5b5061443d8061001d5f395ff3fe608060405234801561000f575f80fd5b506004361061011e575f3560e01c8063b7ca7d9a116100ab578063ced095d61161006f578063ced095d61461031c578063dd3b3ddf14610352578063e28f73a314610385578063e371696f146103a3578063e5328bd8146103d35761011e565b8063b7ca7d9a14610278578063be90800014610294578063c03a889f146102b2578063c130efd0146102e2578063ccb65c8f146103005761011e565b80637c25ebaa116100f25780637c25ebaa146101c05780638b1e3d58146101dc5780638c9e1f3c146101f8578063adb9a7251461022c578063b20fe968146102485761011e565b8062c2a89614610122578063176a8810146101525780632d63d10d146101705780635797bd0a146101a4575b5f80fd5b61013c6004803603810190610137919061325a565b610403565b604051610149919061331b565b60405180910390f35b61015a6104b6565b604051610167919061343e565b60405180910390f35b61018a6004803603810190610185919061325a565b61058a565b60405161019b9594939291906134cf565b60405180910390f35b6101be60048036038101906101b9919061352e565b61089a565b005b6101da60048036038101906101d591906135ce565b61099f565b005b6101f660048036038101906101f191906136f1565b610c45565b005b610212600480360381019061020d919061325a565b610e77565b6040516102239594939291906134cf565b60405180910390f35b6102466004803603810190610241919061352e565b6110f4565b005b610262600480360381019061025d919061352e565b6113d5565b60405161026f91906137a9565b60405180910390f35b610292600480360381019061028d91906136f1565b611425565b005b61029c611639565b6040516102a9919061343e565b60405180910390f35b6102cc60048036038101906102c7919061325a565b61170d565b6040516102d9919061343e565b60405180910390f35b6102ea611f5d565b6040516102f7919061343e565b60405180910390f35b61031a600480360381019061031591906137c2565b612031565b005b6103366004803603810190610331919061325a565b61223c565b604051610349979695949392919061387a565b60405180910390f35b61036c6004803603810190610367919061325a565b6125fc565b60405161037c94939291906138fc565b60405180910390f35b61038d6128e8565b60405161039a919061343e565b60405180910390f35b6103bd60048036038101906103b8919061325a565b6129bc565b6040516103ca919061343e565b60405180910390f35b6103ed60048036038101906103e8919061325a565b612c7d565b6040516103fa919061331b565b60405180910390f35b6004818051602081018201805184825260208301602085012081835280955050505050505f9150905080546104379061397a565b80601f01602080910402602001604051908101604052809291908181526020018280546104639061397a565b80156104ae5780601f10610485576101008083540402835291602001916104ae565b820191905f5260205f20905b81548152906001019060200180831161049157829003601f168201915b505050505081565b60606009805480602002602001604051908101604052809291908181526020015f905b82821015610581578382905f5260205f200180546104f69061397a565b80601f01602080910402602001604051908101604052809291908181526020018280546105229061397a565b801561056d5780601f106105445761010080835404028352916020019161056d565b820191905f5260205f20905b81548152906001019060200180831161055057829003601f168201915b5050505050815260200190600101906104d9565b50505050905090565b6060805f805f6001866040516105a091906139e4565b908152602001604051809103902060050160019054906101000a900460ff166105fe576040517f08c379a00000000000000000000000000000000000000000000000000000000081526004016105f590613a44565b60405180910390fd5b5f60018760405161060f91906139e4565b90815260200160405180910390206040518060e00160405290815f820180546106379061397a565b80601f01602080910402602001604051908101604052809291908181526020018280546106639061397a565b80156106ae5780601f10610685576101008083540402835291602001916106ae565b820191905f5260205f20905b81548152906001019060200180831161069157829003601f168201915b505050505081526020016001820180546106c79061397a565b80601f01602080910402602001604051908101604052809291908181526020018280546106f39061397a565b801561073e5780601f106107155761010080835404028352916020019161073e565b820191905f5260205f20905b81548152906001019060200180831161072157829003601f168201915b505050505081526020016002820180546107579061397a565b80601f01602080910402602001604051908101604052809291908181526020018280546107839061397a565b80156107ce5780601f106107a5576101008083540402835291602001916107ce565b820191905f5260205f20905b8154815290600101906020018083116107b157829003601f168201915b50505050508152602001600382015f9054906101000a900473ffffffffffffffffffffffffffffffffffffffff1673ffffffffffffffffffffffffffffffffffffffff1673ffffffffffffffffffffffffffffffffffffffff16815260200160048201548152602001600582015f9054906101000a900460ff161515151581526020016005820160019054906101000a900460ff161515151581525050905080602001518160400151826060015183608001518460a00151955095509550955095505091939590929450565b5f6004836040516108ab91906139e4565b908152602001604051809103902080546108c49061397a565b905014610906576040517f08c379a00000000000000000000000000000000000000000000000000000000081526004016108fd90613ad2565b60405180910390fd5b8060048360405161091791906139e4565b908152602001604051809103902090816109319190613c8d565b50600882908060018154018082558091505060019003905f5260205f20015f9091909190915090816109639190613c8d565b507fbfb3027a6b1d0bcfe1b9d2d1bb0fec73a1ac0160ba63242fc92e1154325f9e8381604051610993919061331b565b60405180910390a15050565b6002866040516109af91906139e4565b908152602001604051809103902060050160159054906101000a900460ff1615610a0e576040517f08c379a0000000000000000000000000000000000000000000000000000000008152600401610a0590613ad2565b60405180910390fd5b828211610a50576040517f08c379a0000000000000000000000000000000000000000000000000000000008152600401610a4790613dcc565b60405180910390fd5b6040518061012001604052808781526020018681526020018581526020018481526020018381526020013373ffffffffffffffffffffffffffffffffffffffff16815260200160011515815260200160011515815260200182815250600287604051610abc91906139e4565b90815260200160405180910390205f820151815f019081610add9190613c8d565b506020820151816001019081610af39190613c8d565b506040820151816002019081610b099190613c8d565b50606082015181600301556080820151816004015560a0820151816005015f6101000a81548173ffffffffffffffffffffffffffffffffffffffff021916908373ffffffffffffffffffffffffffffffffffffffff16021790555060c08201518160050160146101000a81548160ff02191690831515021790555060e08201518160050160156101000a81548160ff021916908315150217905550610100820151816006019081610bba9190613c8d565b50905050600886908060018154018082558091505060019003905f5260205f20015f909190919091509081610bef9190613c8d565b5085604051610bfe91906139e4565b60405180910390207f56719311596b0ad53a90cb06e6f5cb3ae4fdb15563147f3c7b67eaf9933a882c86604051610c35919061331b565b60405180910390a2505050505050565b600184604051610c5591906139e4565b908152602001604051809103902060050160019054906101000a900460ff1615610cb4576040517f08c379a0000000000000000000000000000000000000000000000000000000008152600401610cab90613e5a565b60405180910390fd5b6040518060e001604052808581526020018481526020018381526020013373ffffffffffffffffffffffffffffffffffffffff168152602001428152602001821515815260200160011515815250600185604051610d1291906139e4565b90815260200160405180910390205f820151815f019081610d339190613c8d565b506020820151816001019081610d499190613c8d565b506040820151816002019081610d5f9190613c8d565b506060820151816003015f6101000a81548173ffffffffffffffffffffffffffffffffffffffff021916908373ffffffffffffffffffffffffffffffffffffffff1602179055506080820151816004015560a0820151816005015f6101000a81548160ff02191690831515021790555060c08201518160050160016101000a81548160ff021916908315150217905550905050600784908060018154018082558091505060019003905f5260205f20015f909190919091509081610e239190613c8d565b5083604051610e3291906139e4565b60405180910390207f4de24c70a78dbc1117cc81ff2a6d8d46c93ddf2730858dd9cb5fa02e66f4c2c584604051610e69919061331b565b60405180910390a250505050565b6060805f805f8086604051610e8c91906139e4565b908152602001604051809103902060040160019054906101000a900460ff16610eea576040517f08c379a0000000000000000000000000000000000000000000000000000000008152600401610ee190613ec2565b60405180910390fd5b5f8087604051610efa91906139e4565b90815260200160405180910390206040518060c00160405290815f82018054610f229061397a565b80601f0160208091040260200160405190810160405280929190818152602001828054610f4e9061397a565b8015610f995780601f10610f7057610100808354040283529160200191610f99565b820191905f5260205f20905b815481529060010190602001808311610f7c57829003601f168201915b50505050508152602001600182018054610fb29061397a565b80601f0160208091040260200160405190810160405280929190818152602001828054610fde9061397a565b80156110295780601f1061100057610100808354040283529160200191611029565b820191905f5260205f20905b81548152906001019060200180831161100c57829003601f168201915b50505050508152602001600282015f9054906101000a900473ffffffffffffffffffffffffffffffffffffffff1673ffffffffffffffffffffffffffffffffffffffff1673ffffffffffffffffffffffffffffffffffffffff16815260200160038201548152602001600482015f9054906101000a900460ff161515151581526020016004820160019054906101000a900460ff1615151515815250509050805f01518160200151826040015183606001518460800151955095509550955095505091939590929450565b60028260405161110491906139e4565b908152602001604051809103902060050160159054906101000a900460ff16611162576040517f08c379a000000000000000000000000000000000000000000000000000000000815260040161115990613f2a565b60405180910390fd5b60018160405161117291906139e4565b908152602001604051809103902060050160019054906101000a900460ff166111d0576040517f08c379a00000000000000000000000000000000000000000000000000000000081526004016111c790613a44565b60405180910390fd5b6002826040516111e091906139e4565b908152602001604051809103902060050160149054906101000a900460ff1661123e576040517f08c379a000000000000000000000000000000000000000000000000000000000815260040161123590613f92565b60405180910390fd5b60028260405161124e91906139e4565b90815260200160405180910390206004015442106112a1576040517f08c379a000000000000000000000000000000000000000000000000000000000815260040161129890613ffa565b60405180910390fd5b6005826040516112b191906139e4565b9081526020016040518091039020816040516112cd91906139e4565b90815260200160405180910390205f9054906101000a900460ff1615611328576040517f08c379a000000000000000000000000000000000000000000000000000000000815260040161131f90614088565b60405180910390fd5b600160058360405161133a91906139e4565b90815260200160405180910390208260405161135691906139e4565b90815260200160405180910390205f6101000a81548160ff0219169083151502179055508060405161138891906139e4565b60405180910390208260405161139e91906139e4565b60405180910390207ebd9d8cb164ee35fa093e9fa014b764c4a30ec9ca9c97b47d334f32cac346cc60405160405180910390a35050565b5f6005836040516113e691906139e4565b90815260200160405180910390208260405161140291906139e4565b90815260200160405180910390205f9054906101000a900460ff16905092915050565b5f8460405161143491906139e4565b908152602001604051809103902060040160019054906101000a900460ff1615611493576040517f08c379a000000000000000000000000000000000000000000000000000000000815260040161148a90614116565b60405180910390fd5b6040518060c001604052808481526020018381526020013373ffffffffffffffffffffffffffffffffffffffff1681526020014281526020018215158152602001600115158152505f856040516114ea91906139e4565b90815260200160405180910390205f820151815f01908161150b9190613c8d565b5060208201518160010190816115219190613c8d565b506040820151816002015f6101000a81548173ffffffffffffffffffffffffffffffffffffffff021916908373ffffffffffffffffffffffffffffffffffffffff160217905550606082015181600301556080820151816004015f6101000a81548160ff02191690831515021790555060a08201518160040160016101000a81548160ff021916908315150217905550905050600684908060018154018082558091505060019003905f5260205f20015f9091909190915090816115e59190613c8d565b50836040516115f491906139e4565b60405180910390207f1e709591efc3a6a63af9cda3e5eb2d7e286ac8a905465c97c9b7bc481533cd788460405161162b919061331b565b60405180910390a250505050565b60606007805480602002602001604051908101604052809291908181526020015f905b82821015611704578382905f5260205f200180546116799061397a565b80601f01602080910402602001604051908101604052809291908181526020018280546116a59061397a565b80156116f05780601f106116c7576101008083540402835291602001916116f0565b820191905f5260205f20905b8154815290600101906020018083116116d357829003601f168201915b50505050508152602001906001019061165c565b50505050905090565b60605f8061171a84612e33565b90505f5b600880549050811015611aac575f60026008838154811061174257611741614134565b5b905f5260205f200160405161175791906141e1565b9081526020016040518091039020604051806101200160405290815f820180546117809061397a565b80601f01602080910402602001604051908101604052809291908181526020018280546117ac9061397a565b80156117f75780601f106117ce576101008083540402835291602001916117f7565b820191905f5260205f20905b8154815290600101906020018083116117da57829003601f168201915b505050505081526020016001820180546118109061397a565b80601f016020809104026020016040519081016040528092919081815260200182805461183c9061397a565b80156118875780601f1061185e57610100808354040283529160200191611887565b820191905f5260205f20905b81548152906001019060200180831161186a57829003601f168201915b505050505081526020016002820180546118a09061397a565b80601f01602080910402602001604051908101604052809291908181526020018280546118cc9061397a565b80156119175780601f106118ee57610100808354040283529160200191611917565b820191905f5260205f20905b8154815290600101906020018083116118fa57829003601f168201915b505050505081526020016003820154815260200160048201548152602001600582015f9054906101000a900473ffffffffffffffffffffffffffffffffffffffff1673ffffffffffffffffffffffffffffffffffffffff1673ffffffffffffffffffffffffffffffffffffffff1681526020016005820160149054906101000a900460ff161515151581526020016005820160159054906101000a900460ff161515151581526020016006820180546119cf9061397a565b80601f01602080910402602001604051908101604052809291908181526020018280546119fb9061397a565b8015611a465780601f10611a1d57610100808354040283529160200191611a46565b820191905f5260205f20905b815481529060010190602001808311611a2957829003601f168201915b5050505050815250509050611a67611a618260200151612e33565b84612fe6565b80611a845750611a83611a7d8260400151612e33565b84612fe6565b5b15611a98578380611a9490614224565b9450505b508080611aa490614224565b91505061171e565b505f8267ffffffffffffffff811115611ac857611ac7613136565b5b604051908082528060200260200182016040528015611afb57816020015b6060815260200190600190039081611ae65790505b5090505f805b600880549050811015611f50575f600260088381548110611b2557611b24614134565b5b905f5260205f2001604051611b3a91906141e1565b9081526020016040518091039020604051806101200160405290815f82018054611b639061397a565b80601f0160208091040260200160405190810160405280929190818152602001828054611b8f9061397a565b8015611bda5780601f10611bb157610100808354040283529160200191611bda565b820191905f5260205f20905b815481529060010190602001808311611bbd57829003601f168201915b50505050508152602001600182018054611bf39061397a565b80601f0160208091040260200160405190810160405280929190818152602001828054611c1f9061397a565b8015611c6a5780601f10611c4157610100808354040283529160200191611c6a565b820191905f5260205f20905b815481529060010190602001808311611c4d57829003601f168201915b50505050508152602001600282018054611c839061397a565b80601f0160208091040260200160405190810160405280929190818152602001828054611caf9061397a565b8015611cfa5780601f10611cd157610100808354040283529160200191611cfa565b820191905f5260205f20905b815481529060010190602001808311611cdd57829003601f168201915b505050505081526020016003820154815260200160048201548152602001600582015f9054906101000a900473ffffffffffffffffffffffffffffffffffffffff1673ffffffffffffffffffffffffffffffffffffffff1673ffffffffffffffffffffffffffffffffffffffff1681526020016005820160149054906101000a900460ff161515151581526020016005820160159054906101000a900460ff16151515158152602001600682018054611db29061397a565b80601f0160208091040260200160405190810160405280929190818152602001828054611dde9061397a565b8015611e295780601f10611e0057610100808354040283529160200191611e29565b820191905f5260205f20905b815481529060010190602001808311611e0c57829003601f168201915b5050505050815250509050611e4a611e448260200151612e33565b86612fe6565b80611e675750611e66611e608260400151612e33565b86612fe6565b5b15611f3c5760088281548110611e8057611e7f614134565b5b905f5260205f20018054611e939061397a565b80601f0160208091040260200160405190810160405280929190818152602001828054611ebf9061397a565b8015611f0a5780601f10611ee157610100808354040283529160200191611f0a565b820191905f5260205f20905b815481529060010190602001808311611eed57829003601f168201915b5050505050848481518110611f2257611f21614134565b5b60200260200101819052508280611f3890614224565b9350505b508080611f4890614224565b915050611b01565b5081945050505050919050565b60606006805480602002602001604051908101604052809291908181526020015f905b82821015612028578382905f5260205f20018054611f9d9061397a565b80601f0160208091040260200160405190810160405280929190818152602001828054611fc99061397a565b80156120145780601f10611feb57610100808354040283529160200191612014565b820191905f5260205f20905b815481529060010190602001808311611ff757829003601f168201915b505050505081526020019060010190611f80565b50505050905090565b60038460405161204191906139e4565b908152602001604051809103902060040160149054906101000a900460ff16156120a0576040517f08c379a0000000000000000000000000000000000000000000000000000000008152600401612097906142db565b60405180910390fd5b6040518060c001604052808581526020018481526020018381526020018281526020013373ffffffffffffffffffffffffffffffffffffffff168152602001600115158152506003856040516120f691906139e4565b90815260200160405180910390205f820151815f0190816121179190613c8d565b50602082015181600101908161212d9190613c8d565b5060408201518160020190816121439190613c8d565b50606082015181600301556080820151816004015f6101000a81548173ffffffffffffffffffffffffffffffffffffffff021916908373ffffffffffffffffffffffffffffffffffffffff16021790555060a08201518160040160146101000a81548160ff021916908315150217905550905050600984908060018154018082558091505060019003905f5260205f20015f9091909190915090816121e89190613c8d565b50836040516121f791906139e4565b60405180910390207f24d1ac64a9fa567fd2c4a786f367ceb101af08701d6602d2531213fbc1eb9b608460405161222e919061331b565b60405180910390a250505050565b6060805f805f80606060028860405161225591906139e4565b908152602001604051809103902060050160159054906101000a900460ff166122b3576040517f08c379a00000000000000000000000000000000000000000000000000000000081526004016122aa90613f2a565b60405180910390fd5b5f6002896040516122c491906139e4565b9081526020016040518091039020604051806101200160405290815f820180546122ed9061397a565b80601f01602080910402602001604051908101604052809291908181526020018280546123199061397a565b80156123645780601f1061233b57610100808354040283529160200191612364565b820191905f5260205f20905b81548152906001019060200180831161234757829003601f168201915b5050505050815260200160018201805461237d9061397a565b80601f01602080910402602001604051908101604052809291908181526020018280546123a99061397a565b80156123f45780601f106123cb576101008083540402835291602001916123f4565b820191905f5260205f20905b8154815290600101906020018083116123d757829003601f168201915b5050505050815260200160028201805461240d9061397a565b80601f01602080910402602001604051908101604052809291908181526020018280546124399061397a565b80156124845780601f1061245b57610100808354040283529160200191612484565b820191905f5260205f20905b81548152906001019060200180831161246757829003601f168201915b505050505081526020016003820154815260200160048201548152602001600582015f9054906101000a900473ffffffffffffffffffffffffffffffffffffffff1673ffffffffffffffffffffffffffffffffffffffff1673ffffffffffffffffffffffffffffffffffffffff1681526020016005820160149054906101000a900460ff161515151581526020016005820160159054906101000a900460ff1615151515815260200160068201805461253c9061397a565b80601f01602080910402602001604051908101604052809291908181526020018280546125689061397a565b80156125b35780601f1061258a576101008083540402835291602001916125b3565b820191905f5260205f20905b81548152906001019060200180831161259657829003601f168201915b505050505081525050905080602001518160400151826060015183608001518460a001518560c00151866101000151975097509750975097509750975050919395979092949650565b6060805f8060038560405161261191906139e4565b908152602001604051809103902060040160149054906101000a900460ff1661266f576040517f08c379a000000000000000000000000000000000000000000000000000000000815260040161266690614343565b60405180910390fd5b5f60038660405161268091906139e4565b90815260200160405180910390206040518060c00160405290815f820180546126a89061397a565b80601f01602080910402602001604051908101604052809291908181526020018280546126d49061397a565b801561271f5780601f106126f65761010080835404028352916020019161271f565b820191905f5260205f20905b81548152906001019060200180831161270257829003601f168201915b505050505081526020016001820180546127389061397a565b80601f01602080910402602001604051908101604052809291908181526020018280546127649061397a565b80156127af5780601f10612786576101008083540402835291602001916127af565b820191905f5260205f20905b81548152906001019060200180831161279257829003601f168201915b505050505081526020016002820180546127c89061397a565b80601f01602080910402602001604051908101604052809291908181526020018280546127f49061397a565b801561283f5780601f106128165761010080835404028352916020019161283f565b820191905f5260205f20905b81548152906001019060200180831161282257829003601f168201915b5050505050815260200160038201548152602001600482015f9054906101000a900473ffffffffffffffffffffffffffffffffffffffff1673ffffffffffffffffffffffffffffffffffffffff1673ffffffffffffffffffffffffffffffffffffffff1681526020016004820160149054906101000a900460ff161515151581525050905080602001518160400151826060015183608001519450945094509450509193509193565b60606008805480602002602001604051908101604052809291908181526020015f905b828210156129b3578382905f5260205f200180546129289061397a565b80601f01602080910402602001604051908101604052809291908181526020018280546129549061397a565b801561299f5780601f106129765761010080835404028352916020019161299f565b820191905f5260205f20905b81548152906001019060200180831161298257829003601f168201915b50505050508152602001906001019061290b565b50505050905090565b60606002826040516129ce91906139e4565b908152602001604051809103902060050160159054906101000a900460ff16612a2c576040517f08c379a0000000000000000000000000000000000000000000000000000000008152600401612a2390613f2a565b60405180910390fd5b5f805b600780549050811015612ac557600584604051612a4c91906139e4565b908152602001604051809103902060078281548110612a6e57612a6d614134565b5b905f5260205f2001604051612a8391906141e1565b90815260200160405180910390205f9054906101000a900460ff1615612ab2578180612aae90614224565b9250505b8080612abd90614224565b915050612a2f565b505f8167ffffffffffffffff811115612ae157612ae0613136565b5b604051908082528060200260200182016040528015612b1457816020015b6060815260200190600190039081612aff5790505b5090505f805b600780549050811015612c7157600586604051612b3791906139e4565b908152602001604051809103902060078281548110612b5957612b58614134565b5b905f5260205f2001604051612b6e91906141e1565b90815260200160405180910390205f9054906101000a900460ff1615612c5e5760078181548110612ba257612ba1614134565b5b905f5260205f20018054612bb59061397a565b80601f0160208091040260200160405190810160405280929190818152602001828054612be19061397a565b8015612c2c5780601f10612c0357610100808354040283529160200191612c2c565b820191905f5260205f20905b815481529060010190602001808311612c0f57829003601f168201915b5050505050838381518110612c4457612c43614134565b5b60200260200101819052508180612c5a90614224565b9250505b8080612c6990614224565b915050612b1a565b50819350505050919050565b60605f5b600880549050811015612e1b575f60088281548110612ca357612ca2614134565b5b905f5260205f20018054612cb69061397a565b80601f0160208091040260200160405190810160405280929190818152602001828054612ce29061397a565b8015612d2d5780601f10612d0457610100808354040283529160200191612d2d565b820191905f5260205f20905b815481529060010190602001808311612d1057829003601f168201915b505050505090505f600482604051612d4591906139e4565b90815260200160405180910390208054612d5e9061397a565b80601f0160208091040260200160405190810160405280929190818152602001828054612d8a9061397a565b8015612dd55780601f10612dac57610100808354040283529160200191612dd5565b820191905f5260205f20905b815481529060010190602001808311612db857829003601f168201915b505050505090505f81511115612e06578480519060200120828051906020012003612e0557809350505050612e2e565b5b50508080612e1390614224565b915050612c81565b5060405180602001604052805f81525090505b919050565b60605f8290505f815167ffffffffffffffff811115612e5557612e54613136565b5b6040519080825280601f01601f191660200182016040528015612e875781602001600182028036833780820191505090505b5090505f5b8251811015612fdb576041838281518110612eaa57612ea9614134565b5b602001015160f81c60f81b60f81c60ff1610158015612eed5750605a838281518110612ed957612ed8614134565b5b602001015160f81c60f81b60f81c60ff1611155b15612f68576020838281518110612f0757612f06614134565b5b602001015160f81c60f81b60f81c612f1f919061436d565b60f81b828281518110612f3557612f34614134565b5b60200101907effffffffffffffffffffffffffffffffffffffffffffffffffffffffffffff191690815f1a905350612fc8565b828181518110612f7b57612f7a614134565b5b602001015160f81c60f81b828281518110612f9957612f98614134565b5b60200101907effffffffffffffffffffffffffffffffffffffffffffffffffffffffffffff191690815f1a9053505b8080612fd390614224565b915050612e8c565b508092505050919050565b5f808390505f83511480612ffb575082518151105b15613009575f915050613107565b5f5b8351825161301991906143a1565b8111613101575f600190505f5b85518110156130da5785818151811061304257613041614134565b5b602001015160f81c60f81b7effffffffffffffffffffffffffffffffffffffffffffffffffffffffffffff191684828561307c91906143d4565b8151811061308d5761308c614134565b5b602001015160f81c60f81b7effffffffffffffffffffffffffffffffffffffffffffffffffffffffffffff1916146130c7575f91506130da565b80806130d290614224565b915050613026565b5080156130ed5760019350505050613107565b5080806130f990614224565b91505061300b565b505f9150505b92915050565b5f604051905090565b5f80fd5b5f80fd5b5f80fd5b5f80fd5b5f601f19601f8301169050919050565b7f4e487b71000000000000000000000000000000000000000000000000000000005f52604160045260245ffd5b61316c82613126565b810181811067ffffffffffffffff8211171561318b5761318a613136565b5b80604052505050565b5f61319d61310d565b90506131a98282613163565b919050565b5f67ffffffffffffffff8211156131c8576131c7613136565b5b6131d182613126565b9050602081019050919050565b828183375f83830152505050565b5f6131fe6131f9846131ae565b613194565b90508281526020810184848401111561321a57613219613122565b5b6132258482856131de565b509392505050565b5f82601f8301126132415761324061311e565b5b81356132518482602086016131ec565b91505092915050565b5f6020828403121561326f5761326e613116565b5b5f82013567ffffffffffffffff81111561328c5761328b61311a565b5b6132988482850161322d565b91505092915050565b5f81519050919050565b5f82825260208201905092915050565b5f5b838110156132d85780820151818401526020810190506132bd565b5f8484015250505050565b5f6132ed826132a1565b6132f781856132ab565b93506133078185602086016132bb565b61331081613126565b840191505092915050565b5f6020820190508181035f83015261333381846132e3565b905092915050565b5f81519050919050565b5f82825260208201905092915050565b5f819050602082019050919050565b5f82825260208201905092915050565b5f61337e826132a1565b6133888185613364565b93506133988185602086016132bb565b6133a181613126565b840191505092915050565b5f6133b78383613374565b905092915050565b5f602082019050919050565b5f6133d58261333b565b6133df8185613345565b9350836020820285016133f185613355565b805f5b8581101561342c578484038952815161340d85826133ac565b9450613418836133bf565b925060208a019950506001810190506133f4565b50829750879550505050505092915050565b5f6020820190508181035f83015261345681846133cb565b905092915050565b5f73ffffffffffffffffffffffffffffffffffffffff82169050919050565b5f6134878261345e565b9050919050565b6134978161347d565b82525050565b5f819050919050565b6134af8161349d565b82525050565b5f8115159050919050565b6134c9816134b5565b82525050565b5f60a0820190508181035f8301526134e781886132e3565b905081810360208301526134fb81876132e3565b905061350a604083018661348e565b61351760608301856134a6565b61352460808301846134c0565b9695505050505050565b5f806040838503121561354457613543613116565b5b5f83013567ffffffffffffffff8111156135615761356061311a565b5b61356d8582860161322d565b925050602083013567ffffffffffffffff81111561358e5761358d61311a565b5b61359a8582860161322d565b9150509250929050565b6135ad8161349d565b81146135b7575f80fd5b50565b5f813590506135c8816135a4565b92915050565b5f805f805f8060c087890312156135e8576135e7613116565b5b5f87013567ffffffffffffffff8111156136055761360461311a565b5b61361189828a0161322d565b965050602087013567ffffffffffffffff8111156136325761363161311a565b5b61363e89828a0161322d565b955050604087013567ffffffffffffffff81111561365f5761365e61311a565b5b61366b89828a0161322d565b945050606061367c89828a016135ba565b935050608061368d89828a016135ba565b92505060a087013567ffffffffffffffff8111156136ae576136ad61311a565b5b6136ba89828a0161322d565b9150509295509295509295565b6136d0816134b5565b81146136da575f80fd5b50565b5f813590506136eb816136c7565b92915050565b5f805f806080858703121561370957613708613116565b5b5f85013567ffffffffffffffff8111156137265761372561311a565b5b6137328782880161322d565b945050602085013567ffffffffffffffff8111156137535761375261311a565b5b61375f8782880161322d565b935050604085013567ffffffffffffffff8111156137805761377f61311a565b5b61378c8782880161322d565b925050606061379d878288016136dd565b91505092959194509250565b5f6020820190506137bc5f8301846134c0565b92915050565b5f805f80608085870312156137da576137d9613116565b5b5f85013567ffffffffffffffff8111156137f7576137f661311a565b5b6138038782880161322d565b945050602085013567ffffffffffffffff8111156138245761382361311a565b5b6138308782880161322d565b935050604085013567ffffffffffffffff8111156138515761385061311a565b5b61385d8782880161322d565b925050606061386e878288016135ba565b91505092959194509250565b5f60e0820190508181035f830152613892818a6132e3565b905081810360208301526138a681896132e3565b90506138b560408301886134a6565b6138c260608301876134a6565b6138cf608083018661348e565b6138dc60a08301856134c0565b81810360c08301526138ee81846132e3565b905098975050505050505050565b5f6080820190508181035f83015261391481876132e3565b9050818103602083015261392881866132e3565b905061393760408301856134a6565b613944606083018461348e565b95945050505050565b7f4e487b71000000000000000000000000000000000000000000000000000000005f52602260045260245ffd5b5f600282049050600182168061399157607f821691505b6020821081036139a4576139a361394d565b5b50919050565b5f81905092915050565b5f6139be826132a1565b6139c881856139aa565b93506139d88185602086016132bb565b80840191505092915050565b5f6139ef82846139b4565b915081905092915050565b7f436f6e74657374616e7420646f6573206e6f74206578697374000000000000005f82015250565b5f613a2e6019836132ab565b9150613a39826139fa565b602082019050919050565b5f6020820190508181035f830152613a5b81613a22565b9050919050565b7f436f6e746573742077697468207468697320494420616c7265616479206578695f8201527f7374730000000000000000000000000000000000000000000000000000000000602082015250565b5f613abc6023836132ab565b9150613ac782613a62565b604082019050919050565b5f6020820190508181035f830152613ae981613ab0565b9050919050565b5f819050815f5260205f209050919050565b5f6020601f8301049050919050565b5f82821b905092915050565b5f60088302613b4c7fffffffffffffffffffffffffffffffffffffffffffffffffffffffffffffffff82613b11565b613b568683613b11565b95508019841693508086168417925050509392505050565b5f819050919050565b5f613b91613b8c613b878461349d565b613b6e565b61349d565b9050919050565b5f819050919050565b613baa83613b77565b613bbe613bb682613b98565b848454613b1d565b825550505050565b5f90565b613bd2613bc6565b613bdd818484613ba1565b505050565b5b81811015613c0057613bf55f82613bca565b600181019050613be3565b5050565b601f821115613c4557613c1681613af0565b613c1f84613b02565b81016020851015613c2e578190505b613c42613c3a85613b02565b830182613be2565b50505b505050565b5f82821c905092915050565b5f613c655f1984600802613c4a565b1980831691505092915050565b5f613c7d8383613c56565b9150826002028217905092915050565b613c96826132a1565b67ffffffffffffffff811115613caf57613cae613136565b5b613cb9825461397a565b613cc4828285613c04565b5f60209050601f831160018114613cf5575f8415613ce3578287015190505b613ced8582613c72565b865550613d54565b601f198416613d0386613af0565b5f5b82811015613d2a57848901518255600182019150602085019450602081019050613d05565b86831015613d475784890151613d43601f891682613c56565b8355505b6001600288020188555050505b505050505050565b7f456e642064617465206d757374206265206166746572207374617274206461745f8201527f6500000000000000000000000000000000000000000000000000000000000000602082015250565b5f613db66021836132ab565b9150613dc182613d5c565b604082019050919050565b5f6020820190508181035f830152613de381613daa565b9050919050565b7f436f6e74657374616e742077697468207468697320494420616c7265616479205f8201527f6578697374730000000000000000000000000000000000000000000000000000602082015250565b5f613e446026836132ab565b9150613e4f82613dea565b604082019050919050565b5f6020820190508181035f830152613e7181613e38565b9050919050565b7f436f6e74656e7420646f6573206e6f74206578697374000000000000000000005f82015250565b5f613eac6016836132ab565b9150613eb782613e78565b602082019050919050565b5f6020820190508181035f830152613ed981613ea0565b9050919050565b7f436f6e7465737420646f6573206e6f74206578697374000000000000000000005f82015250565b5f613f146016836132ab565b9150613f1f82613ee0565b602082019050919050565b5f6020820190508181035f830152613f4181613f08565b9050919050565b7f436f6e74657374206973206e6f742061637469766500000000000000000000005f82015250565b5f613f7c6015836132ab565b9150613f8782613f48565b602082019050919050565b5f6020820190508181035f830152613fa981613f70565b9050919050565b7f436f6e7465737420726567697374726174696f6e20697320636c6f73656400005f82015250565b5f613fe4601e836132ab565b9150613fef82613fb0565b602082019050919050565b5f6020820190508181035f83015261401181613fd8565b9050919050565b7f436f6e74657374616e7420616c7265616479207265676973746572656420666f5f8201527f72207468697320636f6e74657374000000000000000000000000000000000000602082015250565b5f614072602e836132ab565b915061407d82614018565b604082019050919050565b5f6020820190508181035f83015261409f81614066565b9050919050565b7f436f6e74656e742077697468207468697320494420616c7265616479206578695f8201527f7374730000000000000000000000000000000000000000000000000000000000602082015250565b5f6141006023836132ab565b915061410b826140a6565b604082019050919050565b5f6020820190508181035f83015261412d816140f4565b9050919050565b7f4e487b71000000000000000000000000000000000000000000000000000000005f52603260045260245ffd5b5f815461416d8161397a565b61417781866139aa565b9450600182165f811461419157600181146141a6576141d8565b60ff19831686528115158202860193506141d8565b6141af85613af0565b5f5b838110156141d0578154818901526001820191506020810190506141b1565b838801955050505b50505092915050565b5f6141ec8284614161565b915081905092915050565b7f4e487b71000000000000000000000000000000000000000000000000000000005f52601160045260245ffd5b5f61422e8261349d565b91507fffffffffffffffffffffffffffffffffffffffffffffffffffffffffffffffff82036142605761425f6141f7565b5b600182019050919050565b7f53706f6e736f722077697468207468697320494420616c7265616479206578695f8201527f7374730000000000000000000000000000000000000000000000000000000000602082015250565b5f6142c56023836132ab565b91506142d08261426b565b604082019050919050565b5f6020820190508181035f8301526142f2816142b9565b9050919050565b7f53706f6e736f7220646f6573206e6f74206578697374000000000000000000005f82015250565b5f61432d6016836132ab565b9150614338826142f9565b602082019050919050565b5f6020820190508181035f83015261435a81614321565b9050919050565b5f60ff82169050919050565b5f61437782614361565b915061438283614361565b9250828201905060ff81111561439b5761439a6141f7565b5b92915050565b5f6143ab8261349d565b91506143b68361349d565b92508282039050818111156143ce576143cd6141f7565b5b92915050565b5f6143de8261349d565b91506143e98361349d565b9250828201905080821115614401576144006141f7565b5b9291505056fea2646970667358221220f36c7708dd776a841ecb73ec07d6a7803160e12c58d51b02f966ad4eebb0521664736f6c63430008150033",
  "immutableReferences": {},
  "source": "// SPDX-License-Identifier: MIT\r\npragma solidity ^0.8.0;\r\n\r\ncontract ContentStorage {\r\n    // nh ngha struct cho th sinh\r\n    struct Contestant {\r\n        string id;\r\n        string name;\r\n        string details;\r\n        address creator;\r\n        uint256 timestamp;\r\n        bool verified;\r\n        bool exists;\r\n    }\r\n    \r\n    // nh ngha struct cho cuc thi\r\n    struct Contest {\r\n        string id;\r\n        string name;\r\n        string description;\r\n        uint256 startDate;\r\n        uint256 endDate;\r\n        address organizer;\r\n        bool active;\r\n        bool exists;\r\n        string imageURL;\r\n    }\r\n    \r\n    // nh ngha struct cho nh ti tr\r\n    struct Sponsor {\r\n        string id;\r\n        string name;\r\n        string contactInfo;\r\n        uint256 sponsorshipAmount;\r\n        address walletAddress;\r\n        bool exists;\r\n    }\r\n    \r\n    // nh ngha struct cho ni dung wiki thng thng\r\n    struct Content {\r\n        string title;\r\n        string content;\r\n        address creator;\r\n        uint256 timestamp;\r\n        bool verified;\r\n        bool exists;\r\n    }\r\n    \r\n    // Mapping t ID n cc loi d liu\r\n    mapping(string => Content) private contents;\r\n    mapping(string => Contestant) private contestants;\r\n    mapping(string => Contest) private contests;\r\n    mapping(string => Sponsor) private sponsors;\r\n    \r\n    // ========== LU CONTEST DNG JSON (D C TRN EXPLORER) ==========\r\n    event ContestCreatedJson(string jsonData);\r\n    mapping(string => string) public contestJsons;\r\n\r\n    // Mapping  theo di th sinh ng k tham gia cuc thi\r\n    mapping(string => mapping(string => bool)) private contestantRegistrations; // contestId => (contestantId => registered)\r\n    \r\n    // Mng lu tt c ID  c th ly danh sch\r\n    string[] private contentIds;\r\n    string[] private contestantIds;\r\n    string[] private contestIds;\r\n    string[] private sponsorIds;\r\n    \r\n    // Events\r\n    event ContentAdded(string indexed id, string title);\r\n    event ContestantAdded(string indexed id, string name);\r\n    event ContestCreated(string indexed id, string name);\r\n    event SponsorAdded(string indexed id, string name);\r\n    event ContestantRegistered(string indexed contestId, string indexed contestantId);\r\n    \r\n    constructor() {}\r\n    \r\n    // Lu ni dung mi\r\n    function storeContent(string memory id, string memory title, string memory contentText, bool verified) public {\r\n        // Kim tra xem ID  tn ti cha\r\n        require(!contents[id].exists, \"Content with this ID already exists\");\r\n        \r\n        // Lu ni dung mi\r\n        contents[id] = Content({\r\n            title: title,\r\n            content: contentText,\r\n            creator: msg.sender,\r\n            timestamp: block.timestamp,\r\n            verified: verified,\r\n            exists: true\r\n        });\r\n        \r\n        // Thm ID vo danh sch\r\n        contentIds.push(id);\r\n        \r\n        // Pht event\r\n        emit ContentAdded(id, title);\r\n    }\r\n    \r\n    // Ly ni dung theo ID\r\n    function getContent(string memory id) public view returns (\r\n        string memory title,\r\n        string memory content,\r\n        address creator,\r\n        uint256 timestamp,\r\n        bool verified\r\n    ) {\r\n        // Kim tra xem ni dung c tn ti khng\r\n        require(contents[id].exists, \"Content does not exist\");\r\n        \r\n        Content memory c = contents[id];\r\n        return (c.title, c.content, c.creator, c.timestamp, c.verified);\r\n    }\r\n    \r\n    // Ly danh sch tt c ID\r\n    function getAllContentIds() public view returns (string[] memory) {\r\n        return contentIds;\r\n    }\r\n    \r\n    // QUN L TH SINH\r\n    \r\n    // Thm th sinh mi\r\n    function addContestant(\r\n        string memory id, \r\n        string memory name, \r\n        string memory details, \r\n        bool verified\r\n    ) public {\r\n        require(!contestants[id].exists, \"Contestant with this ID already exists\");\r\n        \r\n        contestants[id] = Contestant({\r\n            id: id,\r\n            name: name,\r\n            details: details,\r\n            creator: msg.sender,\r\n            timestamp: block.timestamp,\r\n            verified: verified,\r\n            exists: true\r\n        });\r\n        \r\n        contestantIds.push(id);\r\n        emit ContestantAdded(id, name);\r\n    }\r\n    \r\n    // Ly thng tin th sinh theo ID\r\n    function getContestant(string memory id) public view returns (\r\n        string memory name,\r\n        string memory details,\r\n        address creator,\r\n        uint256 timestamp,\r\n        bool verified\r\n    ) {\r\n        require(contestants[id].exists, \"Contestant does not exist\");\r\n        \r\n        Contestant memory c = contestants[id];\r\n        return (c.name, c.details, c.creator, c.timestamp, c.verified);\r\n    }\r\n    \r\n    // Ly danh sch tt c ID th sinh\r\n    function getAllContestantIds() public view returns (string[] memory) {\r\n        return contestantIds;\r\n    }\r\n    \r\n    // QUN L CUC THI\r\n    \r\n    // Thm cuc thi mi\r\n    function createContest(\r\n        string memory id,\r\n        string memory name,\r\n        string memory description,\r\n        uint256 startDate,\r\n        uint256 endDate,\r\n        string memory imageURL\r\n    ) public {\r\n        require(!contests[id].exists, \"Contest with this ID already exists\");\r\n        require(endDate > startDate, \"End date must be after start date\");\r\n        \r\n        contests[id] = Contest({\r\n            id: id,\r\n            name: name,\r\n            description: description,\r\n            startDate: startDate,\r\n            endDate: endDate,\r\n            organizer: msg.sender,\r\n            active: true,\r\n            exists: true,\r\n            imageURL: imageURL\r\n        });\r\n        \r\n        contestIds.push(id);\r\n        emit ContestCreated(id, name);\r\n    }\r\n    \r\n    // ========== LU CONTEST DNG JSON (D C TRN EXPLORER) ==========\r\n    function createContestJson(string memory id, string memory jsonData) public {\r\n        require(bytes(contestJsons[id]).length == 0, \"Contest with this ID already exists\");\r\n        contestJsons[id] = jsonData;\r\n        contestIds.push(id);\r\n        emit ContestCreatedJson(jsonData);\r\n    }\r\n    \r\n    // Ly thng tin cuc thi theo ID\r\n    function getContest(string memory id) public view returns (\r\n        string memory name,\r\n        string memory description,\r\n        uint256 startDate,\r\n        uint256 endDate,\r\n        address organizer,\r\n        bool active,\r\n        string memory imageURL\r\n    ) {\r\n        require(contests[id].exists, \"Contest does not exist\");\r\n        \r\n        Contest memory c = contests[id];\r\n        return (c.name, c.description, c.startDate, c.endDate, c.organizer, c.active, c.imageURL);\r\n    }\r\n    \r\n    // Ly danh sch tt c ID cuc thi\r\n    function getAllContestIds() public view returns (string[] memory) {\r\n        return contestIds;\r\n    }\r\n    \r\n    // QUN L NH TI TR\r\n    \r\n    // Thm nh ti tr mi\r\n    function addSponsor(\r\n        string memory id,\r\n        string memory name,\r\n        string memory contactInfo,\r\n        uint256 sponsorshipAmount\r\n    ) public {\r\n        require(!sponsors[id].exists, \"Sponsor with this ID already exists\");\r\n        \r\n        sponsors[id] = Sponsor({\r\n            id: id,\r\n            name: name,\r\n            contactInfo: contactInfo,\r\n            sponsorshipAmount: sponsorshipAmount,\r\n            walletAddress: msg.sender,\r\n            exists: true\r\n        });\r\n        \r\n        sponsorIds.push(id);\r\n        emit SponsorAdded(id, name);\r\n    }\r\n    \r\n    // Ly thng tin nh ti tr theo ID\r\n    function getSponsor(string memory id) public view returns (\r\n        string memory name,\r\n        string memory contactInfo,\r\n        uint256 sponsorshipAmount,\r\n        address walletAddress\r\n    ) {\r\n        require(sponsors[id].exists, \"Sponsor does not exist\");\r\n        \r\n        Sponsor memory s = sponsors[id];\r\n        return (s.name, s.contactInfo, s.sponsorshipAmount, s.walletAddress);\r\n    }\r\n    \r\n    // Ly danh sch tt c ID nh ti tr\r\n    function getAllSponsorIds() public view returns (string[] memory) {\r\n        return sponsorIds;\r\n    }\r\n    \r\n    // QUN L NG K TH SINH - CUC THI\r\n    \r\n    // ng k th sinh vo cuc thi\r\n    function registerContestant(string memory contestId, string memory contestantId) public {\r\n        require(contests[contestId].exists, \"Contest does not exist\");\r\n        require(contestants[contestantId].exists, \"Contestant does not exist\");\r\n        require(contests[contestId].active, \"Contest is not active\");\r\n        require(block.timestamp < contests[contestId].endDate, \"Contest registration is closed\");\r\n        require(!contestantRegistrations[contestId][contestantId], \"Contestant already registered for this contest\");\r\n        \r\n        contestantRegistrations[contestId][contestantId] = true;\r\n        emit ContestantRegistered(contestId, contestantId);\r\n    }\r\n    \r\n    // Kim tra th sinh  ng k cuc thi hay cha\r\n    function isContestantRegistered(string memory contestId, string memory contestantId) public view returns (bool) {\r\n        return contestantRegistrations[contestId][contestantId];\r\n    }\r\n    \r\n    // Ly danh sch th sinh  ng k mt cuc thi\r\n    function getContestantsInContest(string memory contestId) public view returns (string[] memory) {\r\n        require(contests[contestId].exists, \"Contest does not exist\");\r\n        \r\n        // m s th sinh  ng k\r\n        uint count = 0;\r\n        for (uint i = 0; i < contestantIds.length; i++) {\r\n            if (contestantRegistrations[contestId][contestantIds[i]]) {\r\n                count++;\r\n            }\r\n        }\r\n        \r\n        // To mng kt qu\r\n        string[] memory result = new string[](count);\r\n        uint index = 0;\r\n        for (uint i = 0; i < contestantIds.length; i++) {\r\n            if (contestantRegistrations[contestId][contestantIds[i]]) {\r\n                result[index] = contestantIds[i];\r\n                index++;\r\n            }\r\n        }\r\n        \r\n        return result;\r\n    }\r\n    \r\n    // Hm tm kim contest theo t kha (trong tn hoc m t)\r\n    function searchContests(string memory keyword) public view returns (string[] memory) {\r\n        uint count = 0;\r\n        bytes memory keywordBytes = bytes(_toLower(keyword));\r\n\r\n        // m s contest ph hp\r\n        for (uint i = 0; i < contestIds.length; i++) {\r\n            Contest memory c = contests[contestIds[i]];\r\n            if (_contains(_toLower(c.name), keywordBytes) || _contains(_toLower(c.description), keywordBytes)) {\r\n                count++;\r\n            }\r\n        }\r\n\r\n        // To mng kt qu\r\n        string[] memory result = new string[](count);\r\n        uint index = 0;\r\n        for (uint i = 0; i < contestIds.length; i++) {\r\n            Contest memory c = contests[contestIds[i]];\r\n            if (_contains(_toLower(c.name), keywordBytes) || _contains(_toLower(c.description), keywordBytes)) {\r\n                result[index] = contestIds[i];\r\n                index++;\r\n            }\r\n        }\r\n        return result;\r\n    }\r\n\r\n    // Hm kim tra chui con (case-insensitive, ch h tr ASCII)\r\n    function _contains(string memory what, bytes memory where) internal pure returns (bool) {\r\n        bytes memory whatBytes = bytes(what);\r\n        if (where.length == 0 || whatBytes.length < where.length) {\r\n            return false;\r\n        }\r\n        for (uint i = 0; i <= whatBytes.length - where.length; i++) {\r\n            bool found = true;\r\n            for (uint j = 0; j < where.length; j++) {\r\n                if (whatBytes[i + j] != where[j]) {\r\n                    found = false;\r\n                    break;\r\n                }\r\n            }\r\n            if (found) return true;\r\n        }\r\n        return false;\r\n    }\r\n\r\n    // Hm chuyn chui v ch thng (ch h tr ASCII)\r\n    function _toLower(string memory str) internal pure returns (string memory) {\r\n        bytes memory bStr = bytes(str);\r\n        bytes memory bLower = new bytes(bStr.length);\r\n        for (uint i = 0; i < bStr.length; i++) {\r\n            // A-Z: 65-90, a-z: 97-122\r\n            if ((uint8(bStr[i]) >= 65) && (uint8(bStr[i]) <= 90)) {\r\n                bLower[i] = bytes1(uint8(bStr[i]) + 32);\r\n            } else {\r\n                bLower[i] = bStr[i];\r\n            }\r\n        }\r\n        return string(bLower);\r\n    }\r\n\r\n    // Ly contest JSON theo id (duyt ton b mapping)\r\n    function getContestJsonById(string memory id) public view returns (string memory) {\r\n        // Duyt ton b contestIds, ly JSON, parse id, so snh\r\n        for (uint i = 0; i < contestIds.length; i++) {\r\n            string memory contestId = contestIds[i];\r\n            string memory jsonData = contestJsons[contestId];\r\n            // So snh id (nu lu key l id)\r\n            if (bytes(jsonData).length > 0) {\r\n                // n gin: nu contestId == id\r\n                if (keccak256(bytes(contestId)) == keccak256(bytes(id))) {\r\n                    return jsonData;\r\n                }\r\n            }\r\n        }\r\n        return \"\";\r\n    }\r\n}\r\n",
  "sourcePath": "D:\\intern\\test-ui\\backend\\truffle\\contracts\\ContentStorage.sol",
  "compiler": {
    "name": "solc",
    "version": "0.8.21+commit.d9974bed.Emscripten.clang"
  },
  "schemaVersion": "3.4.16",
  "updatedAt": "2025-07-08T04:42:27.118Z",
  "networkType": "ethereum",
  "devdoc": {
    "kind": "dev",
    "methods": {},
    "version": 1
  },
  "userdoc": {
    "kind": "user",
    "methods": {},
    "version": 1
  }
}