{
  "contractName": "ContentStorage",
  "abi": [
    {
      "inputs": [],
      "stateMutability": "nonpayable",
      "type": "constructor"
    },
    {
      "anonymous": false,
      "inputs": [
        {
          "indexed": true,
          "internalType": "string",
          "name": "id",
          "type": "string"
        },
        {
          "indexed": false,
          "internalType": "string",
          "name": "title",
          "type": "string"
        }
      ],
      "name": "ContentAdded",
      "type": "event"
    },
    {
      "anonymous": false,
      "inputs": [
        {
          "indexed": true,
          "internalType": "string",
          "name": "id",
          "type": "string"
        },
        {
          "indexed": false,
          "internalType": "string",
          "name": "name",
          "type": "string"
        }
      ],
      "name": "ContestCreated",
      "type": "event"
    },
    {
      "anonymous": false,
      "inputs": [
        {
          "indexed": false,
          "internalType": "string",
          "name": "jsonData",
          "type": "string"
        }
      ],
      "name": "ContestCreatedJson",
      "type": "event"
    },
    {
      "anonymous": false,
      "inputs": [
        {
          "indexed": true,
          "internalType": "string",
          "name": "id",
          "type": "string"
        },
        {
          "indexed": false,
          "internalType": "string",
          "name": "name",
          "type": "string"
        }
      ],
      "name": "ContestantAdded",
      "type": "event"
    },
    {
      "anonymous": false,
      "inputs": [
        {
          "indexed": true,
          "internalType": "string",
          "name": "contestId",
          "type": "string"
        },
        {
          "indexed": true,
          "internalType": "string",
          "name": "contestantId",
          "type": "string"
        }
      ],
      "name": "ContestantRegistered",
      "type": "event"
    },
    {
      "anonymous": false,
      "inputs": [
        {
          "indexed": true,
          "internalType": "string",
          "name": "id",
          "type": "string"
        },
        {
          "indexed": false,
          "internalType": "string",
          "name": "name",
          "type": "string"
        }
      ],
      "name": "SponsorAdded",
      "type": "event"
    },
    {
      "inputs": [
        {
          "internalType": "string",
          "name": "",
          "type": "string"
        }
      ],
      "name": "contestJsons",
      "outputs": [
        {
          "internalType": "string",
          "name": "",
          "type": "string"
        }
      ],
      "stateMutability": "view",
      "type": "function",
      "constant": true
    },
    {
      "inputs": [
        {
          "internalType": "string",
          "name": "id",
          "type": "string"
        },
        {
          "internalType": "string",
          "name": "title",
          "type": "string"
        },
        {
          "internalType": "string",
          "name": "contentText",
          "type": "string"
        },
        {
          "internalType": "bool",
          "name": "verified",
          "type": "bool"
        }
      ],
      "name": "storeContent",
      "outputs": [],
      "stateMutability": "nonpayable",
      "type": "function"
    },
    {
      "inputs": [
        {
          "internalType": "string",
          "name": "id",
          "type": "string"
        }
      ],
      "name": "getContent",
      "outputs": [
        {
          "internalType": "string",
          "name": "title",
          "type": "string"
        },
        {
          "internalType": "string",
          "name": "content",
          "type": "string"
        },
        {
          "internalType": "address",
          "name": "creator",
          "type": "address"
        },
        {
          "internalType": "uint256",
          "name": "timestamp",
          "type": "uint256"
        },
        {
          "internalType": "bool",
          "name": "verified",
          "type": "bool"
        }
      ],
      "stateMutability": "view",
      "type": "function",
      "constant": true
    },
    {
      "inputs": [],
      "name": "getAllContentIds",
      "outputs": [
        {
          "internalType": "string[]",
          "name": "",
          "type": "string[]"
        }
      ],
      "stateMutability": "view",
      "type": "function",
      "constant": true
    },
    {
      "inputs": [
        {
          "internalType": "string",
          "name": "id",
          "type": "string"
        },
        {
          "internalType": "string",
          "name": "name",
          "type": "string"
        },
        {
          "internalType": "string",
          "name": "details",
          "type": "string"
        },
        {
          "internalType": "bool",
          "name": "verified",
          "type": "bool"
        }
      ],
      "name": "addContestant",
      "outputs": [],
      "stateMutability": "nonpayable",
      "type": "function"
    },
    {
      "inputs": [
        {
          "internalType": "string",
          "name": "id",
          "type": "string"
        }
      ],
      "name": "getContestant",
      "outputs": [
        {
          "internalType": "string",
          "name": "name",
          "type": "string"
        },
        {
          "internalType": "string",
          "name": "details",
          "type": "string"
        },
        {
          "internalType": "address",
          "name": "creator",
          "type": "address"
        },
        {
          "internalType": "uint256",
          "name": "timestamp",
          "type": "uint256"
        },
        {
          "internalType": "bool",
          "name": "verified",
          "type": "bool"
        }
      ],
      "stateMutability": "view",
      "type": "function",
      "constant": true
    },
    {
      "inputs": [],
      "name": "getAllContestantIds",
      "outputs": [
        {
          "internalType": "string[]",
          "name": "",
          "type": "string[]"
        }
      ],
      "stateMutability": "view",
      "type": "function",
      "constant": true
    },
    {
      "inputs": [
        {
          "internalType": "string",
          "name": "id",
          "type": "string"
        },
        {
          "internalType": "string",
          "name": "name",
          "type": "string"
        },
        {
          "internalType": "string",
          "name": "description",
          "type": "string"
        },
        {
          "internalType": "uint256",
          "name": "startDate",
          "type": "uint256"
        },
        {
          "internalType": "uint256",
          "name": "endDate",
          "type": "uint256"
        },
        {
          "internalType": "string",
          "name": "imageURL",
          "type": "string"
        }
      ],
      "name": "createContest",
      "outputs": [],
      "stateMutability": "nonpayable",
      "type": "function"
    },
    {
      "inputs": [
        {
          "internalType": "string",
          "name": "id",
          "type": "string"
        },
        {
          "internalType": "string",
          "name": "jsonData",
          "type": "string"
        }
      ],
      "name": "createContestJson",
      "outputs": [],
      "stateMutability": "nonpayable",
      "type": "function"
    },
    {
      "inputs": [
        {
          "internalType": "string",
          "name": "id",
          "type": "string"
        }
      ],
      "name": "getContest",
      "outputs": [
        {
          "internalType": "string",
          "name": "name",
          "type": "string"
        },
        {
          "internalType": "string",
          "name": "description",
          "type": "string"
        },
        {
          "internalType": "uint256",
          "name": "startDate",
          "type": "uint256"
        },
        {
          "internalType": "uint256",
          "name": "endDate",
          "type": "uint256"
        },
        {
          "internalType": "address",
          "name": "organizer",
          "type": "address"
        },
        {
          "internalType": "bool",
          "name": "active",
          "type": "bool"
        },
        {
          "internalType": "string",
          "name": "imageURL",
          "type": "string"
        }
      ],
      "stateMutability": "view",
      "type": "function",
      "constant": true
    },
    {
      "inputs": [],
      "name": "getAllContestIds",
      "outputs": [
        {
          "internalType": "string[]",
          "name": "",
          "type": "string[]"
        }
      ],
      "stateMutability": "view",
      "type": "function",
      "constant": true
    },
    {
      "inputs": [
        {
          "internalType": "string",
          "name": "id",
          "type": "string"
        },
        {
          "internalType": "string",
          "name": "name",
          "type": "string"
        },
        {
          "internalType": "string",
          "name": "contactInfo",
          "type": "string"
        },
        {
          "internalType": "uint256",
          "name": "sponsorshipAmount",
          "type": "uint256"
        }
      ],
      "name": "addSponsor",
      "outputs": [],
      "stateMutability": "nonpayable",
      "type": "function"
    },
    {
      "inputs": [
        {
          "internalType": "string",
          "name": "id",
          "type": "string"
        }
      ],
      "name": "getSponsor",
      "outputs": [
        {
          "internalType": "string",
          "name": "name",
          "type": "string"
        },
        {
          "internalType": "string",
          "name": "contactInfo",
          "type": "string"
        },
        {
          "internalType": "uint256",
          "name": "sponsorshipAmount",
          "type": "uint256"
        },
        {
          "internalType": "address",
          "name": "walletAddress",
          "type": "address"
        }
      ],
      "stateMutability": "view",
      "type": "function",
      "constant": true
    },
    {
      "inputs": [],
      "name": "getAllSponsorIds",
      "outputs": [
        {
          "internalType": "string[]",
          "name": "",
          "type": "string[]"
        }
      ],
      "stateMutability": "view",
      "type": "function",
      "constant": true
    },
    {
      "inputs": [
        {
          "internalType": "string",
          "name": "contestId",
          "type": "string"
        },
        {
          "internalType": "string",
          "name": "contestantId",
          "type": "string"
        }
      ],
      "name": "registerContestant",
      "outputs": [],
      "stateMutability": "nonpayable",
      "type": "function"
    },
    {
      "inputs": [
        {
          "internalType": "string",
          "name": "contestId",
          "type": "string"
        },
        {
          "internalType": "string",
          "name": "contestantId",
          "type": "string"
        }
      ],
      "name": "isContestantRegistered",
      "outputs": [
        {
          "internalType": "bool",
          "name": "",
          "type": "bool"
        }
      ],
      "stateMutability": "view",
      "type": "function",
      "constant": true
    },
    {
      "inputs": [
        {
          "internalType": "string",
          "name": "contestId",
          "type": "string"
        }
      ],
      "name": "getContestantsInContest",
      "outputs": [
        {
          "internalType": "string[]",
          "name": "",
          "type": "string[]"
        }
      ],
      "stateMutability": "view",
      "type": "function",
      "constant": true
    },
    {
      "inputs": [
        {
          "internalType": "string",
          "name": "keyword",
          "type": "string"
        }
      ],
      "name": "searchContests",
      "outputs": [
        {
          "internalType": "string[]",
          "name": "",
          "type": "string[]"
        }
      ],
      "stateMutability": "view",
      "type": "function",
      "constant": true
    },
    {
      "inputs": [
        {
          "internalType": "string",
          "name": "id",
          "type": "string"
        }
      ],
      "name": "getContestJsonById",
      "outputs": [
        {
          "internalType": "string",
          "name": "",
          "type": "string"
        }
      ],
      "stateMutability": "view",
      "type": "function",
      "constant": true
    }
  ],
  "bytecode": "0x608060405234801561000f575f80fd5b506146188061001d5f395ff3fe608060405234801561000f575f80fd5b506004361061011e575f3560e01c8063b7ca7d9a116100ab578063ced095d61161006f578063ced095d61461031c578063dd3b3ddf14610352578063e28f73a314610385578063e371696f146103a3578063e5328bd8146103d35761011e565b8063b7ca7d9a14610278578063be90800014610294578063c03a889f146102b2578063c130efd0146102e2578063ccb65c8f146103005761011e565b80637c25ebaa116100f25780637c25ebaa146101c05780638b1e3d58146101dc5780638c9e1f3c146101f8578063adb9a7251461022c578063b20fe968146102485761011e565b8062c2a89614610122578063176a8810146101525780632d63d10d146101705780635797bd0a146101a4575b5f80fd5b61013c60048036038101906101379190613435565b610403565b60405161014991906134f6565b60405180910390f35b61015a6104b6565b6040516101679190613619565b60405180910390f35b61018a60048036038101906101859190613435565b61058a565b60405161019b9594939291906136aa565b60405180910390f35b6101be60048036038101906101b99190613709565b61089a565b005b6101da60048036038101906101d591906137a9565b61099f565b005b6101f660048036038101906101f191906138cc565b610c70565b005b610212600480360381019061020d9190613435565b610ea2565b6040516102239594939291906136aa565b60405180910390f35b61024660048036038101906102419190613709565b61111f565b005b610262600480360381019061025d9190613709565b611400565b60405161026f9190613984565b60405180910390f35b610292600480360381019061028d91906138cc565b611450565b005b61029c611664565b6040516102a99190613619565b60405180910390f35b6102cc60048036038101906102c79190613435565b611738565b6040516102d99190613619565b60405180910390f35b6102ea6120a8565b6040516102f79190613619565b60405180910390f35b61031a6004803603810190610315919061399d565b61217c565b005b61033660048036038101906103319190613435565b612387565b6040516103499796959493929190613a55565b60405180910390f35b61036c60048036038101906103679190613435565b6127d7565b60405161037c9493929190613ad7565b60405180910390f35b61038d612ac3565b60405161039a9190613619565b60405180910390f35b6103bd60048036038101906103b89190613435565b612b97565b6040516103ca9190613619565b60405180910390f35b6103ed60048036038101906103e89190613435565b612e58565b6040516103fa91906134f6565b60405180910390f35b6004818051602081018201805184825260208301602085012081835280955050505050505f91509050805461043790613b55565b80601f016020809104026020016040519081016040528092919081815260200182805461046390613b55565b80156104ae5780601f10610485576101008083540402835291602001916104ae565b820191905f5260205f20905b81548152906001019060200180831161049157829003601f168201915b505050505081565b60606009805480602002602001604051908101604052809291908181526020015f905b82821015610581578382905f5260205f200180546104f690613b55565b80601f016020809104026020016040519081016040528092919081815260200182805461052290613b55565b801561056d5780601f106105445761010080835404028352916020019161056d565b820191905f5260205f20905b81548152906001019060200180831161055057829003601f168201915b5050505050815260200190600101906104d9565b50505050905090565b6060805f805f6001866040516105a09190613bbf565b908152602001604051809103902060050160019054906101000a900460ff166105fe576040517f08c379a00000000000000000000000000000000000000000000000000000000081526004016105f590613c1f565b60405180910390fd5b5f60018760405161060f9190613bbf565b90815260200160405180910390206040518060e00160405290815f8201805461063790613b55565b80601f016020809104026020016040519081016040528092919081815260200182805461066390613b55565b80156106ae5780601f10610685576101008083540402835291602001916106ae565b820191905f5260205f20905b81548152906001019060200180831161069157829003601f168201915b505050505081526020016001820180546106c790613b55565b80601f01602080910402602001604051908101604052809291908181526020018280546106f390613b55565b801561073e5780601f106107155761010080835404028352916020019161073e565b820191905f5260205f20905b81548152906001019060200180831161072157829003601f168201915b5050505050815260200160028201805461075790613b55565b80601f016020809104026020016040519081016040528092919081815260200182805461078390613b55565b80156107ce5780601f106107a5576101008083540402835291602001916107ce565b820191905f5260205f20905b8154815290600101906020018083116107b157829003601f168201915b50505050508152602001600382015f9054906101000a900473ffffffffffffffffffffffffffffffffffffffff1673ffffffffffffffffffffffffffffffffffffffff1673ffffffffffffffffffffffffffffffffffffffff16815260200160048201548152602001600582015f9054906101000a900460ff161515151581526020016005820160019054906101000a900460ff161515151581525050905080602001518160400151826060015183608001518460a00151955095509550955095505091939590929450565b5f6004836040516108ab9190613bbf565b908152602001604051809103902080546108c490613b55565b905014610906576040517f08c379a00000000000000000000000000000000000000000000000000000000081526004016108fd90613cad565b60405180910390fd5b806004836040516109179190613bbf565b908152602001604051809103902090816109319190613e68565b50600882908060018154018082558091505060019003905f5260205f20015f9091909190915090816109639190613e68565b507fbfb3027a6b1d0bcfe1b9d2d1bb0fec73a1ac0160ba63242fc92e1154325f9e838160405161099391906134f6565b60405180910390a15050565b6002866040516109af9190613bbf565b908152602001604051809103902060050160159054906101000a900460ff1615610a0e576040517f08c379a0000000000000000000000000000000000000000000000000000000008152600401610a0590613cad565b60405180910390fd5b828211610a50576040517f08c379a0000000000000000000000000000000000000000000000000000000008152600401610a4790613fa7565b60405180910390fd5b6040518061014001604052808781526020018681526020018581526020018481526020018381526020013373ffffffffffffffffffffffffffffffffffffffff16815260200160011515815260200160011515815260200182815260200160405180602001604052805f815250815250600287604051610ad09190613bbf565b90815260200160405180910390205f820151815f019081610af19190613e68565b506020820151816001019081610b079190613e68565b506040820151816002019081610b1d9190613e68565b50606082015181600301556080820151816004015560a0820151816005015f6101000a81548173ffffffffffffffffffffffffffffffffffffffff021916908373ffffffffffffffffffffffffffffffffffffffff16021790555060c08201518160050160146101000a81548160ff02191690831515021790555060e08201518160050160156101000a81548160ff021916908315150217905550610100820151816006019081610bce9190613e68565b50610120820151816007019081610be59190613e68565b50905050600886908060018154018082558091505060019003905f5260205f20015f909190919091509081610c1a9190613e68565b5085604051610c299190613bbf565b60405180910390207f56719311596b0ad53a90cb06e6f5cb3ae4fdb15563147f3c7b67eaf9933a882c86604051610c6091906134f6565b60405180910390a2505050505050565b600184604051610c809190613bbf565b908152602001604051809103902060050160019054906101000a900460ff1615610cdf576040517f08c379a0000000000000000000000000000000000000000000000000000000008152600401610cd690614035565b60405180910390fd5b6040518060e001604052808581526020018481526020018381526020013373ffffffffffffffffffffffffffffffffffffffff168152602001428152602001821515815260200160011515815250600185604051610d3d9190613bbf565b90815260200160405180910390205f820151815f019081610d5e9190613e68565b506020820151816001019081610d749190613e68565b506040820151816002019081610d8a9190613e68565b506060820151816003015f6101000a81548173ffffffffffffffffffffffffffffffffffffffff021916908373ffffffffffffffffffffffffffffffffffffffff1602179055506080820151816004015560a0820151816005015f6101000a81548160ff02191690831515021790555060c08201518160050160016101000a81548160ff021916908315150217905550905050600784908060018154018082558091505060019003905f5260205f20015f909190919091509081610e4e9190613e68565b5083604051610e5d9190613bbf565b60405180910390207f4de24c70a78dbc1117cc81ff2a6d8d46c93ddf2730858dd9cb5fa02e66f4c2c584604051610e9491906134f6565b60405180910390a250505050565b6060805f805f8086604051610eb79190613bbf565b908152602001604051809103902060040160019054906101000a900460ff16610f15576040517f08c379a0000000000000000000000000000000000000000000000000000000008152600401610f0c9061409d565b60405180910390fd5b5f8087604051610f259190613bbf565b90815260200160405180910390206040518060c00160405290815f82018054610f4d90613b55565b80601f0160208091040260200160405190810160405280929190818152602001828054610f7990613b55565b8015610fc45780601f10610f9b57610100808354040283529160200191610fc4565b820191905f5260205f20905b815481529060010190602001808311610fa757829003601f168201915b50505050508152602001600182018054610fdd90613b55565b80601f016020809104026020016040519081016040528092919081815260200182805461100990613b55565b80156110545780601f1061102b57610100808354040283529160200191611054565b820191905f5260205f20905b81548152906001019060200180831161103757829003601f168201915b50505050508152602001600282015f9054906101000a900473ffffffffffffffffffffffffffffffffffffffff1673ffffffffffffffffffffffffffffffffffffffff1673ffffffffffffffffffffffffffffffffffffffff16815260200160038201548152602001600482015f9054906101000a900460ff161515151581526020016004820160019054906101000a900460ff1615151515815250509050805f01518160200151826040015183606001518460800151955095509550955095505091939590929450565b60028260405161112f9190613bbf565b908152602001604051809103902060050160159054906101000a900460ff1661118d576040517f08c379a000000000000000000000000000000000000000000000000000000000815260040161118490614105565b60405180910390fd5b60018160405161119d9190613bbf565b908152602001604051809103902060050160019054906101000a900460ff166111fb576040517f08c379a00000000000000000000000000000000000000000000000000000000081526004016111f290613c1f565b60405180910390fd5b60028260405161120b9190613bbf565b908152602001604051809103902060050160149054906101000a900460ff16611269576040517f08c379a00000000000000000000000000000000000000000000000000000000081526004016112609061416d565b60405180910390fd5b6002826040516112799190613bbf565b90815260200160405180910390206004015442106112cc576040517f08c379a00000000000000000000000000000000000000000000000000000000081526004016112c3906141d5565b60405180910390fd5b6005826040516112dc9190613bbf565b9081526020016040518091039020816040516112f89190613bbf565b90815260200160405180910390205f9054906101000a900460ff1615611353576040517f08c379a000000000000000000000000000000000000000000000000000000000815260040161134a90614263565b60405180910390fd5b60016005836040516113659190613bbf565b9081526020016040518091039020826040516113819190613bbf565b90815260200160405180910390205f6101000a81548160ff021916908315150217905550806040516113b39190613bbf565b6040518091039020826040516113c99190613bbf565b60405180910390207ebd9d8cb164ee35fa093e9fa014b764c4a30ec9ca9c97b47d334f32cac346cc60405160405180910390a35050565b5f6005836040516114119190613bbf565b90815260200160405180910390208260405161142d9190613bbf565b90815260200160405180910390205f9054906101000a900460ff16905092915050565b5f8460405161145f9190613bbf565b908152602001604051809103902060040160019054906101000a900460ff16156114be576040517f08c379a00000000000000000000000000000000000000000000000000000000081526004016114b5906142f1565b60405180910390fd5b6040518060c001604052808481526020018381526020013373ffffffffffffffffffffffffffffffffffffffff1681526020014281526020018215158152602001600115158152505f856040516115159190613bbf565b90815260200160405180910390205f820151815f0190816115369190613e68565b50602082015181600101908161154c9190613e68565b506040820151816002015f6101000a81548173ffffffffffffffffffffffffffffffffffffffff021916908373ffffffffffffffffffffffffffffffffffffffff160217905550606082015181600301556080820151816004015f6101000a81548160ff02191690831515021790555060a08201518160040160016101000a81548160ff021916908315150217905550905050600684908060018154018082558091505060019003905f5260205f20015f9091909190915090816116109190613e68565b508360405161161f9190613bbf565b60405180910390207f1e709591efc3a6a63af9cda3e5eb2d7e286ac8a905465c97c9b7bc481533cd788460405161165691906134f6565b60405180910390a250505050565b60606007805480602002602001604051908101604052809291908181526020015f905b8282101561172f578382905f5260205f200180546116a490613b55565b80601f01602080910402602001604051908101604052809291908181526020018280546116d090613b55565b801561171b5780601f106116f25761010080835404028352916020019161171b565b820191905f5260205f20905b8154815290600101906020018083116116fe57829003601f168201915b505050505081526020019060010190611687565b50505050905090565b60605f806117458461300e565b90505f5b600880549050811015611b67575f60026008838154811061176d5761176c61430f565b5b905f5260205f200160405161178291906143bc565b9081526020016040518091039020604051806101400160405290815f820180546117ab90613b55565b80601f01602080910402602001604051908101604052809291908181526020018280546117d790613b55565b80156118225780601f106117f957610100808354040283529160200191611822565b820191905f5260205f20905b81548152906001019060200180831161180557829003601f168201915b5050505050815260200160018201805461183b90613b55565b80601f016020809104026020016040519081016040528092919081815260200182805461186790613b55565b80156118b25780601f10611889576101008083540402835291602001916118b2565b820191905f5260205f20905b81548152906001019060200180831161189557829003601f168201915b505050505081526020016002820180546118cb90613b55565b80601f01602080910402602001604051908101604052809291908181526020018280546118f790613b55565b80156119425780601f1061191957610100808354040283529160200191611942565b820191905f5260205f20905b81548152906001019060200180831161192557829003601f168201915b505050505081526020016003820154815260200160048201548152602001600582015f9054906101000a900473ffffffffffffffffffffffffffffffffffffffff1673ffffffffffffffffffffffffffffffffffffffff1673ffffffffffffffffffffffffffffffffffffffff1681526020016005820160149054906101000a900460ff161515151581526020016005820160159054906101000a900460ff161515151581526020016006820180546119fa90613b55565b80601f0160208091040260200160405190810160405280929190818152602001828054611a2690613b55565b8015611a715780601f10611a4857610100808354040283529160200191611a71565b820191905f5260205f20905b815481529060010190602001808311611a5457829003601f168201915b50505050508152602001600782018054611a8a90613b55565b80601f0160208091040260200160405190810160405280929190818152602001828054611ab690613b55565b8015611b015780601f10611ad857610100808354040283529160200191611b01565b820191905f5260205f20905b815481529060010190602001808311611ae457829003601f168201915b5050505050815250509050611b22611b1c826020015161300e565b846131c1565b80611b3f5750611b3e611b38826040015161300e565b846131c1565b5b15611b53578380611b4f906143ff565b9450505b508080611b5f906143ff565b915050611749565b505f8267ffffffffffffffff811115611b8357611b82613311565b5b604051908082528060200260200182016040528015611bb657816020015b6060815260200190600190039081611ba15790505b5090505f805b60088054905081101561209b575f600260088381548110611be057611bdf61430f565b5b905f5260205f2001604051611bf591906143bc565b9081526020016040518091039020604051806101400160405290815f82018054611c1e90613b55565b80601f0160208091040260200160405190810160405280929190818152602001828054611c4a90613b55565b8015611c955780601f10611c6c57610100808354040283529160200191611c95565b820191905f5260205f20905b815481529060010190602001808311611c7857829003601f168201915b50505050508152602001600182018054611cae90613b55565b80601f0160208091040260200160405190810160405280929190818152602001828054611cda90613b55565b8015611d255780601f10611cfc57610100808354040283529160200191611d25565b820191905f5260205f20905b815481529060010190602001808311611d0857829003601f168201915b50505050508152602001600282018054611d3e90613b55565b80601f0160208091040260200160405190810160405280929190818152602001828054611d6a90613b55565b8015611db55780601f10611d8c57610100808354040283529160200191611db5565b820191905f5260205f20905b815481529060010190602001808311611d9857829003601f168201915b505050505081526020016003820154815260200160048201548152602001600582015f9054906101000a900473ffffffffffffffffffffffffffffffffffffffff1673ffffffffffffffffffffffffffffffffffffffff1673ffffffffffffffffffffffffffffffffffffffff1681526020016005820160149054906101000a900460ff161515151581526020016005820160159054906101000a900460ff16151515158152602001600682018054611e6d90613b55565b80601f0160208091040260200160405190810160405280929190818152602001828054611e9990613b55565b8015611ee45780601f10611ebb57610100808354040283529160200191611ee4565b820191905f5260205f20905b815481529060010190602001808311611ec757829003601f168201915b50505050508152602001600782018054611efd90613b55565b80601f0160208091040260200160405190810160405280929190818152602001828054611f2990613b55565b8015611f745780601f10611f4b57610100808354040283529160200191611f74565b820191905f5260205f20905b815481529060010190602001808311611f5757829003601f168201915b5050505050815250509050611f95611f8f826020015161300e565b866131c1565b80611fb25750611fb1611fab826040015161300e565b866131c1565b5b156120875760088281548110611fcb57611fca61430f565b5b905f5260205f20018054611fde90613b55565b80601f016020809104026020016040519081016040528092919081815260200182805461200a90613b55565b80156120555780601f1061202c57610100808354040283529160200191612055565b820191905f5260205f20905b81548152906001019060200180831161203857829003601f168201915b505050505084848151811061206d5761206c61430f565b5b60200260200101819052508280612083906143ff565b9350505b508080612093906143ff565b915050611bbc565b5081945050505050919050565b60606006805480602002602001604051908101604052809291908181526020015f905b82821015612173578382905f5260205f200180546120e890613b55565b80601f016020809104026020016040519081016040528092919081815260200182805461211490613b55565b801561215f5780601f106121365761010080835404028352916020019161215f565b820191905f5260205f20905b81548152906001019060200180831161214257829003601f168201915b5050505050815260200190600101906120cb565b50505050905090565b60038460405161218c9190613bbf565b908152602001604051809103902060040160149054906101000a900460ff16156121eb576040517f08c379a00000000000000000000000000000000000000000000000000000000081526004016121e2906144b6565b60405180910390fd5b6040518060c001604052808581526020018481526020018381526020018281526020013373ffffffffffffffffffffffffffffffffffffffff168152602001600115158152506003856040516122419190613bbf565b90815260200160405180910390205f820151815f0190816122629190613e68565b5060208201518160010190816122789190613e68565b50604082015181600201908161228e9190613e68565b50606082015181600301556080820151816004015f6101000a81548173ffffffffffffffffffffffffffffffffffffffff021916908373ffffffffffffffffffffffffffffffffffffffff16021790555060a08201518160040160146101000a81548160ff021916908315150217905550905050600984908060018154018082558091505060019003905f5260205f20015f9091909190915090816123339190613e68565b50836040516123429190613bbf565b60405180910390207f24d1ac64a9fa567fd2c4a786f367ceb101af08701d6602d2531213fbc1eb9b608460405161237991906134f6565b60405180910390a250505050565b6060805f805f8060606002886040516123a09190613bbf565b908152602001604051809103902060050160159054906101000a900460ff166123fe576040517f08c379a00000000000000000000000000000000000000000000000000000000081526004016123f590614105565b60405180910390fd5b5f60028960405161240f9190613bbf565b9081526020016040518091039020604051806101400160405290815f8201805461243890613b55565b80601f016020809104026020016040519081016040528092919081815260200182805461246490613b55565b80156124af5780601f10612486576101008083540402835291602001916124af565b820191905f5260205f20905b81548152906001019060200180831161249257829003601f168201915b505050505081526020016001820180546124c890613b55565b80601f01602080910402602001604051908101604052809291908181526020018280546124f490613b55565b801561253f5780601f106125165761010080835404028352916020019161253f565b820191905f5260205f20905b81548152906001019060200180831161252257829003601f168201915b5050505050815260200160028201805461255890613b55565b80601f016020809104026020016040519081016040528092919081815260200182805461258490613b55565b80156125cf5780601f106125a6576101008083540402835291602001916125cf565b820191905f5260205f20905b8154815290600101906020018083116125b257829003601f168201915b505050505081526020016003820154815260200160048201548152602001600582015f9054906101000a900473ffffffffffffffffffffffffffffffffffffffff1673ffffffffffffffffffffffffffffffffffffffff1673ffffffffffffffffffffffffffffffffffffffff1681526020016005820160149054906101000a900460ff161515151581526020016005820160159054906101000a900460ff1615151515815260200160068201805461268790613b55565b80601f01602080910402602001604051908101604052809291908181526020018280546126b390613b55565b80156126fe5780601f106126d5576101008083540402835291602001916126fe565b820191905f5260205f20905b8154815290600101906020018083116126e157829003601f168201915b5050505050815260200160078201805461271790613b55565b80601f016020809104026020016040519081016040528092919081815260200182805461274390613b55565b801561278e5780601f106127655761010080835404028352916020019161278e565b820191905f5260205f20905b81548152906001019060200180831161277157829003601f168201915b505050505081525050905080602001518160400151826060015183608001518460a001518560c00151866101000151975097509750975097509750975050919395979092949650565b6060805f806003856040516127ec9190613bbf565b908152602001604051809103902060040160149054906101000a900460ff1661284a576040517f08c379a00000000000000000000000000000000000000000000000000000000081526004016128419061451e565b60405180910390fd5b5f60038660405161285b9190613bbf565b90815260200160405180910390206040518060c00160405290815f8201805461288390613b55565b80601f01602080910402602001604051908101604052809291908181526020018280546128af90613b55565b80156128fa5780601f106128d1576101008083540402835291602001916128fa565b820191905f5260205f20905b8154815290600101906020018083116128dd57829003601f168201915b5050505050815260200160018201805461291390613b55565b80601f016020809104026020016040519081016040528092919081815260200182805461293f90613b55565b801561298a5780601f106129615761010080835404028352916020019161298a565b820191905f5260205f20905b81548152906001019060200180831161296d57829003601f168201915b505050505081526020016002820180546129a390613b55565b80601f01602080910402602001604051908101604052809291908181526020018280546129cf90613b55565b8015612a1a5780601f106129f157610100808354040283529160200191612a1a565b820191905f5260205f20905b8154815290600101906020018083116129fd57829003601f168201915b5050505050815260200160038201548152602001600482015f9054906101000a900473ffffffffffffffffffffffffffffffffffffffff1673ffffffffffffffffffffffffffffffffffffffff1673ffffffffffffffffffffffffffffffffffffffff1681526020016004820160149054906101000a900460ff161515151581525050905080602001518160400151826060015183608001519450945094509450509193509193565b60606008805480602002602001604051908101604052809291908181526020015f905b82821015612b8e578382905f5260205f20018054612b0390613b55565b80601f0160208091040260200160405190810160405280929190818152602001828054612b2f90613b55565b8015612b7a5780601f10612b5157610100808354040283529160200191612b7a565b820191905f5260205f20905b815481529060010190602001808311612b5d57829003601f168201915b505050505081526020019060010190612ae6565b50505050905090565b6060600282604051612ba99190613bbf565b908152602001604051809103902060050160159054906101000a900460ff16612c07576040517f08c379a0000000000000000000000000000000000000000000000000000000008152600401612bfe90614105565b60405180910390fd5b5f805b600780549050811015612ca057600584604051612c279190613bbf565b908152602001604051809103902060078281548110612c4957612c4861430f565b5b905f5260205f2001604051612c5e91906143bc565b90815260200160405180910390205f9054906101000a900460ff1615612c8d578180612c89906143ff565b9250505b8080612c98906143ff565b915050612c0a565b505f8167ffffffffffffffff811115612cbc57612cbb613311565b5b604051908082528060200260200182016040528015612cef57816020015b6060815260200190600190039081612cda5790505b5090505f805b600780549050811015612e4c57600586604051612d129190613bbf565b908152602001604051809103902060078281548110612d3457612d3361430f565b5b905f5260205f2001604051612d4991906143bc565b90815260200160405180910390205f9054906101000a900460ff1615612e395760078181548110612d7d57612d7c61430f565b5b905f5260205f20018054612d9090613b55565b80601f0160208091040260200160405190810160405280929190818152602001828054612dbc90613b55565b8015612e075780601f10612dde57610100808354040283529160200191612e07565b820191905f5260205f20905b815481529060010190602001808311612dea57829003601f168201915b5050505050838381518110612e1f57612e1e61430f565b5b60200260200101819052508180612e35906143ff565b9250505b8080612e44906143ff565b915050612cf5565b50819350505050919050565b60605f5b600880549050811015612ff6575f60088281548110612e7e57612e7d61430f565b5b905f5260205f20018054612e9190613b55565b80601f0160208091040260200160405190810160405280929190818152602001828054612ebd90613b55565b8015612f085780601f10612edf57610100808354040283529160200191612f08565b820191905f5260205f20905b815481529060010190602001808311612eeb57829003601f168201915b505050505090505f600482604051612f209190613bbf565b90815260200160405180910390208054612f3990613b55565b80601f0160208091040260200160405190810160405280929190818152602001828054612f6590613b55565b8015612fb05780601f10612f8757610100808354040283529160200191612fb0565b820191905f5260205f20905b815481529060010190602001808311612f9357829003601f168201915b505050505090505f81511115612fe1578480519060200120828051906020012003612fe057809350505050613009565b5b50508080612fee906143ff565b915050612e5c565b5060405180602001604052805f81525090505b919050565b60605f8290505f815167ffffffffffffffff8111156130305761302f613311565b5b6040519080825280601f01601f1916602001820160405280156130625781602001600182028036833780820191505090505b5090505f5b82518110156131b65760418382815181106130855761308461430f565b5b602001015160f81c60f81b60f81c60ff16101580156130c85750605a8382815181106130b4576130b361430f565b5b602001015160f81c60f81b60f81c60ff1611155b156131435760208382815181106130e2576130e161430f565b5b602001015160f81c60f81b60f81c6130fa9190614548565b60f81b8282815181106131105761310f61430f565b5b60200101907effffffffffffffffffffffffffffffffffffffffffffffffffffffffffffff191690815f1a9053506131a3565b8281815181106131565761315561430f565b5b602001015160f81c60f81b8282815181106131745761317361430f565b5b60200101907effffffffffffffffffffffffffffffffffffffffffffffffffffffffffffff191690815f1a9053505b80806131ae906143ff565b915050613067565b508092505050919050565b5f808390505f835114806131d6575082518151105b156131e4575f9150506132e2565b5f5b835182516131f4919061457c565b81116132dc575f600190505f5b85518110156132b55785818151811061321d5761321c61430f565b5b602001015160f81c60f81b7effffffffffffffffffffffffffffffffffffffffffffffffffffffffffffff191684828561325791906145af565b815181106132685761326761430f565b5b602001015160f81c60f81b7effffffffffffffffffffffffffffffffffffffffffffffffffffffffffffff1916146132a2575f91506132b5565b80806132ad906143ff565b915050613201565b5080156132c857600193505050506132e2565b5080806132d4906143ff565b9150506131e6565b505f9150505b92915050565b5f604051905090565b5f80fd5b5f80fd5b5f80fd5b5f80fd5b5f601f19601f8301169050919050565b7f4e487b71000000000000000000000000000000000000000000000000000000005f52604160045260245ffd5b61334782613301565b810181811067ffffffffffffffff8211171561336657613365613311565b5b80604052505050565b5f6133786132e8565b9050613384828261333e565b919050565b5f67ffffffffffffffff8211156133a3576133a2613311565b5b6133ac82613301565b9050602081019050919050565b828183375f83830152505050565b5f6133d96133d484613389565b61336f565b9050828152602081018484840111156133f5576133f46132fd565b5b6134008482856133b9565b509392505050565b5f82601f83011261341c5761341b6132f9565b5b813561342c8482602086016133c7565b91505092915050565b5f6020828403121561344a576134496132f1565b5b5f82013567ffffffffffffffff811115613467576134666132f5565b5b61347384828501613408565b91505092915050565b5f81519050919050565b5f82825260208201905092915050565b5f5b838110156134b3578082015181840152602081019050613498565b5f8484015250505050565b5f6134c88261347c565b6134d28185613486565b93506134e2818560208601613496565b6134eb81613301565b840191505092915050565b5f6020820190508181035f83015261350e81846134be565b905092915050565b5f81519050919050565b5f82825260208201905092915050565b5f819050602082019050919050565b5f82825260208201905092915050565b5f6135598261347c565b613563818561353f565b9350613573818560208601613496565b61357c81613301565b840191505092915050565b5f613592838361354f565b905092915050565b5f602082019050919050565b5f6135b082613516565b6135ba8185613520565b9350836020820285016135cc85613530565b805f5b8581101561360757848403895281516135e88582613587565b94506135f38361359a565b925060208a019950506001810190506135cf565b50829750879550505050505092915050565b5f6020820190508181035f83015261363181846135a6565b905092915050565b5f73ffffffffffffffffffffffffffffffffffffffff82169050919050565b5f61366282613639565b9050919050565b61367281613658565b82525050565b5f819050919050565b61368a81613678565b82525050565b5f8115159050919050565b6136a481613690565b82525050565b5f60a0820190508181035f8301526136c281886134be565b905081810360208301526136d681876134be565b90506136e56040830186613669565b6136f26060830185613681565b6136ff608083018461369b565b9695505050505050565b5f806040838503121561371f5761371e6132f1565b5b5f83013567ffffffffffffffff81111561373c5761373b6132f5565b5b61374885828601613408565b925050602083013567ffffffffffffffff811115613769576137686132f5565b5b61377585828601613408565b9150509250929050565b61378881613678565b8114613792575f80fd5b50565b5f813590506137a38161377f565b92915050565b5f805f805f8060c087890312156137c3576137c26132f1565b5b5f87013567ffffffffffffffff8111156137e0576137df6132f5565b5b6137ec89828a01613408565b965050602087013567ffffffffffffffff81111561380d5761380c6132f5565b5b61381989828a01613408565b955050604087013567ffffffffffffffff81111561383a576138396132f5565b5b61384689828a01613408565b945050606061385789828a01613795565b935050608061386889828a01613795565b92505060a087013567ffffffffffffffff811115613889576138886132f5565b5b61389589828a01613408565b9150509295509295509295565b6138ab81613690565b81146138b5575f80fd5b50565b5f813590506138c6816138a2565b92915050565b5f805f80608085870312156138e4576138e36132f1565b5b5f85013567ffffffffffffffff811115613901576139006132f5565b5b61390d87828801613408565b945050602085013567ffffffffffffffff81111561392e5761392d6132f5565b5b61393a87828801613408565b935050604085013567ffffffffffffffff81111561395b5761395a6132f5565b5b61396787828801613408565b9250506060613978878288016138b8565b91505092959194509250565b5f6020820190506139975f83018461369b565b92915050565b5f805f80608085870312156139b5576139b46132f1565b5b5f85013567ffffffffffffffff8111156139d2576139d16132f5565b5b6139de87828801613408565b945050602085013567ffffffffffffffff8111156139ff576139fe6132f5565b5b613a0b87828801613408565b935050604085013567ffffffffffffffff811115613a2c57613a2b6132f5565b5b613a3887828801613408565b9250506060613a4987828801613795565b91505092959194509250565b5f60e0820190508181035f830152613a6d818a6134be565b90508181036020830152613a8181896134be565b9050613a906040830188613681565b613a9d6060830187613681565b613aaa6080830186613669565b613ab760a083018561369b565b81810360c0830152613ac981846134be565b905098975050505050505050565b5f6080820190508181035f830152613aef81876134be565b90508181036020830152613b0381866134be565b9050613b126040830185613681565b613b1f6060830184613669565b95945050505050565b7f4e487b71000000000000000000000000000000000000000000000000000000005f52602260045260245ffd5b5f6002820490506001821680613b6c57607f821691505b602082108103613b7f57613b7e613b28565b5b50919050565b5f81905092915050565b5f613b998261347c565b613ba38185613b85565b9350613bb3818560208601613496565b80840191505092915050565b5f613bca8284613b8f565b915081905092915050565b7f436f6e74657374616e7420646f6573206e6f74206578697374000000000000005f82015250565b5f613c09601983613486565b9150613c1482613bd5565b602082019050919050565b5f6020820190508181035f830152613c3681613bfd565b9050919050565b7f436f6e746573742077697468207468697320494420616c7265616479206578695f8201527f7374730000000000000000000000000000000000000000000000000000000000602082015250565b5f613c97602383613486565b9150613ca282613c3d565b604082019050919050565b5f6020820190508181035f830152613cc481613c8b565b9050919050565b5f819050815f5260205f209050919050565b5f6020601f8301049050919050565b5f82821b905092915050565b5f60088302613d277fffffffffffffffffffffffffffffffffffffffffffffffffffffffffffffffff82613cec565b613d318683613cec565b95508019841693508086168417925050509392505050565b5f819050919050565b5f613d6c613d67613d6284613678565b613d49565b613678565b9050919050565b5f819050919050565b613d8583613d52565b613d99613d9182613d73565b848454613cf8565b825550505050565b5f90565b613dad613da1565b613db8818484613d7c565b505050565b5b81811015613ddb57613dd05f82613da5565b600181019050613dbe565b5050565b601f821115613e2057613df181613ccb565b613dfa84613cdd565b81016020851015613e09578190505b613e1d613e1585613cdd565b830182613dbd565b50505b505050565b5f82821c905092915050565b5f613e405f1984600802613e25565b1980831691505092915050565b5f613e588383613e31565b9150826002028217905092915050565b613e718261347c565b67ffffffffffffffff811115613e8a57613e89613311565b5b613e948254613b55565b613e9f828285613ddf565b5f60209050601f831160018114613ed0575f8415613ebe578287015190505b613ec88582613e4d565b865550613f2f565b601f198416613ede86613ccb565b5f5b82811015613f0557848901518255600182019150602085019450602081019050613ee0565b86831015613f225784890151613f1e601f891682613e31565b8355505b6001600288020188555050505b505050505050565b7f456e642064617465206d757374206265206166746572207374617274206461745f8201527f6500000000000000000000000000000000000000000000000000000000000000602082015250565b5f613f91602183613486565b9150613f9c82613f37565b604082019050919050565b5f6020820190508181035f830152613fbe81613f85565b9050919050565b7f436f6e74657374616e742077697468207468697320494420616c7265616479205f8201527f6578697374730000000000000000000000000000000000000000000000000000602082015250565b5f61401f602683613486565b915061402a82613fc5565b604082019050919050565b5f6020820190508181035f83015261404c81614013565b9050919050565b7f436f6e74656e7420646f6573206e6f74206578697374000000000000000000005f82015250565b5f614087601683613486565b915061409282614053565b602082019050919050565b5f6020820190508181035f8301526140b48161407b565b9050919050565b7f436f6e7465737420646f6573206e6f74206578697374000000000000000000005f82015250565b5f6140ef601683613486565b91506140fa826140bb565b602082019050919050565b5f6020820190508181035f83015261411c816140e3565b9050919050565b7f436f6e74657374206973206e6f742061637469766500000000000000000000005f82015250565b5f614157601583613486565b915061416282614123565b602082019050919050565b5f6020820190508181035f8301526141848161414b565b9050919050565b7f436f6e7465737420726567697374726174696f6e20697320636c6f73656400005f82015250565b5f6141bf601e83613486565b91506141ca8261418b565b602082019050919050565b5f6020820190508181035f8301526141ec816141b3565b9050919050565b7f436f6e74657374616e7420616c7265616479207265676973746572656420666f5f8201527f72207468697320636f6e74657374000000000000000000000000000000000000602082015250565b5f61424d602e83613486565b9150614258826141f3565b604082019050919050565b5f6020820190508181035f83015261427a81614241565b9050919050565b7f436f6e74656e742077697468207468697320494420616c7265616479206578695f8201527f7374730000000000000000000000000000000000000000000000000000000000602082015250565b5f6142db602383613486565b91506142e682614281565b604082019050919050565b5f6020820190508181035f830152614308816142cf565b9050919050565b7f4e487b71000000000000000000000000000000000000000000000000000000005f52603260045260245ffd5b5f815461434881613b55565b6143528186613b85565b9450600182165f811461436c5760018114614381576143b3565b60ff19831686528115158202860193506143b3565b61438a85613ccb565b5f5b838110156143ab5781548189015260018201915060208101905061438c565b838801955050505b50505092915050565b5f6143c7828461433c565b915081905092915050565b7f4e487b71000000000000000000000000000000000000000000000000000000005f52601160045260245ffd5b5f61440982613678565b91507fffffffffffffffffffffffffffffffffffffffffffffffffffffffffffffffff820361443b5761443a6143d2565b5b600182019050919050565b7f53706f6e736f722077697468207468697320494420616c7265616479206578695f8201527f7374730000000000000000000000000000000000000000000000000000000000602082015250565b5f6144a0602383613486565b91506144ab82614446565b604082019050919050565b5f6020820190508181035f8301526144cd81614494565b9050919050565b7f53706f6e736f7220646f6573206e6f74206578697374000000000000000000005f82015250565b5f614508601683613486565b9150614513826144d4565b602082019050919050565b5f6020820190508181035f830152614535816144fc565b9050919050565b5f60ff82169050919050565b5f6145528261453c565b915061455d8361453c565b9250828201905060ff811115614576576145756143d2565b5b92915050565b5f61458682613678565b915061459183613678565b92508282039050818111156145a9576145a86143d2565b5b92915050565b5f6145b982613678565b91506145c483613678565b92508282019050808211156145dc576145db6143d2565b5b9291505056fea26469706673582212200f7bb3a5fd91b2cce8fda9e304d7d8955939cb021e448db65cc2047b77df5b6664736f6c63430008150033",
  "immutableReferences": {},
  "source": "// SPDX-License-Identifier: MIT\r\npragma solidity ^0.8.0;\r\n\r\ncontract ContentStorage {\r\n    // nh ngha struct cho th sinh\r\n    struct Contestant {\r\n        string id;\r\n        string name;\r\n        string details;\r\n        address creator;\r\n        uint256 timestamp;\r\n        bool verified;\r\n        bool exists;\r\n    }\r\n    \r\n    // nh ngha struct cho cuc thi\r\n    struct Contest {\r\n        string id;\r\n        string name;\r\n        string description;\r\n        uint256 startDate;\r\n        uint256 endDate;\r\n        address organizer;\r\n        bool active;\r\n        bool exists;\r\n        string imageURL;\r\n        string txHash;  // Thm trng txHash\r\n    }\r\n    \r\n    // nh ngha struct cho nh ti tr\r\n    struct Sponsor {\r\n        string id;\r\n        string name;\r\n        string contactInfo;\r\n        uint256 sponsorshipAmount;\r\n        address walletAddress;\r\n        bool exists;\r\n    }\r\n    \r\n    // nh ngha struct cho ni dung wiki thng thng\r\n    struct Content {\r\n        string title;\r\n        string content;\r\n        address creator;\r\n        uint256 timestamp;\r\n        bool verified;\r\n        bool exists;\r\n    }\r\n    \r\n    // Mapping t ID n cc loi d liu\r\n    mapping(string => Content) private contents;\r\n    mapping(string => Contestant) private contestants;\r\n    mapping(string => Contest) private contests;\r\n    mapping(string => Sponsor) private sponsors;\r\n    \r\n    // ========== LU CONTEST DNG JSON (D C TRN EXPLORER) ==========\r\n    event ContestCreatedJson(string jsonData);\r\n    mapping(string => string) public contestJsons;\r\n\r\n    // Mapping  theo di th sinh ng k tham gia cuc thi\r\n    mapping(string => mapping(string => bool)) private contestantRegistrations; // contestId => (contestantId => registered)\r\n    \r\n    // Mng lu tt c ID  c th ly danh sch\r\n    string[] private contentIds;\r\n    string[] private contestantIds;\r\n    string[] private contestIds;\r\n    string[] private sponsorIds;\r\n    \r\n    // Events\r\n    event ContentAdded(string indexed id, string title);\r\n    event ContestantAdded(string indexed id, string name);\r\n    event ContestCreated(string indexed id, string name);\r\n    event SponsorAdded(string indexed id, string name);\r\n    event ContestantRegistered(string indexed contestId, string indexed contestantId);\r\n    \r\n    constructor() {}\r\n    \r\n    // Lu ni dung mi\r\n    function storeContent(string memory id, string memory title, string memory contentText, bool verified) public {\r\n        // Kim tra xem ID  tn ti cha\r\n        require(!contents[id].exists, \"Content with this ID already exists\");\r\n        \r\n        // Lu ni dung mi\r\n        contents[id] = Content({\r\n            title: title,\r\n            content: contentText,\r\n            creator: msg.sender,\r\n            timestamp: block.timestamp,\r\n            verified: verified,\r\n            exists: true\r\n        });\r\n        \r\n        // Thm ID vo danh sch\r\n        contentIds.push(id);\r\n        \r\n        // Pht event\r\n        emit ContentAdded(id, title);\r\n    }\r\n    \r\n    // Ly ni dung theo ID\r\n    function getContent(string memory id) public view returns (\r\n        string memory title,\r\n        string memory content,\r\n        address creator,\r\n        uint256 timestamp,\r\n        bool verified\r\n    ) {\r\n        // Kim tra xem ni dung c tn ti khng\r\n        require(contents[id].exists, \"Content does not exist\");\r\n        \r\n        Content memory c = contents[id];\r\n        return (c.title, c.content, c.creator, c.timestamp, c.verified);\r\n    }\r\n    \r\n    // Ly danh sch tt c ID\r\n    function getAllContentIds() public view returns (string[] memory) {\r\n        return contentIds;\r\n    }\r\n    \r\n    // QUN L TH SINH\r\n    \r\n    // Thm th sinh mi\r\n    function addContestant(\r\n        string memory id, \r\n        string memory name, \r\n        string memory details, \r\n        bool verified\r\n    ) public {\r\n        require(!contestants[id].exists, \"Contestant with this ID already exists\");\r\n        \r\n        contestants[id] = Contestant({\r\n            id: id,\r\n            name: name,\r\n            details: details,\r\n            creator: msg.sender,\r\n            timestamp: block.timestamp,\r\n            verified: verified,\r\n            exists: true\r\n        });\r\n        \r\n        contestantIds.push(id);\r\n        emit ContestantAdded(id, name);\r\n    }\r\n    \r\n    // Ly thng tin th sinh theo ID\r\n    function getContestant(string memory id) public view returns (\r\n        string memory name,\r\n        string memory details,\r\n        address creator,\r\n        uint256 timestamp,\r\n        bool verified\r\n    ) {\r\n        require(contestants[id].exists, \"Contestant does not exist\");\r\n        \r\n        Contestant memory c = contestants[id];\r\n        return (c.name, c.details, c.creator, c.timestamp, c.verified);\r\n    }\r\n    \r\n    // Ly danh sch tt c ID th sinh\r\n    function getAllContestantIds() public view returns (string[] memory) {\r\n        return contestantIds;\r\n    }\r\n    \r\n    // QUN L CUC THI\r\n    \r\n    // Thm cuc thi mi\r\n    function createContest(\r\n        string memory id,\r\n        string memory name,\r\n        string memory description,\r\n        uint256 startDate,\r\n        uint256 endDate,\r\n        string memory imageURL\r\n    ) public {\r\n        require(!contests[id].exists, \"Contest with this ID already exists\");\r\n        require(endDate > startDate, \"End date must be after start date\");\r\n        \r\n        contests[id] = Contest({\r\n            id: id,\r\n            name: name,\r\n            description: description,\r\n            startDate: startDate,\r\n            endDate: endDate,\r\n            organizer: msg.sender,\r\n            active: true,\r\n            exists: true,\r\n            imageURL: imageURL,\r\n            txHash: \"\"  // Initialize with empty string\r\n        });\r\n        \r\n        contestIds.push(id);\r\n        emit ContestCreated(id, name);\r\n    }\r\n    \r\n    // ========== LU CONTEST DNG JSON (D C TRN EXPLORER) ==========\r\n    function createContestJson(string memory id, string memory jsonData) public {\r\n        require(bytes(contestJsons[id]).length == 0, \"Contest with this ID already exists\");\r\n        contestJsons[id] = jsonData;\r\n        contestIds.push(id);\r\n        emit ContestCreatedJson(jsonData);\r\n    }\r\n    \r\n    // Ly thng tin cuc thi theo ID\r\n    function getContest(string memory id) public view returns (\r\n        string memory name,\r\n        string memory description,\r\n        uint256 startDate,\r\n        uint256 endDate,\r\n        address organizer,\r\n        bool active,\r\n        string memory imageURL\r\n    ) {\r\n        require(contests[id].exists, \"Contest does not exist\");\r\n        \r\n        Contest memory c = contests[id];\r\n        return (c.name, c.description, c.startDate, c.endDate, c.organizer, c.active, c.imageURL);\r\n    }\r\n    \r\n    // Ly danh sch tt c ID cuc thi\r\n    function getAllContestIds() public view returns (string[] memory) {\r\n        return contestIds;\r\n    }\r\n    \r\n    // QUN L NH TI TR\r\n    \r\n    // Thm nh ti tr mi\r\n    function addSponsor(\r\n        string memory id,\r\n        string memory name,\r\n        string memory contactInfo,\r\n        uint256 sponsorshipAmount\r\n    ) public {\r\n        require(!sponsors[id].exists, \"Sponsor with this ID already exists\");\r\n        \r\n        sponsors[id] = Sponsor({\r\n            id: id,\r\n            name: name,\r\n            contactInfo: contactInfo,\r\n            sponsorshipAmount: sponsorshipAmount,\r\n            walletAddress: msg.sender,\r\n            exists: true\r\n        });\r\n        \r\n        sponsorIds.push(id);\r\n        emit SponsorAdded(id, name);\r\n    }\r\n    \r\n    // Ly thng tin nh ti tr theo ID\r\n    function getSponsor(string memory id) public view returns (\r\n        string memory name,\r\n        string memory contactInfo,\r\n        uint256 sponsorshipAmount,\r\n        address walletAddress\r\n    ) {\r\n        require(sponsors[id].exists, \"Sponsor does not exist\");\r\n        \r\n        Sponsor memory s = sponsors[id];\r\n        return (s.name, s.contactInfo, s.sponsorshipAmount, s.walletAddress);\r\n    }\r\n    \r\n    // Ly danh sch tt c ID nh ti tr\r\n    function getAllSponsorIds() public view returns (string[] memory) {\r\n        return sponsorIds;\r\n    }\r\n    \r\n    // QUN L NG K TH SINH - CUC THI\r\n    \r\n    // ng k th sinh vo cuc thi\r\n    function registerContestant(string memory contestId, string memory contestantId) public {\r\n        require(contests[contestId].exists, \"Contest does not exist\");\r\n        require(contestants[contestantId].exists, \"Contestant does not exist\");\r\n        require(contests[contestId].active, \"Contest is not active\");\r\n        require(block.timestamp < contests[contestId].endDate, \"Contest registration is closed\");\r\n        require(!contestantRegistrations[contestId][contestantId], \"Contestant already registered for this contest\");\r\n        \r\n        contestantRegistrations[contestId][contestantId] = true;\r\n        emit ContestantRegistered(contestId, contestantId);\r\n    }\r\n    \r\n    // Kim tra th sinh  ng k cuc thi hay cha\r\n    function isContestantRegistered(string memory contestId, string memory contestantId) public view returns (bool) {\r\n        return contestantRegistrations[contestId][contestantId];\r\n    }\r\n    \r\n    // Ly danh sch th sinh  ng k mt cuc thi\r\n    function getContestantsInContest(string memory contestId) public view returns (string[] memory) {\r\n        require(contests[contestId].exists, \"Contest does not exist\");\r\n        \r\n        // m s th sinh  ng k\r\n        uint count = 0;\r\n        for (uint i = 0; i < contestantIds.length; i++) {\r\n            if (contestantRegistrations[contestId][contestantIds[i]]) {\r\n                count++;\r\n            }\r\n        }\r\n        \r\n        // To mng kt qu\r\n        string[] memory result = new string[](count);\r\n        uint index = 0;\r\n        for (uint i = 0; i < contestantIds.length; i++) {\r\n            if (contestantRegistrations[contestId][contestantIds[i]]) {\r\n                result[index] = contestantIds[i];\r\n                index++;\r\n            }\r\n        }\r\n        \r\n        return result;\r\n    }\r\n    \r\n    // Hm tm kim contest theo t kha (trong tn hoc m t)\r\n    function searchContests(string memory keyword) public view returns (string[] memory) {\r\n        uint count = 0;\r\n        bytes memory keywordBytes = bytes(_toLower(keyword));\r\n\r\n        // m s contest ph hp\r\n        for (uint i = 0; i < contestIds.length; i++) {\r\n            Contest memory c = contests[contestIds[i]];\r\n            if (_contains(_toLower(c.name), keywordBytes) || _contains(_toLower(c.description), keywordBytes)) {\r\n                count++;\r\n            }\r\n        }\r\n\r\n        // To mng kt qu\r\n        string[] memory result = new string[](count);\r\n        uint index = 0;\r\n        for (uint i = 0; i < contestIds.length; i++) {\r\n            Contest memory c = contests[contestIds[i]];\r\n            if (_contains(_toLower(c.name), keywordBytes) || _contains(_toLower(c.description), keywordBytes)) {\r\n                result[index] = contestIds[i];\r\n                index++;\r\n            }\r\n        }\r\n        return result;\r\n    }\r\n\r\n    // Hm kim tra chui con (case-insensitive, ch h tr ASCII)\r\n    function _contains(string memory what, bytes memory where) internal pure returns (bool) {\r\n        bytes memory whatBytes = bytes(what);\r\n        if (where.length == 0 || whatBytes.length < where.length) {\r\n            return false;\r\n        }\r\n        for (uint i = 0; i <= whatBytes.length - where.length; i++) {\r\n            bool found = true;\r\n            for (uint j = 0; j < where.length; j++) {\r\n                if (whatBytes[i + j] != where[j]) {\r\n                    found = false;\r\n                    break;\r\n                }\r\n            }\r\n            if (found) return true;\r\n        }\r\n        return false;\r\n    }\r\n\r\n    // Hm chuyn chui v ch thng (ch h tr ASCII)\r\n    function _toLower(string memory str) internal pure returns (string memory) {\r\n        bytes memory bStr = bytes(str);\r\n        bytes memory bLower = new bytes(bStr.length);\r\n        for (uint i = 0; i < bStr.length; i++) {\r\n            // A-Z: 65-90, a-z: 97-122\r\n            if ((uint8(bStr[i]) >= 65) && (uint8(bStr[i]) <= 90)) {\r\n                bLower[i] = bytes1(uint8(bStr[i]) + 32);\r\n            } else {\r\n                bLower[i] = bStr[i];\r\n            }\r\n        }\r\n        return string(bLower);\r\n    }\r\n\r\n    // Ly contest JSON theo id (duyt ton b mapping)\r\n    function getContestJsonById(string memory id) public view returns (string memory) {\r\n        // Duyt ton b contestIds, ly JSON, parse id, so snh\r\n        for (uint i = 0; i < contestIds.length; i++) {\r\n            string memory contestId = contestIds[i];\r\n            string memory jsonData = contestJsons[contestId];\r\n            // So snh id (nu lu key l id)\r\n            if (bytes(jsonData).length > 0) {\r\n                // n gin: nu contestId == id\r\n                if (keccak256(bytes(contestId)) == keccak256(bytes(id))) {\r\n                    return jsonData;\r\n                }\r\n            }\r\n        }\r\n        return \"\";\r\n    }\r\n}\r\n",
  "sourcePath": "D:\\intern\\test-ui\\backend\\truffle\\contracts\\ContentStorage.sol",
  "compiler": {
    "name": "solc",
    "version": "0.8.21+commit.d9974bed.Emscripten.clang"
  },
  "schemaVersion": "3.4.16",
  "updatedAt": "2025-07-10T03:10:09.745Z",
  "networkType": "ethereum",
  "devdoc": {
    "kind": "dev",
    "methods": {},
    "version": 1
  },
  "userdoc": {
    "kind": "user",
    "methods": {},
    "version": 1
  }
}