{
  "contractName": "ContentStorage",
  "abi": [
    {
      "inputs": [],
      "stateMutability": "nonpayable",
      "type": "constructor"
    },
    {
      "anonymous": false,
      "inputs": [
        {
          "indexed": true,
          "internalType": "string",
          "name": "id",
          "type": "string"
        },
        {
          "indexed": false,
          "internalType": "string",
          "name": "title",
          "type": "string"
        }
      ],
      "name": "ContentAdded",
      "type": "event"
    },
    {
      "anonymous": false,
      "inputs": [
        {
          "indexed": true,
          "internalType": "string",
          "name": "id",
          "type": "string"
        },
        {
          "indexed": false,
          "internalType": "string",
          "name": "name",
          "type": "string"
        }
      ],
      "name": "ContestCreated",
      "type": "event"
    },
    {
      "anonymous": false,
      "inputs": [
        {
          "indexed": true,
          "internalType": "string",
          "name": "id",
          "type": "string"
        },
        {
          "indexed": false,
          "internalType": "string",
          "name": "name",
          "type": "string"
        }
      ],
      "name": "ContestantAdded",
      "type": "event"
    },
    {
      "anonymous": false,
      "inputs": [
        {
          "indexed": true,
          "internalType": "string",
          "name": "contestId",
          "type": "string"
        },
        {
          "indexed": true,
          "internalType": "string",
          "name": "contestantId",
          "type": "string"
        }
      ],
      "name": "ContestantRegistered",
      "type": "event"
    },
    {
      "anonymous": false,
      "inputs": [
        {
          "indexed": true,
          "internalType": "string",
          "name": "id",
          "type": "string"
        },
        {
          "indexed": false,
          "internalType": "string",
          "name": "name",
          "type": "string"
        }
      ],
      "name": "SponsorAdded",
      "type": "event"
    },
    {
      "inputs": [
        {
          "internalType": "string",
          "name": "id",
          "type": "string"
        },
        {
          "internalType": "string",
          "name": "title",
          "type": "string"
        },
        {
          "internalType": "string",
          "name": "contentText",
          "type": "string"
        },
        {
          "internalType": "bool",
          "name": "verified",
          "type": "bool"
        }
      ],
      "name": "storeContent",
      "outputs": [],
      "stateMutability": "nonpayable",
      "type": "function"
    },
    {
      "inputs": [
        {
          "internalType": "string",
          "name": "id",
          "type": "string"
        }
      ],
      "name": "getContent",
      "outputs": [
        {
          "internalType": "string",
          "name": "title",
          "type": "string"
        },
        {
          "internalType": "string",
          "name": "content",
          "type": "string"
        },
        {
          "internalType": "address",
          "name": "creator",
          "type": "address"
        },
        {
          "internalType": "uint256",
          "name": "timestamp",
          "type": "uint256"
        },
        {
          "internalType": "bool",
          "name": "verified",
          "type": "bool"
        }
      ],
      "stateMutability": "view",
      "type": "function",
      "constant": true
    },
    {
      "inputs": [],
      "name": "getAllContentIds",
      "outputs": [
        {
          "internalType": "string[]",
          "name": "",
          "type": "string[]"
        }
      ],
      "stateMutability": "view",
      "type": "function",
      "constant": true
    },
    {
      "inputs": [
        {
          "internalType": "string",
          "name": "id",
          "type": "string"
        },
        {
          "internalType": "string",
          "name": "name",
          "type": "string"
        },
        {
          "internalType": "string",
          "name": "details",
          "type": "string"
        },
        {
          "internalType": "bool",
          "name": "verified",
          "type": "bool"
        }
      ],
      "name": "addContestant",
      "outputs": [],
      "stateMutability": "nonpayable",
      "type": "function"
    },
    {
      "inputs": [
        {
          "internalType": "string",
          "name": "id",
          "type": "string"
        }
      ],
      "name": "getContestant",
      "outputs": [
        {
          "internalType": "string",
          "name": "name",
          "type": "string"
        },
        {
          "internalType": "string",
          "name": "details",
          "type": "string"
        },
        {
          "internalType": "address",
          "name": "creator",
          "type": "address"
        },
        {
          "internalType": "uint256",
          "name": "timestamp",
          "type": "uint256"
        },
        {
          "internalType": "bool",
          "name": "verified",
          "type": "bool"
        }
      ],
      "stateMutability": "view",
      "type": "function",
      "constant": true
    },
    {
      "inputs": [],
      "name": "getAllContestantIds",
      "outputs": [
        {
          "internalType": "string[]",
          "name": "",
          "type": "string[]"
        }
      ],
      "stateMutability": "view",
      "type": "function",
      "constant": true
    },
    {
      "inputs": [
        {
          "internalType": "string",
          "name": "id",
          "type": "string"
        },
        {
          "internalType": "string",
          "name": "name",
          "type": "string"
        },
        {
          "internalType": "string",
          "name": "description",
          "type": "string"
        },
        {
          "internalType": "uint256",
          "name": "startDate",
          "type": "uint256"
        },
        {
          "internalType": "uint256",
          "name": "endDate",
          "type": "uint256"
        }
      ],
      "name": "createContest",
      "outputs": [],
      "stateMutability": "nonpayable",
      "type": "function"
    },
    {
      "inputs": [
        {
          "internalType": "string",
          "name": "id",
          "type": "string"
        }
      ],
      "name": "getContest",
      "outputs": [
        {
          "internalType": "string",
          "name": "name",
          "type": "string"
        },
        {
          "internalType": "string",
          "name": "description",
          "type": "string"
        },
        {
          "internalType": "uint256",
          "name": "startDate",
          "type": "uint256"
        },
        {
          "internalType": "uint256",
          "name": "endDate",
          "type": "uint256"
        },
        {
          "internalType": "address",
          "name": "organizer",
          "type": "address"
        },
        {
          "internalType": "bool",
          "name": "active",
          "type": "bool"
        }
      ],
      "stateMutability": "view",
      "type": "function",
      "constant": true
    },
    {
      "inputs": [],
      "name": "getAllContestIds",
      "outputs": [
        {
          "internalType": "string[]",
          "name": "",
          "type": "string[]"
        }
      ],
      "stateMutability": "view",
      "type": "function",
      "constant": true
    },
    {
      "inputs": [
        {
          "internalType": "string",
          "name": "id",
          "type": "string"
        },
        {
          "internalType": "string",
          "name": "name",
          "type": "string"
        },
        {
          "internalType": "string",
          "name": "contactInfo",
          "type": "string"
        },
        {
          "internalType": "uint256",
          "name": "sponsorshipAmount",
          "type": "uint256"
        }
      ],
      "name": "addSponsor",
      "outputs": [],
      "stateMutability": "nonpayable",
      "type": "function"
    },
    {
      "inputs": [
        {
          "internalType": "string",
          "name": "id",
          "type": "string"
        }
      ],
      "name": "getSponsor",
      "outputs": [
        {
          "internalType": "string",
          "name": "name",
          "type": "string"
        },
        {
          "internalType": "string",
          "name": "contactInfo",
          "type": "string"
        },
        {
          "internalType": "uint256",
          "name": "sponsorshipAmount",
          "type": "uint256"
        },
        {
          "internalType": "address",
          "name": "walletAddress",
          "type": "address"
        }
      ],
      "stateMutability": "view",
      "type": "function",
      "constant": true
    },
    {
      "inputs": [],
      "name": "getAllSponsorIds",
      "outputs": [
        {
          "internalType": "string[]",
          "name": "",
          "type": "string[]"
        }
      ],
      "stateMutability": "view",
      "type": "function",
      "constant": true
    },
    {
      "inputs": [
        {
          "internalType": "string",
          "name": "contestId",
          "type": "string"
        },
        {
          "internalType": "string",
          "name": "contestantId",
          "type": "string"
        }
      ],
      "name": "registerContestant",
      "outputs": [],
      "stateMutability": "nonpayable",
      "type": "function"
    },
    {
      "inputs": [
        {
          "internalType": "string",
          "name": "contestId",
          "type": "string"
        },
        {
          "internalType": "string",
          "name": "contestantId",
          "type": "string"
        }
      ],
      "name": "isContestantRegistered",
      "outputs": [
        {
          "internalType": "bool",
          "name": "",
          "type": "bool"
        }
      ],
      "stateMutability": "view",
      "type": "function",
      "constant": true
    },
    {
      "inputs": [
        {
          "internalType": "string",
          "name": "contestId",
          "type": "string"
        }
      ],
      "name": "getContestantsInContest",
      "outputs": [
        {
          "internalType": "string[]",
          "name": "",
          "type": "string[]"
        }
      ],
      "stateMutability": "view",
      "type": "function",
      "constant": true
    }
  ],
  "bytecode": "0x608060405234801561000f575f80fd5b5061332a8061001d5f395ff3fe608060405234801561000f575f80fd5b50600436106100f3575f3560e01c8063b7ca7d9a11610095578063ced095d611610064578063ced095d614610275578063dd3b3ddf146102aa578063e28f73a3146102dd578063e371696f146102fb576100f3565b8063b7ca7d9a14610201578063be9080001461021d578063c130efd01461023b578063ccb65c8f14610259576100f3565b80638b1e3d58116100d15780638b1e3d58146101655780638c9e1f3c14610181578063adb9a725146101b5578063b20fe968146101d1576100f3565b8063176a8810146100f75780632d63d10d146101155780637d086dfa14610149575b5f80fd5b6100ff61032b565b60405161010c9190612228565b60405180910390f35b61012f600480360381019061012a9190612385565b6103ff565b604051610140959493929190612485565b60405180910390f35b610163600480360381019061015e919061250e565b61070f565b005b61017f600480360381019061017a9190612603565b610997565b005b61019b60048036038101906101969190612385565b610bc9565b6040516101ac959493929190612485565b60405180910390f35b6101cf60048036038101906101ca91906126bb565b610e46565b005b6101eb60048036038101906101e691906126bb565b611127565b6040516101f89190612731565b60405180910390f35b61021b60048036038101906102169190612603565b611177565b005b61022561138b565b6040516102329190612228565b60405180910390f35b61024361145f565b6040516102509190612228565b60405180910390f35b610273600480360381019061026e919061274a565b611533565b005b61028f600480360381019061028a9190612385565b61173e565b6040516102a196959493929190612802565b60405180910390f35b6102c460048036038101906102bf9190612385565b611a62565b6040516102d4949392919061286f565b60405180910390f35b6102e5611d4e565b6040516102f29190612228565b60405180910390f35b61031560048036038101906103109190612385565b611e22565b6040516103229190612228565b60405180910390f35b60606008805480602002602001604051908101604052809291908181526020015f905b828210156103f6578382905f5260205f2001805461036b906128ed565b80601f0160208091040260200160405190810160405280929190818152602001828054610397906128ed565b80156103e25780601f106103b9576101008083540402835291602001916103e2565b820191905f5260205f20905b8154815290600101906020018083116103c557829003601f168201915b50505050508152602001906001019061034e565b50505050905090565b6060805f805f6001866040516104159190612957565b908152602001604051809103902060050160019054906101000a900460ff16610473576040517f08c379a000000000000000000000000000000000000000000000000000000000815260040161046a906129b7565b60405180910390fd5b5f6001876040516104849190612957565b90815260200160405180910390206040518060e00160405290815f820180546104ac906128ed565b80601f01602080910402602001604051908101604052809291908181526020018280546104d8906128ed565b80156105235780601f106104fa57610100808354040283529160200191610523565b820191905f5260205f20905b81548152906001019060200180831161050657829003601f168201915b5050505050815260200160018201805461053c906128ed565b80601f0160208091040260200160405190810160405280929190818152602001828054610568906128ed565b80156105b35780601f1061058a576101008083540402835291602001916105b3565b820191905f5260205f20905b81548152906001019060200180831161059657829003601f168201915b505050505081526020016002820180546105cc906128ed565b80601f01602080910402602001604051908101604052809291908181526020018280546105f8906128ed565b80156106435780601f1061061a57610100808354040283529160200191610643565b820191905f5260205f20905b81548152906001019060200180831161062657829003601f168201915b50505050508152602001600382015f9054906101000a900473ffffffffffffffffffffffffffffffffffffffff1673ffffffffffffffffffffffffffffffffffffffff1673ffffffffffffffffffffffffffffffffffffffff16815260200160048201548152602001600582015f9054906101000a900460ff161515151581526020016005820160019054906101000a900460ff161515151581525050905080602001518160400151826060015183608001518460a00151955095509550955095505091939590929450565b60028560405161071f9190612957565b908152602001604051809103902060050160159054906101000a900460ff161561077e576040517f08c379a000000000000000000000000000000000000000000000000000000000815260040161077590612a45565b60405180910390fd5b8181116107c0576040517f08c379a00000000000000000000000000000000000000000000000000000000081526004016107b790612ad3565b60405180910390fd5b6040518061010001604052808681526020018581526020018481526020018381526020018281526020013373ffffffffffffffffffffffffffffffffffffffff168152602001600115158152602001600115158152506002866040516108269190612957565b90815260200160405180910390205f820151815f0190816108479190612c8e565b50602082015181600101908161085d9190612c8e565b5060408201518160020190816108739190612c8e565b50606082015181600301556080820151816004015560a0820151816005015f6101000a81548173ffffffffffffffffffffffffffffffffffffffff021916908373ffffffffffffffffffffffffffffffffffffffff16021790555060c08201518160050160146101000a81548160ff02191690831515021790555060e08201518160050160156101000a81548160ff021916908315150217905550905050600785908060018154018082558091505060019003905f5260205f20015f9091909190915090816109429190612c8e565b50846040516109519190612957565b60405180910390207f56719311596b0ad53a90cb06e6f5cb3ae4fdb15563147f3c7b67eaf9933a882c856040516109889190612d5d565b60405180910390a25050505050565b6001846040516109a79190612957565b908152602001604051809103902060050160019054906101000a900460ff1615610a06576040517f08c379a00000000000000000000000000000000000000000000000000000000081526004016109fd90612ded565b60405180910390fd5b6040518060e001604052808581526020018481526020018381526020013373ffffffffffffffffffffffffffffffffffffffff168152602001428152602001821515815260200160011515815250600185604051610a649190612957565b90815260200160405180910390205f820151815f019081610a859190612c8e565b506020820151816001019081610a9b9190612c8e565b506040820151816002019081610ab19190612c8e565b506060820151816003015f6101000a81548173ffffffffffffffffffffffffffffffffffffffff021916908373ffffffffffffffffffffffffffffffffffffffff1602179055506080820151816004015560a0820151816005015f6101000a81548160ff02191690831515021790555060c08201518160050160016101000a81548160ff021916908315150217905550905050600684908060018154018082558091505060019003905f5260205f20015f909190919091509081610b759190612c8e565b5083604051610b849190612957565b60405180910390207f4de24c70a78dbc1117cc81ff2a6d8d46c93ddf2730858dd9cb5fa02e66f4c2c584604051610bbb9190612d5d565b60405180910390a250505050565b6060805f805f8086604051610bde9190612957565b908152602001604051809103902060040160019054906101000a900460ff16610c3c576040517f08c379a0000000000000000000000000000000000000000000000000000000008152600401610c3390612e55565b60405180910390fd5b5f8087604051610c4c9190612957565b90815260200160405180910390206040518060c00160405290815f82018054610c74906128ed565b80601f0160208091040260200160405190810160405280929190818152602001828054610ca0906128ed565b8015610ceb5780601f10610cc257610100808354040283529160200191610ceb565b820191905f5260205f20905b815481529060010190602001808311610cce57829003601f168201915b50505050508152602001600182018054610d04906128ed565b80601f0160208091040260200160405190810160405280929190818152602001828054610d30906128ed565b8015610d7b5780601f10610d5257610100808354040283529160200191610d7b565b820191905f5260205f20905b815481529060010190602001808311610d5e57829003601f168201915b50505050508152602001600282015f9054906101000a900473ffffffffffffffffffffffffffffffffffffffff1673ffffffffffffffffffffffffffffffffffffffff1673ffffffffffffffffffffffffffffffffffffffff16815260200160038201548152602001600482015f9054906101000a900460ff161515151581526020016004820160019054906101000a900460ff1615151515815250509050805f01518160200151826040015183606001518460800151955095509550955095505091939590929450565b600282604051610e569190612957565b908152602001604051809103902060050160159054906101000a900460ff16610eb4576040517f08c379a0000000000000000000000000000000000000000000000000000000008152600401610eab90612ebd565b60405180910390fd5b600181604051610ec49190612957565b908152602001604051809103902060050160019054906101000a900460ff16610f22576040517f08c379a0000000000000000000000000000000000000000000000000000000008152600401610f19906129b7565b60405180910390fd5b600282604051610f329190612957565b908152602001604051809103902060050160149054906101000a900460ff16610f90576040517f08c379a0000000000000000000000000000000000000000000000000000000008152600401610f8790612f25565b60405180910390fd5b600282604051610fa09190612957565b9081526020016040518091039020600401544210610ff3576040517f08c379a0000000000000000000000000000000000000000000000000000000008152600401610fea90612f8d565b60405180910390fd5b6004826040516110039190612957565b90815260200160405180910390208160405161101f9190612957565b90815260200160405180910390205f9054906101000a900460ff161561107a576040517f08c379a00000000000000000000000000000000000000000000000000000000081526004016110719061301b565b60405180910390fd5b600160048360405161108c9190612957565b9081526020016040518091039020826040516110a89190612957565b90815260200160405180910390205f6101000a81548160ff021916908315150217905550806040516110da9190612957565b6040518091039020826040516110f09190612957565b60405180910390207ebd9d8cb164ee35fa093e9fa014b764c4a30ec9ca9c97b47d334f32cac346cc60405160405180910390a35050565b5f6004836040516111389190612957565b9081526020016040518091039020826040516111549190612957565b90815260200160405180910390205f9054906101000a900460ff16905092915050565b5f846040516111869190612957565b908152602001604051809103902060040160019054906101000a900460ff16156111e5576040517f08c379a00000000000000000000000000000000000000000000000000000000081526004016111dc906130a9565b60405180910390fd5b6040518060c001604052808481526020018381526020013373ffffffffffffffffffffffffffffffffffffffff1681526020014281526020018215158152602001600115158152505f8560405161123c9190612957565b90815260200160405180910390205f820151815f01908161125d9190612c8e565b5060208201518160010190816112739190612c8e565b506040820151816002015f6101000a81548173ffffffffffffffffffffffffffffffffffffffff021916908373ffffffffffffffffffffffffffffffffffffffff160217905550606082015181600301556080820151816004015f6101000a81548160ff02191690831515021790555060a08201518160040160016101000a81548160ff021916908315150217905550905050600584908060018154018082558091505060019003905f5260205f20015f9091909190915090816113379190612c8e565b50836040516113469190612957565b60405180910390207f1e709591efc3a6a63af9cda3e5eb2d7e286ac8a905465c97c9b7bc481533cd788460405161137d9190612d5d565b60405180910390a250505050565b60606006805480602002602001604051908101604052809291908181526020015f905b82821015611456578382905f5260205f200180546113cb906128ed565b80601f01602080910402602001604051908101604052809291908181526020018280546113f7906128ed565b80156114425780601f1061141957610100808354040283529160200191611442565b820191905f5260205f20905b81548152906001019060200180831161142557829003601f168201915b5050505050815260200190600101906113ae565b50505050905090565b60606005805480602002602001604051908101604052809291908181526020015f905b8282101561152a578382905f5260205f2001805461149f906128ed565b80601f01602080910402602001604051908101604052809291908181526020018280546114cb906128ed565b80156115165780601f106114ed57610100808354040283529160200191611516565b820191905f5260205f20905b8154815290600101906020018083116114f957829003601f168201915b505050505081526020019060010190611482565b50505050905090565b6003846040516115439190612957565b908152602001604051809103902060040160149054906101000a900460ff16156115a2576040517f08c379a000000000000000000000000000000000000000000000000000000000815260040161159990613137565b60405180910390fd5b6040518060c001604052808581526020018481526020018381526020018281526020013373ffffffffffffffffffffffffffffffffffffffff168152602001600115158152506003856040516115f89190612957565b90815260200160405180910390205f820151815f0190816116199190612c8e565b50602082015181600101908161162f9190612c8e565b5060408201518160020190816116459190612c8e565b50606082015181600301556080820151816004015f6101000a81548173ffffffffffffffffffffffffffffffffffffffff021916908373ffffffffffffffffffffffffffffffffffffffff16021790555060a08201518160040160146101000a81548160ff021916908315150217905550905050600884908060018154018082558091505060019003905f5260205f20015f9091909190915090816116ea9190612c8e565b50836040516116f99190612957565b60405180910390207f24d1ac64a9fa567fd2c4a786f367ceb101af08701d6602d2531213fbc1eb9b60846040516117309190612d5d565b60405180910390a250505050565b6060805f805f806002876040516117559190612957565b908152602001604051809103902060050160159054906101000a900460ff166117b3576040517f08c379a00000000000000000000000000000000000000000000000000000000081526004016117aa90612ebd565b60405180910390fd5b5f6002886040516117c49190612957565b9081526020016040518091039020604051806101000160405290815f820180546117ed906128ed565b80601f0160208091040260200160405190810160405280929190818152602001828054611819906128ed565b80156118645780601f1061183b57610100808354040283529160200191611864565b820191905f5260205f20905b81548152906001019060200180831161184757829003601f168201915b5050505050815260200160018201805461187d906128ed565b80601f01602080910402602001604051908101604052809291908181526020018280546118a9906128ed565b80156118f45780601f106118cb576101008083540402835291602001916118f4565b820191905f5260205f20905b8154815290600101906020018083116118d757829003601f168201915b5050505050815260200160028201805461190d906128ed565b80601f0160208091040260200160405190810160405280929190818152602001828054611939906128ed565b80156119845780601f1061195b57610100808354040283529160200191611984565b820191905f5260205f20905b81548152906001019060200180831161196757829003601f168201915b505050505081526020016003820154815260200160048201548152602001600582015f9054906101000a900473ffffffffffffffffffffffffffffffffffffffff1673ffffffffffffffffffffffffffffffffffffffff1673ffffffffffffffffffffffffffffffffffffffff1681526020016005820160149054906101000a900460ff161515151581526020016005820160159054906101000a900460ff161515151581525050905080602001518160400151826060015183608001518460a001518560c001519650965096509650965096505091939550919395565b6060805f80600385604051611a779190612957565b908152602001604051809103902060040160149054906101000a900460ff16611ad5576040517f08c379a0000000000000000000000000000000000000000000000000000000008152600401611acc9061319f565b60405180910390fd5b5f600386604051611ae69190612957565b90815260200160405180910390206040518060c00160405290815f82018054611b0e906128ed565b80601f0160208091040260200160405190810160405280929190818152602001828054611b3a906128ed565b8015611b855780601f10611b5c57610100808354040283529160200191611b85565b820191905f5260205f20905b815481529060010190602001808311611b6857829003601f168201915b50505050508152602001600182018054611b9e906128ed565b80601f0160208091040260200160405190810160405280929190818152602001828054611bca906128ed565b8015611c155780601f10611bec57610100808354040283529160200191611c15565b820191905f5260205f20905b815481529060010190602001808311611bf857829003601f168201915b50505050508152602001600282018054611c2e906128ed565b80601f0160208091040260200160405190810160405280929190818152602001828054611c5a906128ed565b8015611ca55780601f10611c7c57610100808354040283529160200191611ca5565b820191905f5260205f20905b815481529060010190602001808311611c8857829003601f168201915b5050505050815260200160038201548152602001600482015f9054906101000a900473ffffffffffffffffffffffffffffffffffffffff1673ffffffffffffffffffffffffffffffffffffffff1673ffffffffffffffffffffffffffffffffffffffff1681526020016004820160149054906101000a900460ff161515151581525050905080602001518160400151826060015183608001519450945094509450509193509193565b60606007805480602002602001604051908101604052809291908181526020015f905b82821015611e19578382905f5260205f20018054611d8e906128ed565b80601f0160208091040260200160405190810160405280929190818152602001828054611dba906128ed565b8015611e055780601f10611ddc57610100808354040283529160200191611e05565b820191905f5260205f20905b815481529060010190602001808311611de857829003601f168201915b505050505081526020019060010190611d71565b50505050905090565b6060600282604051611e349190612957565b908152602001604051809103902060050160159054906101000a900460ff16611e92576040517f08c379a0000000000000000000000000000000000000000000000000000000008152600401611e8990612ebd565b60405180910390fd5b5f805b600680549050811015611f2b57600484604051611eb29190612957565b908152602001604051809103902060068281548110611ed457611ed36131bd565b5b905f5260205f2001604051611ee9919061326a565b90815260200160405180910390205f9054906101000a900460ff1615611f18578180611f14906132ad565b9250505b8080611f23906132ad565b915050611e95565b505f8167ffffffffffffffff811115611f4757611f46612261565b5b604051908082528060200260200182016040528015611f7a57816020015b6060815260200190600190039081611f655790505b5090505f805b6006805490508110156120d757600486604051611f9d9190612957565b908152602001604051809103902060068281548110611fbf57611fbe6131bd565b5b905f5260205f2001604051611fd4919061326a565b90815260200160405180910390205f9054906101000a900460ff16156120c45760068181548110612008576120076131bd565b5b905f5260205f2001805461201b906128ed565b80601f0160208091040260200160405190810160405280929190818152602001828054612047906128ed565b80156120925780601f1061206957610100808354040283529160200191612092565b820191905f5260205f20905b81548152906001019060200180831161207557829003601f168201915b50505050508383815181106120aa576120a96131bd565b5b602002602001018190525081806120c0906132ad565b9250505b80806120cf906132ad565b915050611f80565b50819350505050919050565b5f81519050919050565b5f82825260208201905092915050565b5f819050602082019050919050565b5f81519050919050565b5f82825260208201905092915050565b5f5b83811015612143578082015181840152602081019050612128565b5f8484015250505050565b5f601f19601f8301169050919050565b5f6121688261210c565b6121728185612116565b9350612182818560208601612126565b61218b8161214e565b840191505092915050565b5f6121a1838361215e565b905092915050565b5f602082019050919050565b5f6121bf826120e3565b6121c981856120ed565b9350836020820285016121db856120fd565b805f5b8581101561221657848403895281516121f78582612196565b9450612202836121a9565b925060208a019950506001810190506121de565b50829750879550505050505092915050565b5f6020820190508181035f83015261224081846121b5565b905092915050565b5f604051905090565b5f80fd5b5f80fd5b5f80fd5b5f80fd5b7f4e487b71000000000000000000000000000000000000000000000000000000005f52604160045260245ffd5b6122978261214e565b810181811067ffffffffffffffff821117156122b6576122b5612261565b5b80604052505050565b5f6122c8612248565b90506122d4828261228e565b919050565b5f67ffffffffffffffff8211156122f3576122f2612261565b5b6122fc8261214e565b9050602081019050919050565b828183375f83830152505050565b5f612329612324846122d9565b6122bf565b9050828152602081018484840111156123455761234461225d565b5b612350848285612309565b509392505050565b5f82601f83011261236c5761236b612259565b5b813561237c848260208601612317565b91505092915050565b5f6020828403121561239a57612399612251565b5b5f82013567ffffffffffffffff8111156123b7576123b6612255565b5b6123c384828501612358565b91505092915050565b5f82825260208201905092915050565b5f6123e68261210c565b6123f081856123cc565b9350612400818560208601612126565b6124098161214e565b840191505092915050565b5f73ffffffffffffffffffffffffffffffffffffffff82169050919050565b5f61243d82612414565b9050919050565b61244d81612433565b82525050565b5f819050919050565b61246581612453565b82525050565b5f8115159050919050565b61247f8161246b565b82525050565b5f60a0820190508181035f83015261249d81886123dc565b905081810360208301526124b181876123dc565b90506124c06040830186612444565b6124cd606083018561245c565b6124da6080830184612476565b9695505050505050565b6124ed81612453565b81146124f7575f80fd5b50565b5f81359050612508816124e4565b92915050565b5f805f805f60a0868803121561252757612526612251565b5b5f86013567ffffffffffffffff81111561254457612543612255565b5b61255088828901612358565b955050602086013567ffffffffffffffff81111561257157612570612255565b5b61257d88828901612358565b945050604086013567ffffffffffffffff81111561259e5761259d612255565b5b6125aa88828901612358565b93505060606125bb888289016124fa565b92505060806125cc888289016124fa565b9150509295509295909350565b6125e28161246b565b81146125ec575f80fd5b50565b5f813590506125fd816125d9565b92915050565b5f805f806080858703121561261b5761261a612251565b5b5f85013567ffffffffffffffff81111561263857612637612255565b5b61264487828801612358565b945050602085013567ffffffffffffffff81111561266557612664612255565b5b61267187828801612358565b935050604085013567ffffffffffffffff81111561269257612691612255565b5b61269e87828801612358565b92505060606126af878288016125ef565b91505092959194509250565b5f80604083850312156126d1576126d0612251565b5b5f83013567ffffffffffffffff8111156126ee576126ed612255565b5b6126fa85828601612358565b925050602083013567ffffffffffffffff81111561271b5761271a612255565b5b61272785828601612358565b9150509250929050565b5f6020820190506127445f830184612476565b92915050565b5f805f806080858703121561276257612761612251565b5b5f85013567ffffffffffffffff81111561277f5761277e612255565b5b61278b87828801612358565b945050602085013567ffffffffffffffff8111156127ac576127ab612255565b5b6127b887828801612358565b935050604085013567ffffffffffffffff8111156127d9576127d8612255565b5b6127e587828801612358565b92505060606127f6878288016124fa565b91505092959194509250565b5f60c0820190508181035f83015261281a81896123dc565b9050818103602083015261282e81886123dc565b905061283d604083018761245c565b61284a606083018661245c565b6128576080830185612444565b61286460a0830184612476565b979650505050505050565b5f6080820190508181035f83015261288781876123dc565b9050818103602083015261289b81866123dc565b90506128aa604083018561245c565b6128b76060830184612444565b95945050505050565b7f4e487b71000000000000000000000000000000000000000000000000000000005f52602260045260245ffd5b5f600282049050600182168061290457607f821691505b602082108103612917576129166128c0565b5b50919050565b5f81905092915050565b5f6129318261210c565b61293b818561291d565b935061294b818560208601612126565b80840191505092915050565b5f6129628284612927565b915081905092915050565b7f436f6e74657374616e7420646f6573206e6f74206578697374000000000000005f82015250565b5f6129a16019836123cc565b91506129ac8261296d565b602082019050919050565b5f6020820190508181035f8301526129ce81612995565b9050919050565b7f436f6e746573742077697468207468697320494420616c7265616479206578695f8201527f7374730000000000000000000000000000000000000000000000000000000000602082015250565b5f612a2f6023836123cc565b9150612a3a826129d5565b604082019050919050565b5f6020820190508181035f830152612a5c81612a23565b9050919050565b7f456e642064617465206d757374206265206166746572207374617274206461745f8201527f6500000000000000000000000000000000000000000000000000000000000000602082015250565b5f612abd6021836123cc565b9150612ac882612a63565b604082019050919050565b5f6020820190508181035f830152612aea81612ab1565b9050919050565b5f819050815f5260205f209050919050565b5f6020601f8301049050919050565b5f82821b905092915050565b5f60088302612b4d7fffffffffffffffffffffffffffffffffffffffffffffffffffffffffffffffff82612b12565b612b578683612b12565b95508019841693508086168417925050509392505050565b5f819050919050565b5f612b92612b8d612b8884612453565b612b6f565b612453565b9050919050565b5f819050919050565b612bab83612b78565b612bbf612bb782612b99565b848454612b1e565b825550505050565b5f90565b612bd3612bc7565b612bde818484612ba2565b505050565b5b81811015612c0157612bf65f82612bcb565b600181019050612be4565b5050565b601f821115612c4657612c1781612af1565b612c2084612b03565b81016020851015612c2f578190505b612c43612c3b85612b03565b830182612be3565b50505b505050565b5f82821c905092915050565b5f612c665f1984600802612c4b565b1980831691505092915050565b5f612c7e8383612c57565b9150826002028217905092915050565b612c978261210c565b67ffffffffffffffff811115612cb057612caf612261565b5b612cba82546128ed565b612cc5828285612c05565b5f60209050601f831160018114612cf6575f8415612ce4578287015190505b612cee8582612c73565b865550612d55565b601f198416612d0486612af1565b5f5b82811015612d2b57848901518255600182019150602085019450602081019050612d06565b86831015612d485784890151612d44601f891682612c57565b8355505b6001600288020188555050505b505050505050565b5f6020820190508181035f830152612d7581846123dc565b905092915050565b7f436f6e74657374616e742077697468207468697320494420616c7265616479205f8201527f6578697374730000000000000000000000000000000000000000000000000000602082015250565b5f612dd76026836123cc565b9150612de282612d7d565b604082019050919050565b5f6020820190508181035f830152612e0481612dcb565b9050919050565b7f436f6e74656e7420646f6573206e6f74206578697374000000000000000000005f82015250565b5f612e3f6016836123cc565b9150612e4a82612e0b565b602082019050919050565b5f6020820190508181035f830152612e6c81612e33565b9050919050565b7f436f6e7465737420646f6573206e6f74206578697374000000000000000000005f82015250565b5f612ea76016836123cc565b9150612eb282612e73565b602082019050919050565b5f6020820190508181035f830152612ed481612e9b565b9050919050565b7f436f6e74657374206973206e6f742061637469766500000000000000000000005f82015250565b5f612f0f6015836123cc565b9150612f1a82612edb565b602082019050919050565b5f6020820190508181035f830152612f3c81612f03565b9050919050565b7f436f6e7465737420726567697374726174696f6e20697320636c6f73656400005f82015250565b5f612f77601e836123cc565b9150612f8282612f43565b602082019050919050565b5f6020820190508181035f830152612fa481612f6b565b9050919050565b7f436f6e74657374616e7420616c7265616479207265676973746572656420666f5f8201527f72207468697320636f6e74657374000000000000000000000000000000000000602082015250565b5f613005602e836123cc565b915061301082612fab565b604082019050919050565b5f6020820190508181035f83015261303281612ff9565b9050919050565b7f436f6e74656e742077697468207468697320494420616c7265616479206578695f8201527f7374730000000000000000000000000000000000000000000000000000000000602082015250565b5f6130936023836123cc565b915061309e82613039565b604082019050919050565b5f6020820190508181035f8301526130c081613087565b9050919050565b7f53706f6e736f722077697468207468697320494420616c7265616479206578695f8201527f7374730000000000000000000000000000000000000000000000000000000000602082015250565b5f6131216023836123cc565b915061312c826130c7565b604082019050919050565b5f6020820190508181035f83015261314e81613115565b9050919050565b7f53706f6e736f7220646f6573206e6f74206578697374000000000000000000005f82015250565b5f6131896016836123cc565b915061319482613155565b602082019050919050565b5f6020820190508181035f8301526131b68161317d565b9050919050565b7f4e487b71000000000000000000000000000000000000000000000000000000005f52603260045260245ffd5b5f81546131f6816128ed565b613200818661291d565b9450600182165f811461321a576001811461322f57613261565b60ff1983168652811515820286019350613261565b61323885612af1565b5f5b838110156132595781548189015260018201915060208101905061323a565b838801955050505b50505092915050565b5f61327582846131ea565b915081905092915050565b7f4e487b71000000000000000000000000000000000000000000000000000000005f52601160045260245ffd5b5f6132b782612453565b91507fffffffffffffffffffffffffffffffffffffffffffffffffffffffffffffffff82036132e9576132e8613280565b5b60018201905091905056fea264697066735822122071f854053d4e6f0c825b5083b7a52ceecc09676e0eb42104366a257f5d209c0564736f6c63430008150033",
  "immutableReferences": {},
  "source": "// SPDX-License-Identifier: MIT\r\npragma solidity ^0.8.0;\r\n\r\ncontract ContentStorage {\r\n    // nh ngha struct cho th sinh\r\n    struct Contestant {\r\n        string id;\r\n        string name;\r\n        string details;\r\n        address creator;\r\n        uint256 timestamp;\r\n        bool verified;\r\n        bool exists;\r\n    }\r\n    \r\n    // nh ngha struct cho cuc thi\r\n    struct Contest {\r\n        string id;\r\n        string name;\r\n        string description;\r\n        uint256 startDate;\r\n        uint256 endDate;\r\n        address organizer;\r\n        bool active;\r\n        bool exists;\r\n    }\r\n    \r\n    // nh ngha struct cho nh ti tr\r\n    struct Sponsor {\r\n        string id;\r\n        string name;\r\n        string contactInfo;\r\n        uint256 sponsorshipAmount;\r\n        address walletAddress;\r\n        bool exists;\r\n    }\r\n    \r\n    // nh ngha struct cho ni dung wiki thng thng\r\n    struct Content {\r\n        string title;\r\n        string content;\r\n        address creator;\r\n        uint256 timestamp;\r\n        bool verified;\r\n        bool exists;\r\n    }\r\n    \r\n    // Mapping t ID n cc loi d liu\r\n    mapping(string => Content) private contents;\r\n    mapping(string => Contestant) private contestants;\r\n    mapping(string => Contest) private contests;\r\n    mapping(string => Sponsor) private sponsors;\r\n    \r\n    // Mapping  theo di th sinh ng k tham gia cuc thi\r\n    mapping(string => mapping(string => bool)) private contestantRegistrations; // contestId => (contestantId => registered)\r\n    \r\n    // Mng lu tt c ID  c th ly danh sch\r\n    string[] private contentIds;\r\n    string[] private contestantIds;\r\n    string[] private contestIds;\r\n    string[] private sponsorIds;\r\n    \r\n    // Events\r\n    event ContentAdded(string indexed id, string title);\r\n    event ContestantAdded(string indexed id, string name);\r\n    event ContestCreated(string indexed id, string name);\r\n    event SponsorAdded(string indexed id, string name);\r\n    event ContestantRegistered(string indexed contestId, string indexed contestantId);\r\n    \r\n    constructor() {}\r\n    \r\n    // Lu ni dung mi\r\n    function storeContent(string memory id, string memory title, string memory contentText, bool verified) public {\r\n        // Kim tra xem ID  tn ti cha\r\n        require(!contents[id].exists, \"Content with this ID already exists\");\r\n        \r\n        // Lu ni dung mi\r\n        contents[id] = Content({\r\n            title: title,\r\n            content: contentText,\r\n            creator: msg.sender,\r\n            timestamp: block.timestamp,\r\n            verified: verified,\r\n            exists: true\r\n        });\r\n        \r\n        // Thm ID vo danh sch\r\n        contentIds.push(id);\r\n        \r\n        // Pht event\r\n        emit ContentAdded(id, title);\r\n    }\r\n    \r\n    // Ly ni dung theo ID\r\n    function getContent(string memory id) public view returns (\r\n        string memory title,\r\n        string memory content,\r\n        address creator,\r\n        uint256 timestamp,\r\n        bool verified\r\n    ) {\r\n        // Kim tra xem ni dung c tn ti khng\r\n        require(contents[id].exists, \"Content does not exist\");\r\n        \r\n        Content memory c = contents[id];\r\n        return (c.title, c.content, c.creator, c.timestamp, c.verified);\r\n    }\r\n    \r\n    // Ly danh sch tt c ID\r\n    function getAllContentIds() public view returns (string[] memory) {\r\n        return contentIds;\r\n    }\r\n    \r\n    // QUN L TH SINH\r\n    \r\n    // Thm th sinh mi\r\n    function addContestant(\r\n        string memory id, \r\n        string memory name, \r\n        string memory details, \r\n        bool verified\r\n    ) public {\r\n        require(!contestants[id].exists, \"Contestant with this ID already exists\");\r\n        \r\n        contestants[id] = Contestant({\r\n            id: id,\r\n            name: name,\r\n            details: details,\r\n            creator: msg.sender,\r\n            timestamp: block.timestamp,\r\n            verified: verified,\r\n            exists: true\r\n        });\r\n        \r\n        contestantIds.push(id);\r\n        emit ContestantAdded(id, name);\r\n    }\r\n    \r\n    // Ly thng tin th sinh theo ID\r\n    function getContestant(string memory id) public view returns (\r\n        string memory name,\r\n        string memory details,\r\n        address creator,\r\n        uint256 timestamp,\r\n        bool verified\r\n    ) {\r\n        require(contestants[id].exists, \"Contestant does not exist\");\r\n        \r\n        Contestant memory c = contestants[id];\r\n        return (c.name, c.details, c.creator, c.timestamp, c.verified);\r\n    }\r\n    \r\n    // Ly danh sch tt c ID th sinh\r\n    function getAllContestantIds() public view returns (string[] memory) {\r\n        return contestantIds;\r\n    }\r\n    \r\n    // QUN L CUC THI\r\n    \r\n    // Thm cuc thi mi\r\n    function createContest(\r\n        string memory id,\r\n        string memory name,\r\n        string memory description,\r\n        uint256 startDate,\r\n        uint256 endDate\r\n    ) public {\r\n        require(!contests[id].exists, \"Contest with this ID already exists\");\r\n        require(endDate > startDate, \"End date must be after start date\");\r\n        \r\n        contests[id] = Contest({\r\n            id: id,\r\n            name: name,\r\n            description: description,\r\n            startDate: startDate,\r\n            endDate: endDate,\r\n            organizer: msg.sender,\r\n            active: true,\r\n            exists: true\r\n        });\r\n        \r\n        contestIds.push(id);\r\n        emit ContestCreated(id, name);\r\n    }\r\n    \r\n    // Ly thng tin cuc thi theo ID\r\n    function getContest(string memory id) public view returns (\r\n        string memory name,\r\n        string memory description,\r\n        uint256 startDate,\r\n        uint256 endDate,\r\n        address organizer,\r\n        bool active\r\n    ) {\r\n        require(contests[id].exists, \"Contest does not exist\");\r\n        \r\n        Contest memory c = contests[id];\r\n        return (c.name, c.description, c.startDate, c.endDate, c.organizer, c.active);\r\n    }\r\n    \r\n    // Ly danh sch tt c ID cuc thi\r\n    function getAllContestIds() public view returns (string[] memory) {\r\n        return contestIds;\r\n    }\r\n    \r\n    // QUN L NH TI TR\r\n    \r\n    // Thm nh ti tr mi\r\n    function addSponsor(\r\n        string memory id,\r\n        string memory name,\r\n        string memory contactInfo,\r\n        uint256 sponsorshipAmount\r\n    ) public {\r\n        require(!sponsors[id].exists, \"Sponsor with this ID already exists\");\r\n        \r\n        sponsors[id] = Sponsor({\r\n            id: id,\r\n            name: name,\r\n            contactInfo: contactInfo,\r\n            sponsorshipAmount: sponsorshipAmount,\r\n            walletAddress: msg.sender,\r\n            exists: true\r\n        });\r\n        \r\n        sponsorIds.push(id);\r\n        emit SponsorAdded(id, name);\r\n    }\r\n    \r\n    // Ly thng tin nh ti tr theo ID\r\n    function getSponsor(string memory id) public view returns (\r\n        string memory name,\r\n        string memory contactInfo,\r\n        uint256 sponsorshipAmount,\r\n        address walletAddress\r\n    ) {\r\n        require(sponsors[id].exists, \"Sponsor does not exist\");\r\n        \r\n        Sponsor memory s = sponsors[id];\r\n        return (s.name, s.contactInfo, s.sponsorshipAmount, s.walletAddress);\r\n    }\r\n    \r\n    // Ly danh sch tt c ID nh ti tr\r\n    function getAllSponsorIds() public view returns (string[] memory) {\r\n        return sponsorIds;\r\n    }\r\n    \r\n    // QUN L NG K TH SINH - CUC THI\r\n    \r\n    // ng k th sinh vo cuc thi\r\n    function registerContestant(string memory contestId, string memory contestantId) public {\r\n        require(contests[contestId].exists, \"Contest does not exist\");\r\n        require(contestants[contestantId].exists, \"Contestant does not exist\");\r\n        require(contests[contestId].active, \"Contest is not active\");\r\n        require(block.timestamp < contests[contestId].endDate, \"Contest registration is closed\");\r\n        require(!contestantRegistrations[contestId][contestantId], \"Contestant already registered for this contest\");\r\n        \r\n        contestantRegistrations[contestId][contestantId] = true;\r\n        emit ContestantRegistered(contestId, contestantId);\r\n    }\r\n    \r\n    // Kim tra th sinh  ng k cuc thi hay cha\r\n    function isContestantRegistered(string memory contestId, string memory contestantId) public view returns (bool) {\r\n        return contestantRegistrations[contestId][contestantId];\r\n    }\r\n    \r\n    // Ly danh sch th sinh  ng k mt cuc thi\r\n    function getContestantsInContest(string memory contestId) public view returns (string[] memory) {\r\n        require(contests[contestId].exists, \"Contest does not exist\");\r\n        \r\n        // m s th sinh  ng k\r\n        uint count = 0;\r\n        for (uint i = 0; i < contestantIds.length; i++) {\r\n            if (contestantRegistrations[contestId][contestantIds[i]]) {\r\n                count++;\r\n            }\r\n        }\r\n        \r\n        // To mng kt qu\r\n        string[] memory result = new string[](count);\r\n        uint index = 0;\r\n        for (uint i = 0; i < contestantIds.length; i++) {\r\n            if (contestantRegistrations[contestId][contestantIds[i]]) {\r\n                result[index] = contestantIds[i];\r\n                index++;\r\n            }\r\n        }\r\n        \r\n        return result;\r\n    }\r\n}\r\n",
  "sourcePath": "D:\\intern\\test-ui\\backend\\truffle\\contracts\\ContentStorage.sol",
  "compiler": {
    "name": "solc",
    "version": "0.8.21+commit.d9974bed.Emscripten.clang"
  },
  "schemaVersion": "3.4.16",
  "updatedAt": "2025-07-05T11:12:19.184Z",
  "networkType": "ethereum",
  "devdoc": {
    "kind": "dev",
    "methods": {},
    "version": 1
  },
  "userdoc": {
    "kind": "user",
    "methods": {},
    "version": 1
  }
}