{
  "contractName": "ContentStorage",
  "abi": [
    {
      "inputs": [],
      "stateMutability": "nonpayable",
      "type": "constructor"
    },
    {
      "anonymous": false,
      "inputs": [
        {
          "indexed": true,
          "internalType": "string",
          "name": "id",
          "type": "string"
        },
        {
          "indexed": false,
          "internalType": "string",
          "name": "title",
          "type": "string"
        }
      ],
      "name": "ContentAdded",
      "type": "event"
    },
    {
      "anonymous": false,
      "inputs": [
        {
          "indexed": true,
          "internalType": "string",
          "name": "id",
          "type": "string"
        },
        {
          "indexed": false,
          "internalType": "string",
          "name": "name",
          "type": "string"
        }
      ],
      "name": "ContestCreated",
      "type": "event"
    },
    {
      "anonymous": false,
      "inputs": [
        {
          "indexed": true,
          "internalType": "string",
          "name": "id",
          "type": "string"
        },
        {
          "indexed": false,
          "internalType": "string",
          "name": "name",
          "type": "string"
        }
      ],
      "name": "ContestantAdded",
      "type": "event"
    },
    {
      "anonymous": false,
      "inputs": [
        {
          "indexed": true,
          "internalType": "string",
          "name": "contestId",
          "type": "string"
        },
        {
          "indexed": true,
          "internalType": "string",
          "name": "contestantId",
          "type": "string"
        }
      ],
      "name": "ContestantRegistered",
      "type": "event"
    },
    {
      "anonymous": false,
      "inputs": [
        {
          "indexed": true,
          "internalType": "string",
          "name": "id",
          "type": "string"
        },
        {
          "indexed": false,
          "internalType": "string",
          "name": "name",
          "type": "string"
        }
      ],
      "name": "SponsorAdded",
      "type": "event"
    },
    {
      "inputs": [
        {
          "internalType": "string",
          "name": "id",
          "type": "string"
        },
        {
          "internalType": "string",
          "name": "title",
          "type": "string"
        },
        {
          "internalType": "string",
          "name": "contentText",
          "type": "string"
        },
        {
          "internalType": "bool",
          "name": "verified",
          "type": "bool"
        }
      ],
      "name": "storeContent",
      "outputs": [],
      "stateMutability": "nonpayable",
      "type": "function"
    },
    {
      "inputs": [
        {
          "internalType": "string",
          "name": "id",
          "type": "string"
        }
      ],
      "name": "getContent",
      "outputs": [
        {
          "internalType": "string",
          "name": "title",
          "type": "string"
        },
        {
          "internalType": "string",
          "name": "content",
          "type": "string"
        },
        {
          "internalType": "address",
          "name": "creator",
          "type": "address"
        },
        {
          "internalType": "uint256",
          "name": "timestamp",
          "type": "uint256"
        },
        {
          "internalType": "bool",
          "name": "verified",
          "type": "bool"
        }
      ],
      "stateMutability": "view",
      "type": "function",
      "constant": true
    },
    {
      "inputs": [],
      "name": "getAllContentIds",
      "outputs": [
        {
          "internalType": "string[]",
          "name": "",
          "type": "string[]"
        }
      ],
      "stateMutability": "view",
      "type": "function",
      "constant": true
    },
    {
      "inputs": [
        {
          "internalType": "string",
          "name": "id",
          "type": "string"
        },
        {
          "internalType": "string",
          "name": "name",
          "type": "string"
        },
        {
          "internalType": "string",
          "name": "details",
          "type": "string"
        },
        {
          "internalType": "bool",
          "name": "verified",
          "type": "bool"
        }
      ],
      "name": "addContestant",
      "outputs": [],
      "stateMutability": "nonpayable",
      "type": "function"
    },
    {
      "inputs": [
        {
          "internalType": "string",
          "name": "id",
          "type": "string"
        }
      ],
      "name": "getContestant",
      "outputs": [
        {
          "internalType": "string",
          "name": "name",
          "type": "string"
        },
        {
          "internalType": "string",
          "name": "details",
          "type": "string"
        },
        {
          "internalType": "address",
          "name": "creator",
          "type": "address"
        },
        {
          "internalType": "uint256",
          "name": "timestamp",
          "type": "uint256"
        },
        {
          "internalType": "bool",
          "name": "verified",
          "type": "bool"
        }
      ],
      "stateMutability": "view",
      "type": "function",
      "constant": true
    },
    {
      "inputs": [],
      "name": "getAllContestantIds",
      "outputs": [
        {
          "internalType": "string[]",
          "name": "",
          "type": "string[]"
        }
      ],
      "stateMutability": "view",
      "type": "function",
      "constant": true
    },
    {
      "inputs": [
        {
          "internalType": "string",
          "name": "id",
          "type": "string"
        },
        {
          "internalType": "string",
          "name": "name",
          "type": "string"
        },
        {
          "internalType": "string",
          "name": "description",
          "type": "string"
        },
        {
          "internalType": "uint256",
          "name": "startDate",
          "type": "uint256"
        },
        {
          "internalType": "uint256",
          "name": "endDate",
          "type": "uint256"
        },
        {
          "internalType": "string",
          "name": "imageURL",
          "type": "string"
        }
      ],
      "name": "createContest",
      "outputs": [],
      "stateMutability": "nonpayable",
      "type": "function"
    },
    {
      "inputs": [
        {
          "internalType": "string",
          "name": "id",
          "type": "string"
        }
      ],
      "name": "getContest",
      "outputs": [
        {
          "internalType": "string",
          "name": "name",
          "type": "string"
        },
        {
          "internalType": "string",
          "name": "description",
          "type": "string"
        },
        {
          "internalType": "uint256",
          "name": "startDate",
          "type": "uint256"
        },
        {
          "internalType": "uint256",
          "name": "endDate",
          "type": "uint256"
        },
        {
          "internalType": "address",
          "name": "organizer",
          "type": "address"
        },
        {
          "internalType": "bool",
          "name": "active",
          "type": "bool"
        },
        {
          "internalType": "string",
          "name": "imageURL",
          "type": "string"
        }
      ],
      "stateMutability": "view",
      "type": "function",
      "constant": true
    },
    {
      "inputs": [],
      "name": "getAllContestIds",
      "outputs": [
        {
          "internalType": "string[]",
          "name": "",
          "type": "string[]"
        }
      ],
      "stateMutability": "view",
      "type": "function",
      "constant": true
    },
    {
      "inputs": [
        {
          "internalType": "string",
          "name": "id",
          "type": "string"
        },
        {
          "internalType": "string",
          "name": "name",
          "type": "string"
        },
        {
          "internalType": "string",
          "name": "contactInfo",
          "type": "string"
        },
        {
          "internalType": "uint256",
          "name": "sponsorshipAmount",
          "type": "uint256"
        }
      ],
      "name": "addSponsor",
      "outputs": [],
      "stateMutability": "nonpayable",
      "type": "function"
    },
    {
      "inputs": [
        {
          "internalType": "string",
          "name": "id",
          "type": "string"
        }
      ],
      "name": "getSponsor",
      "outputs": [
        {
          "internalType": "string",
          "name": "name",
          "type": "string"
        },
        {
          "internalType": "string",
          "name": "contactInfo",
          "type": "string"
        },
        {
          "internalType": "uint256",
          "name": "sponsorshipAmount",
          "type": "uint256"
        },
        {
          "internalType": "address",
          "name": "walletAddress",
          "type": "address"
        }
      ],
      "stateMutability": "view",
      "type": "function",
      "constant": true
    },
    {
      "inputs": [],
      "name": "getAllSponsorIds",
      "outputs": [
        {
          "internalType": "string[]",
          "name": "",
          "type": "string[]"
        }
      ],
      "stateMutability": "view",
      "type": "function",
      "constant": true
    },
    {
      "inputs": [
        {
          "internalType": "string",
          "name": "contestId",
          "type": "string"
        },
        {
          "internalType": "string",
          "name": "contestantId",
          "type": "string"
        }
      ],
      "name": "registerContestant",
      "outputs": [],
      "stateMutability": "nonpayable",
      "type": "function"
    },
    {
      "inputs": [
        {
          "internalType": "string",
          "name": "contestId",
          "type": "string"
        },
        {
          "internalType": "string",
          "name": "contestantId",
          "type": "string"
        }
      ],
      "name": "isContestantRegistered",
      "outputs": [
        {
          "internalType": "bool",
          "name": "",
          "type": "bool"
        }
      ],
      "stateMutability": "view",
      "type": "function",
      "constant": true
    },
    {
      "inputs": [
        {
          "internalType": "string",
          "name": "contestId",
          "type": "string"
        }
      ],
      "name": "getContestantsInContest",
      "outputs": [
        {
          "internalType": "string[]",
          "name": "",
          "type": "string[]"
        }
      ],
      "stateMutability": "view",
      "type": "function",
      "constant": true
    }
  ],
  "bytecode": "0x608060405234801561000f575f80fd5b506134288061001d5f395ff3fe608060405234801561000f575f80fd5b50600436106100f3575f3560e01c8063b7ca7d9a11610095578063ced095d611610064578063ced095d614610275578063dd3b3ddf146102ab578063e28f73a3146102de578063e371696f146102fc576100f3565b8063b7ca7d9a14610201578063be9080001461021d578063c130efd01461023b578063ccb65c8f14610259576100f3565b80638b1e3d58116100d15780638b1e3d58146101655780638c9e1f3c14610181578063adb9a725146101b5578063b20fe968146101d1576100f3565b8063176a8810146100f75780632d63d10d146101155780637c25ebaa14610149575b5f80fd5b6100ff61032c565b60405161010c91906122e3565b60405180910390f35b61012f600480360381019061012a9190612440565b610400565b604051610140959493929190612540565b60405180910390f35b610163600480360381019061015e91906125c9565b610710565b005b61017f600480360381019061017a91906126ec565b6109b6565b005b61019b60048036038101906101969190612440565b610be8565b6040516101ac959493929190612540565b60405180910390f35b6101cf60048036038101906101ca91906127a4565b610e65565b005b6101eb60048036038101906101e691906127a4565b611146565b6040516101f8919061281a565b60405180910390f35b61021b600480360381019061021691906126ec565b611196565b005b6102256113aa565b60405161023291906122e3565b60405180910390f35b61024361147e565b60405161025091906122e3565b60405180910390f35b610273600480360381019061026e9190612833565b611552565b005b61028f600480360381019061028a9190612440565b61175d565b6040516102a297969594939291906128eb565b60405180910390f35b6102c560048036038101906102c09190612440565b611b1d565b6040516102d5949392919061296d565b60405180910390f35b6102e6611e09565b6040516102f391906122e3565b60405180910390f35b61031660048036038101906103119190612440565b611edd565b60405161032391906122e3565b60405180910390f35b60606008805480602002602001604051908101604052809291908181526020015f905b828210156103f7578382905f5260205f2001805461036c906129eb565b80601f0160208091040260200160405190810160405280929190818152602001828054610398906129eb565b80156103e35780601f106103ba576101008083540402835291602001916103e3565b820191905f5260205f20905b8154815290600101906020018083116103c657829003601f168201915b50505050508152602001906001019061034f565b50505050905090565b6060805f805f6001866040516104169190612a55565b908152602001604051809103902060050160019054906101000a900460ff16610474576040517f08c379a000000000000000000000000000000000000000000000000000000000815260040161046b90612ab5565b60405180910390fd5b5f6001876040516104859190612a55565b90815260200160405180910390206040518060e00160405290815f820180546104ad906129eb565b80601f01602080910402602001604051908101604052809291908181526020018280546104d9906129eb565b80156105245780601f106104fb57610100808354040283529160200191610524565b820191905f5260205f20905b81548152906001019060200180831161050757829003601f168201915b5050505050815260200160018201805461053d906129eb565b80601f0160208091040260200160405190810160405280929190818152602001828054610569906129eb565b80156105b45780601f1061058b576101008083540402835291602001916105b4565b820191905f5260205f20905b81548152906001019060200180831161059757829003601f168201915b505050505081526020016002820180546105cd906129eb565b80601f01602080910402602001604051908101604052809291908181526020018280546105f9906129eb565b80156106445780601f1061061b57610100808354040283529160200191610644565b820191905f5260205f20905b81548152906001019060200180831161062757829003601f168201915b50505050508152602001600382015f9054906101000a900473ffffffffffffffffffffffffffffffffffffffff1673ffffffffffffffffffffffffffffffffffffffff1673ffffffffffffffffffffffffffffffffffffffff16815260200160048201548152602001600582015f9054906101000a900460ff161515151581526020016005820160019054906101000a900460ff161515151581525050905080602001518160400151826060015183608001518460a00151955095509550955095505091939590929450565b6002866040516107209190612a55565b908152602001604051809103902060050160159054906101000a900460ff161561077f576040517f08c379a000000000000000000000000000000000000000000000000000000000815260040161077690612b43565b60405180910390fd5b8282116107c1576040517f08c379a00000000000000000000000000000000000000000000000000000000081526004016107b890612bd1565b60405180910390fd5b6040518061012001604052808781526020018681526020018581526020018481526020018381526020013373ffffffffffffffffffffffffffffffffffffffff1681526020016001151581526020016001151581526020018281525060028760405161082d9190612a55565b90815260200160405180910390205f820151815f01908161084e9190612d8c565b5060208201518160010190816108649190612d8c565b50604082015181600201908161087a9190612d8c565b50606082015181600301556080820151816004015560a0820151816005015f6101000a81548173ffffffffffffffffffffffffffffffffffffffff021916908373ffffffffffffffffffffffffffffffffffffffff16021790555060c08201518160050160146101000a81548160ff02191690831515021790555060e08201518160050160156101000a81548160ff02191690831515021790555061010082015181600601908161092b9190612d8c565b50905050600786908060018154018082558091505060019003905f5260205f20015f9091909190915090816109609190612d8c565b508560405161096f9190612a55565b60405180910390207f56719311596b0ad53a90cb06e6f5cb3ae4fdb15563147f3c7b67eaf9933a882c866040516109a69190612e5b565b60405180910390a2505050505050565b6001846040516109c69190612a55565b908152602001604051809103902060050160019054906101000a900460ff1615610a25576040517f08c379a0000000000000000000000000000000000000000000000000000000008152600401610a1c90612eeb565b60405180910390fd5b6040518060e001604052808581526020018481526020018381526020013373ffffffffffffffffffffffffffffffffffffffff168152602001428152602001821515815260200160011515815250600185604051610a839190612a55565b90815260200160405180910390205f820151815f019081610aa49190612d8c565b506020820151816001019081610aba9190612d8c565b506040820151816002019081610ad09190612d8c565b506060820151816003015f6101000a81548173ffffffffffffffffffffffffffffffffffffffff021916908373ffffffffffffffffffffffffffffffffffffffff1602179055506080820151816004015560a0820151816005015f6101000a81548160ff02191690831515021790555060c08201518160050160016101000a81548160ff021916908315150217905550905050600684908060018154018082558091505060019003905f5260205f20015f909190919091509081610b949190612d8c565b5083604051610ba39190612a55565b60405180910390207f4de24c70a78dbc1117cc81ff2a6d8d46c93ddf2730858dd9cb5fa02e66f4c2c584604051610bda9190612e5b565b60405180910390a250505050565b6060805f805f8086604051610bfd9190612a55565b908152602001604051809103902060040160019054906101000a900460ff16610c5b576040517f08c379a0000000000000000000000000000000000000000000000000000000008152600401610c5290612f53565b60405180910390fd5b5f8087604051610c6b9190612a55565b90815260200160405180910390206040518060c00160405290815f82018054610c93906129eb565b80601f0160208091040260200160405190810160405280929190818152602001828054610cbf906129eb565b8015610d0a5780601f10610ce157610100808354040283529160200191610d0a565b820191905f5260205f20905b815481529060010190602001808311610ced57829003601f168201915b50505050508152602001600182018054610d23906129eb565b80601f0160208091040260200160405190810160405280929190818152602001828054610d4f906129eb565b8015610d9a5780601f10610d7157610100808354040283529160200191610d9a565b820191905f5260205f20905b815481529060010190602001808311610d7d57829003601f168201915b50505050508152602001600282015f9054906101000a900473ffffffffffffffffffffffffffffffffffffffff1673ffffffffffffffffffffffffffffffffffffffff1673ffffffffffffffffffffffffffffffffffffffff16815260200160038201548152602001600482015f9054906101000a900460ff161515151581526020016004820160019054906101000a900460ff1615151515815250509050805f01518160200151826040015183606001518460800151955095509550955095505091939590929450565b600282604051610e759190612a55565b908152602001604051809103902060050160159054906101000a900460ff16610ed3576040517f08c379a0000000000000000000000000000000000000000000000000000000008152600401610eca90612fbb565b60405180910390fd5b600181604051610ee39190612a55565b908152602001604051809103902060050160019054906101000a900460ff16610f41576040517f08c379a0000000000000000000000000000000000000000000000000000000008152600401610f3890612ab5565b60405180910390fd5b600282604051610f519190612a55565b908152602001604051809103902060050160149054906101000a900460ff16610faf576040517f08c379a0000000000000000000000000000000000000000000000000000000008152600401610fa690613023565b60405180910390fd5b600282604051610fbf9190612a55565b9081526020016040518091039020600401544210611012576040517f08c379a00000000000000000000000000000000000000000000000000000000081526004016110099061308b565b60405180910390fd5b6004826040516110229190612a55565b90815260200160405180910390208160405161103e9190612a55565b90815260200160405180910390205f9054906101000a900460ff1615611099576040517f08c379a000000000000000000000000000000000000000000000000000000000815260040161109090613119565b60405180910390fd5b60016004836040516110ab9190612a55565b9081526020016040518091039020826040516110c79190612a55565b90815260200160405180910390205f6101000a81548160ff021916908315150217905550806040516110f99190612a55565b60405180910390208260405161110f9190612a55565b60405180910390207ebd9d8cb164ee35fa093e9fa014b764c4a30ec9ca9c97b47d334f32cac346cc60405160405180910390a35050565b5f6004836040516111579190612a55565b9081526020016040518091039020826040516111739190612a55565b90815260200160405180910390205f9054906101000a900460ff16905092915050565b5f846040516111a59190612a55565b908152602001604051809103902060040160019054906101000a900460ff1615611204576040517f08c379a00000000000000000000000000000000000000000000000000000000081526004016111fb906131a7565b60405180910390fd5b6040518060c001604052808481526020018381526020013373ffffffffffffffffffffffffffffffffffffffff1681526020014281526020018215158152602001600115158152505f8560405161125b9190612a55565b90815260200160405180910390205f820151815f01908161127c9190612d8c565b5060208201518160010190816112929190612d8c565b506040820151816002015f6101000a81548173ffffffffffffffffffffffffffffffffffffffff021916908373ffffffffffffffffffffffffffffffffffffffff160217905550606082015181600301556080820151816004015f6101000a81548160ff02191690831515021790555060a08201518160040160016101000a81548160ff021916908315150217905550905050600584908060018154018082558091505060019003905f5260205f20015f9091909190915090816113569190612d8c565b50836040516113659190612a55565b60405180910390207f1e709591efc3a6a63af9cda3e5eb2d7e286ac8a905465c97c9b7bc481533cd788460405161139c9190612e5b565b60405180910390a250505050565b60606006805480602002602001604051908101604052809291908181526020015f905b82821015611475578382905f5260205f200180546113ea906129eb565b80601f0160208091040260200160405190810160405280929190818152602001828054611416906129eb565b80156114615780601f1061143857610100808354040283529160200191611461565b820191905f5260205f20905b81548152906001019060200180831161144457829003601f168201915b5050505050815260200190600101906113cd565b50505050905090565b60606005805480602002602001604051908101604052809291908181526020015f905b82821015611549578382905f5260205f200180546114be906129eb565b80601f01602080910402602001604051908101604052809291908181526020018280546114ea906129eb565b80156115355780601f1061150c57610100808354040283529160200191611535565b820191905f5260205f20905b81548152906001019060200180831161151857829003601f168201915b5050505050815260200190600101906114a1565b50505050905090565b6003846040516115629190612a55565b908152602001604051809103902060040160149054906101000a900460ff16156115c1576040517f08c379a00000000000000000000000000000000000000000000000000000000081526004016115b890613235565b60405180910390fd5b6040518060c001604052808581526020018481526020018381526020018281526020013373ffffffffffffffffffffffffffffffffffffffff168152602001600115158152506003856040516116179190612a55565b90815260200160405180910390205f820151815f0190816116389190612d8c565b50602082015181600101908161164e9190612d8c565b5060408201518160020190816116649190612d8c565b50606082015181600301556080820151816004015f6101000a81548173ffffffffffffffffffffffffffffffffffffffff021916908373ffffffffffffffffffffffffffffffffffffffff16021790555060a08201518160040160146101000a81548160ff021916908315150217905550905050600884908060018154018082558091505060019003905f5260205f20015f9091909190915090816117099190612d8c565b50836040516117189190612a55565b60405180910390207f24d1ac64a9fa567fd2c4a786f367ceb101af08701d6602d2531213fbc1eb9b608460405161174f9190612e5b565b60405180910390a250505050565b6060805f805f8060606002886040516117769190612a55565b908152602001604051809103902060050160159054906101000a900460ff166117d4576040517f08c379a00000000000000000000000000000000000000000000000000000000081526004016117cb90612fbb565b60405180910390fd5b5f6002896040516117e59190612a55565b9081526020016040518091039020604051806101200160405290815f8201805461180e906129eb565b80601f016020809104026020016040519081016040528092919081815260200182805461183a906129eb565b80156118855780601f1061185c57610100808354040283529160200191611885565b820191905f5260205f20905b81548152906001019060200180831161186857829003601f168201915b5050505050815260200160018201805461189e906129eb565b80601f01602080910402602001604051908101604052809291908181526020018280546118ca906129eb565b80156119155780601f106118ec57610100808354040283529160200191611915565b820191905f5260205f20905b8154815290600101906020018083116118f857829003601f168201915b5050505050815260200160028201805461192e906129eb565b80601f016020809104026020016040519081016040528092919081815260200182805461195a906129eb565b80156119a55780601f1061197c576101008083540402835291602001916119a5565b820191905f5260205f20905b81548152906001019060200180831161198857829003601f168201915b505050505081526020016003820154815260200160048201548152602001600582015f9054906101000a900473ffffffffffffffffffffffffffffffffffffffff1673ffffffffffffffffffffffffffffffffffffffff1673ffffffffffffffffffffffffffffffffffffffff1681526020016005820160149054906101000a900460ff161515151581526020016005820160159054906101000a900460ff16151515158152602001600682018054611a5d906129eb565b80601f0160208091040260200160405190810160405280929190818152602001828054611a89906129eb565b8015611ad45780601f10611aab57610100808354040283529160200191611ad4565b820191905f5260205f20905b815481529060010190602001808311611ab757829003601f168201915b505050505081525050905080602001518160400151826060015183608001518460a001518560c00151866101000151975097509750975097509750975050919395979092949650565b6060805f80600385604051611b329190612a55565b908152602001604051809103902060040160149054906101000a900460ff16611b90576040517f08c379a0000000000000000000000000000000000000000000000000000000008152600401611b879061329d565b60405180910390fd5b5f600386604051611ba19190612a55565b90815260200160405180910390206040518060c00160405290815f82018054611bc9906129eb565b80601f0160208091040260200160405190810160405280929190818152602001828054611bf5906129eb565b8015611c405780601f10611c1757610100808354040283529160200191611c40565b820191905f5260205f20905b815481529060010190602001808311611c2357829003601f168201915b50505050508152602001600182018054611c59906129eb565b80601f0160208091040260200160405190810160405280929190818152602001828054611c85906129eb565b8015611cd05780601f10611ca757610100808354040283529160200191611cd0565b820191905f5260205f20905b815481529060010190602001808311611cb357829003601f168201915b50505050508152602001600282018054611ce9906129eb565b80601f0160208091040260200160405190810160405280929190818152602001828054611d15906129eb565b8015611d605780601f10611d3757610100808354040283529160200191611d60565b820191905f5260205f20905b815481529060010190602001808311611d4357829003601f168201915b5050505050815260200160038201548152602001600482015f9054906101000a900473ffffffffffffffffffffffffffffffffffffffff1673ffffffffffffffffffffffffffffffffffffffff1673ffffffffffffffffffffffffffffffffffffffff1681526020016004820160149054906101000a900460ff161515151581525050905080602001518160400151826060015183608001519450945094509450509193509193565b60606007805480602002602001604051908101604052809291908181526020015f905b82821015611ed4578382905f5260205f20018054611e49906129eb565b80601f0160208091040260200160405190810160405280929190818152602001828054611e75906129eb565b8015611ec05780601f10611e9757610100808354040283529160200191611ec0565b820191905f5260205f20905b815481529060010190602001808311611ea357829003601f168201915b505050505081526020019060010190611e2c565b50505050905090565b6060600282604051611eef9190612a55565b908152602001604051809103902060050160159054906101000a900460ff16611f4d576040517f08c379a0000000000000000000000000000000000000000000000000000000008152600401611f4490612fbb565b60405180910390fd5b5f805b600680549050811015611fe657600484604051611f6d9190612a55565b908152602001604051809103902060068281548110611f8f57611f8e6132bb565b5b905f5260205f2001604051611fa49190613368565b90815260200160405180910390205f9054906101000a900460ff1615611fd3578180611fcf906133ab565b9250505b8080611fde906133ab565b915050611f50565b505f8167ffffffffffffffff8111156120025761200161231c565b5b60405190808252806020026020018201604052801561203557816020015b60608152602001906001900390816120205790505b5090505f805b600680549050811015612192576004866040516120589190612a55565b90815260200160405180910390206006828154811061207a576120796132bb565b5b905f5260205f200160405161208f9190613368565b90815260200160405180910390205f9054906101000a900460ff161561217f57600681815481106120c3576120c26132bb565b5b905f5260205f200180546120d6906129eb565b80601f0160208091040260200160405190810160405280929190818152602001828054612102906129eb565b801561214d5780601f106121245761010080835404028352916020019161214d565b820191905f5260205f20905b81548152906001019060200180831161213057829003601f168201915b5050505050838381518110612165576121646132bb565b5b6020026020010181905250818061217b906133ab565b9250505b808061218a906133ab565b91505061203b565b50819350505050919050565b5f81519050919050565b5f82825260208201905092915050565b5f819050602082019050919050565b5f81519050919050565b5f82825260208201905092915050565b5f5b838110156121fe5780820151818401526020810190506121e3565b5f8484015250505050565b5f601f19601f8301169050919050565b5f612223826121c7565b61222d81856121d1565b935061223d8185602086016121e1565b61224681612209565b840191505092915050565b5f61225c8383612219565b905092915050565b5f602082019050919050565b5f61227a8261219e565b61228481856121a8565b935083602082028501612296856121b8565b805f5b858110156122d157848403895281516122b28582612251565b94506122bd83612264565b925060208a01995050600181019050612299565b50829750879550505050505092915050565b5f6020820190508181035f8301526122fb8184612270565b905092915050565b5f604051905090565b5f80fd5b5f80fd5b5f80fd5b5f80fd5b7f4e487b71000000000000000000000000000000000000000000000000000000005f52604160045260245ffd5b61235282612209565b810181811067ffffffffffffffff821117156123715761237061231c565b5b80604052505050565b5f612383612303565b905061238f8282612349565b919050565b5f67ffffffffffffffff8211156123ae576123ad61231c565b5b6123b782612209565b9050602081019050919050565b828183375f83830152505050565b5f6123e46123df84612394565b61237a565b905082815260208101848484011115612400576123ff612318565b5b61240b8482856123c4565b509392505050565b5f82601f83011261242757612426612314565b5b81356124378482602086016123d2565b91505092915050565b5f602082840312156124555761245461230c565b5b5f82013567ffffffffffffffff81111561247257612471612310565b5b61247e84828501612413565b91505092915050565b5f82825260208201905092915050565b5f6124a1826121c7565b6124ab8185612487565b93506124bb8185602086016121e1565b6124c481612209565b840191505092915050565b5f73ffffffffffffffffffffffffffffffffffffffff82169050919050565b5f6124f8826124cf565b9050919050565b612508816124ee565b82525050565b5f819050919050565b6125208161250e565b82525050565b5f8115159050919050565b61253a81612526565b82525050565b5f60a0820190508181035f8301526125588188612497565b9050818103602083015261256c8187612497565b905061257b60408301866124ff565b6125886060830185612517565b6125956080830184612531565b9695505050505050565b6125a88161250e565b81146125b2575f80fd5b50565b5f813590506125c38161259f565b92915050565b5f805f805f8060c087890312156125e3576125e261230c565b5b5f87013567ffffffffffffffff811115612600576125ff612310565b5b61260c89828a01612413565b965050602087013567ffffffffffffffff81111561262d5761262c612310565b5b61263989828a01612413565b955050604087013567ffffffffffffffff81111561265a57612659612310565b5b61266689828a01612413565b945050606061267789828a016125b5565b935050608061268889828a016125b5565b92505060a087013567ffffffffffffffff8111156126a9576126a8612310565b5b6126b589828a01612413565b9150509295509295509295565b6126cb81612526565b81146126d5575f80fd5b50565b5f813590506126e6816126c2565b92915050565b5f805f80608085870312156127045761270361230c565b5b5f85013567ffffffffffffffff81111561272157612720612310565b5b61272d87828801612413565b945050602085013567ffffffffffffffff81111561274e5761274d612310565b5b61275a87828801612413565b935050604085013567ffffffffffffffff81111561277b5761277a612310565b5b61278787828801612413565b9250506060612798878288016126d8565b91505092959194509250565b5f80604083850312156127ba576127b961230c565b5b5f83013567ffffffffffffffff8111156127d7576127d6612310565b5b6127e385828601612413565b925050602083013567ffffffffffffffff81111561280457612803612310565b5b61281085828601612413565b9150509250929050565b5f60208201905061282d5f830184612531565b92915050565b5f805f806080858703121561284b5761284a61230c565b5b5f85013567ffffffffffffffff81111561286857612867612310565b5b61287487828801612413565b945050602085013567ffffffffffffffff81111561289557612894612310565b5b6128a187828801612413565b935050604085013567ffffffffffffffff8111156128c2576128c1612310565b5b6128ce87828801612413565b92505060606128df878288016125b5565b91505092959194509250565b5f60e0820190508181035f830152612903818a612497565b905081810360208301526129178189612497565b90506129266040830188612517565b6129336060830187612517565b61294060808301866124ff565b61294d60a0830185612531565b81810360c083015261295f8184612497565b905098975050505050505050565b5f6080820190508181035f8301526129858187612497565b905081810360208301526129998186612497565b90506129a86040830185612517565b6129b560608301846124ff565b95945050505050565b7f4e487b71000000000000000000000000000000000000000000000000000000005f52602260045260245ffd5b5f6002820490506001821680612a0257607f821691505b602082108103612a1557612a146129be565b5b50919050565b5f81905092915050565b5f612a2f826121c7565b612a398185612a1b565b9350612a498185602086016121e1565b80840191505092915050565b5f612a608284612a25565b915081905092915050565b7f436f6e74657374616e7420646f6573206e6f74206578697374000000000000005f82015250565b5f612a9f601983612487565b9150612aaa82612a6b565b602082019050919050565b5f6020820190508181035f830152612acc81612a93565b9050919050565b7f436f6e746573742077697468207468697320494420616c7265616479206578695f8201527f7374730000000000000000000000000000000000000000000000000000000000602082015250565b5f612b2d602383612487565b9150612b3882612ad3565b604082019050919050565b5f6020820190508181035f830152612b5a81612b21565b9050919050565b7f456e642064617465206d757374206265206166746572207374617274206461745f8201527f6500000000000000000000000000000000000000000000000000000000000000602082015250565b5f612bbb602183612487565b9150612bc682612b61565b604082019050919050565b5f6020820190508181035f830152612be881612baf565b9050919050565b5f819050815f5260205f209050919050565b5f6020601f8301049050919050565b5f82821b905092915050565b5f60088302612c4b7fffffffffffffffffffffffffffffffffffffffffffffffffffffffffffffffff82612c10565b612c558683612c10565b95508019841693508086168417925050509392505050565b5f819050919050565b5f612c90612c8b612c868461250e565b612c6d565b61250e565b9050919050565b5f819050919050565b612ca983612c76565b612cbd612cb582612c97565b848454612c1c565b825550505050565b5f90565b612cd1612cc5565b612cdc818484612ca0565b505050565b5b81811015612cff57612cf45f82612cc9565b600181019050612ce2565b5050565b601f821115612d4457612d1581612bef565b612d1e84612c01565b81016020851015612d2d578190505b612d41612d3985612c01565b830182612ce1565b50505b505050565b5f82821c905092915050565b5f612d645f1984600802612d49565b1980831691505092915050565b5f612d7c8383612d55565b9150826002028217905092915050565b612d95826121c7565b67ffffffffffffffff811115612dae57612dad61231c565b5b612db882546129eb565b612dc3828285612d03565b5f60209050601f831160018114612df4575f8415612de2578287015190505b612dec8582612d71565b865550612e53565b601f198416612e0286612bef565b5f5b82811015612e2957848901518255600182019150602085019450602081019050612e04565b86831015612e465784890151612e42601f891682612d55565b8355505b6001600288020188555050505b505050505050565b5f6020820190508181035f830152612e738184612497565b905092915050565b7f436f6e74657374616e742077697468207468697320494420616c7265616479205f8201527f6578697374730000000000000000000000000000000000000000000000000000602082015250565b5f612ed5602683612487565b9150612ee082612e7b565b604082019050919050565b5f6020820190508181035f830152612f0281612ec9565b9050919050565b7f436f6e74656e7420646f6573206e6f74206578697374000000000000000000005f82015250565b5f612f3d601683612487565b9150612f4882612f09565b602082019050919050565b5f6020820190508181035f830152612f6a81612f31565b9050919050565b7f436f6e7465737420646f6573206e6f74206578697374000000000000000000005f82015250565b5f612fa5601683612487565b9150612fb082612f71565b602082019050919050565b5f6020820190508181035f830152612fd281612f99565b9050919050565b7f436f6e74657374206973206e6f742061637469766500000000000000000000005f82015250565b5f61300d601583612487565b915061301882612fd9565b602082019050919050565b5f6020820190508181035f83015261303a81613001565b9050919050565b7f436f6e7465737420726567697374726174696f6e20697320636c6f73656400005f82015250565b5f613075601e83612487565b915061308082613041565b602082019050919050565b5f6020820190508181035f8301526130a281613069565b9050919050565b7f436f6e74657374616e7420616c7265616479207265676973746572656420666f5f8201527f72207468697320636f6e74657374000000000000000000000000000000000000602082015250565b5f613103602e83612487565b915061310e826130a9565b604082019050919050565b5f6020820190508181035f830152613130816130f7565b9050919050565b7f436f6e74656e742077697468207468697320494420616c7265616479206578695f8201527f7374730000000000000000000000000000000000000000000000000000000000602082015250565b5f613191602383612487565b915061319c82613137565b604082019050919050565b5f6020820190508181035f8301526131be81613185565b9050919050565b7f53706f6e736f722077697468207468697320494420616c7265616479206578695f8201527f7374730000000000000000000000000000000000000000000000000000000000602082015250565b5f61321f602383612487565b915061322a826131c5565b604082019050919050565b5f6020820190508181035f83015261324c81613213565b9050919050565b7f53706f6e736f7220646f6573206e6f74206578697374000000000000000000005f82015250565b5f613287601683612487565b915061329282613253565b602082019050919050565b5f6020820190508181035f8301526132b48161327b565b9050919050565b7f4e487b71000000000000000000000000000000000000000000000000000000005f52603260045260245ffd5b5f81546132f4816129eb565b6132fe8186612a1b565b9450600182165f8114613318576001811461332d5761335f565b60ff198316865281151582028601935061335f565b61333685612bef565b5f5b8381101561335757815481890152600182019150602081019050613338565b838801955050505b50505092915050565b5f61337382846132e8565b915081905092915050565b7f4e487b71000000000000000000000000000000000000000000000000000000005f52601160045260245ffd5b5f6133b58261250e565b91507fffffffffffffffffffffffffffffffffffffffffffffffffffffffffffffffff82036133e7576133e661337e565b5b60018201905091905056fea26469706673582212208e87dd735c608caf4c10e2813ae7d95789dd4780d3749724c58289152ab5c84164736f6c63430008150033",
  "immutableReferences": {},
  "source": "// SPDX-License-Identifier: MIT\r\npragma solidity ^0.8.0;\r\n\r\ncontract ContentStorage {\r\n    // nh ngha struct cho th sinh\r\n    struct Contestant {\r\n        string id;\r\n        string name;\r\n        string details;\r\n        address creator;\r\n        uint256 timestamp;\r\n        bool verified;\r\n        bool exists;\r\n    }\r\n    \r\n    // nh ngha struct cho cuc thi\r\n    struct Contest {\r\n        string id;\r\n        string name;\r\n        string description;\r\n        uint256 startDate;\r\n        uint256 endDate;\r\n        address organizer;\r\n        bool active;\r\n        bool exists;\r\n        string imageURL;\r\n    }\r\n    \r\n    // nh ngha struct cho nh ti tr\r\n    struct Sponsor {\r\n        string id;\r\n        string name;\r\n        string contactInfo;\r\n        uint256 sponsorshipAmount;\r\n        address walletAddress;\r\n        bool exists;\r\n    }\r\n    \r\n    // nh ngha struct cho ni dung wiki thng thng\r\n    struct Content {\r\n        string title;\r\n        string content;\r\n        address creator;\r\n        uint256 timestamp;\r\n        bool verified;\r\n        bool exists;\r\n    }\r\n    \r\n    // Mapping t ID n cc loi d liu\r\n    mapping(string => Content) private contents;\r\n    mapping(string => Contestant) private contestants;\r\n    mapping(string => Contest) private contests;\r\n    mapping(string => Sponsor) private sponsors;\r\n    \r\n    // Mapping  theo di th sinh ng k tham gia cuc thi\r\n    mapping(string => mapping(string => bool)) private contestantRegistrations; // contestId => (contestantId => registered)\r\n    \r\n    // Mng lu tt c ID  c th ly danh sch\r\n    string[] private contentIds;\r\n    string[] private contestantIds;\r\n    string[] private contestIds;\r\n    string[] private sponsorIds;\r\n    \r\n    // Events\r\n    event ContentAdded(string indexed id, string title);\r\n    event ContestantAdded(string indexed id, string name);\r\n    event ContestCreated(string indexed id, string name);\r\n    event SponsorAdded(string indexed id, string name);\r\n    event ContestantRegistered(string indexed contestId, string indexed contestantId);\r\n    \r\n    constructor() {}\r\n    \r\n    // Lu ni dung mi\r\n    function storeContent(string memory id, string memory title, string memory contentText, bool verified) public {\r\n        // Kim tra xem ID  tn ti cha\r\n        require(!contents[id].exists, \"Content with this ID already exists\");\r\n        \r\n        // Lu ni dung mi\r\n        contents[id] = Content({\r\n            title: title,\r\n            content: contentText,\r\n            creator: msg.sender,\r\n            timestamp: block.timestamp,\r\n            verified: verified,\r\n            exists: true\r\n        });\r\n        \r\n        // Thm ID vo danh sch\r\n        contentIds.push(id);\r\n        \r\n        // Pht event\r\n        emit ContentAdded(id, title);\r\n    }\r\n    \r\n    // Ly ni dung theo ID\r\n    function getContent(string memory id) public view returns (\r\n        string memory title,\r\n        string memory content,\r\n        address creator,\r\n        uint256 timestamp,\r\n        bool verified\r\n    ) {\r\n        // Kim tra xem ni dung c tn ti khng\r\n        require(contents[id].exists, \"Content does not exist\");\r\n        \r\n        Content memory c = contents[id];\r\n        return (c.title, c.content, c.creator, c.timestamp, c.verified);\r\n    }\r\n    \r\n    // Ly danh sch tt c ID\r\n    function getAllContentIds() public view returns (string[] memory) {\r\n        return contentIds;\r\n    }\r\n    \r\n    // QUN L TH SINH\r\n    \r\n    // Thm th sinh mi\r\n    function addContestant(\r\n        string memory id, \r\n        string memory name, \r\n        string memory details, \r\n        bool verified\r\n    ) public {\r\n        require(!contestants[id].exists, \"Contestant with this ID already exists\");\r\n        \r\n        contestants[id] = Contestant({\r\n            id: id,\r\n            name: name,\r\n            details: details,\r\n            creator: msg.sender,\r\n            timestamp: block.timestamp,\r\n            verified: verified,\r\n            exists: true\r\n        });\r\n        \r\n        contestantIds.push(id);\r\n        emit ContestantAdded(id, name);\r\n    }\r\n    \r\n    // Ly thng tin th sinh theo ID\r\n    function getContestant(string memory id) public view returns (\r\n        string memory name,\r\n        string memory details,\r\n        address creator,\r\n        uint256 timestamp,\r\n        bool verified\r\n    ) {\r\n        require(contestants[id].exists, \"Contestant does not exist\");\r\n        \r\n        Contestant memory c = contestants[id];\r\n        return (c.name, c.details, c.creator, c.timestamp, c.verified);\r\n    }\r\n    \r\n    // Ly danh sch tt c ID th sinh\r\n    function getAllContestantIds() public view returns (string[] memory) {\r\n        return contestantIds;\r\n    }\r\n    \r\n    // QUN L CUC THI\r\n    \r\n    // Thm cuc thi mi\r\n    function createContest(\r\n        string memory id,\r\n        string memory name,\r\n        string memory description,\r\n        uint256 startDate,\r\n        uint256 endDate,\r\n        string memory imageURL\r\n    ) public {\r\n        require(!contests[id].exists, \"Contest with this ID already exists\");\r\n        require(endDate > startDate, \"End date must be after start date\");\r\n        \r\n        contests[id] = Contest({\r\n            id: id,\r\n            name: name,\r\n            description: description,\r\n            startDate: startDate,\r\n            endDate: endDate,\r\n            organizer: msg.sender,\r\n            active: true,\r\n            exists: true,\r\n            imageURL: imageURL\r\n        });\r\n        \r\n        contestIds.push(id);\r\n        emit ContestCreated(id, name);\r\n    }\r\n    \r\n    // Ly thng tin cuc thi theo ID\r\n    function getContest(string memory id) public view returns (\r\n        string memory name,\r\n        string memory description,\r\n        uint256 startDate,\r\n        uint256 endDate,\r\n        address organizer,\r\n        bool active,\r\n        string memory imageURL\r\n    ) {\r\n        require(contests[id].exists, \"Contest does not exist\");\r\n        \r\n        Contest memory c = contests[id];\r\n        return (c.name, c.description, c.startDate, c.endDate, c.organizer, c.active, c.imageURL);\r\n    }\r\n    \r\n    // Ly danh sch tt c ID cuc thi\r\n    function getAllContestIds() public view returns (string[] memory) {\r\n        return contestIds;\r\n    }\r\n    \r\n    // QUN L NH TI TR\r\n    \r\n    // Thm nh ti tr mi\r\n    function addSponsor(\r\n        string memory id,\r\n        string memory name,\r\n        string memory contactInfo,\r\n        uint256 sponsorshipAmount\r\n    ) public {\r\n        require(!sponsors[id].exists, \"Sponsor with this ID already exists\");\r\n        \r\n        sponsors[id] = Sponsor({\r\n            id: id,\r\n            name: name,\r\n            contactInfo: contactInfo,\r\n            sponsorshipAmount: sponsorshipAmount,\r\n            walletAddress: msg.sender,\r\n            exists: true\r\n        });\r\n        \r\n        sponsorIds.push(id);\r\n        emit SponsorAdded(id, name);\r\n    }\r\n    \r\n    // Ly thng tin nh ti tr theo ID\r\n    function getSponsor(string memory id) public view returns (\r\n        string memory name,\r\n        string memory contactInfo,\r\n        uint256 sponsorshipAmount,\r\n        address walletAddress\r\n    ) {\r\n        require(sponsors[id].exists, \"Sponsor does not exist\");\r\n        \r\n        Sponsor memory s = sponsors[id];\r\n        return (s.name, s.contactInfo, s.sponsorshipAmount, s.walletAddress);\r\n    }\r\n    \r\n    // Ly danh sch tt c ID nh ti tr\r\n    function getAllSponsorIds() public view returns (string[] memory) {\r\n        return sponsorIds;\r\n    }\r\n    \r\n    // QUN L NG K TH SINH - CUC THI\r\n    \r\n    // ng k th sinh vo cuc thi\r\n    function registerContestant(string memory contestId, string memory contestantId) public {\r\n        require(contests[contestId].exists, \"Contest does not exist\");\r\n        require(contestants[contestantId].exists, \"Contestant does not exist\");\r\n        require(contests[contestId].active, \"Contest is not active\");\r\n        require(block.timestamp < contests[contestId].endDate, \"Contest registration is closed\");\r\n        require(!contestantRegistrations[contestId][contestantId], \"Contestant already registered for this contest\");\r\n        \r\n        contestantRegistrations[contestId][contestantId] = true;\r\n        emit ContestantRegistered(contestId, contestantId);\r\n    }\r\n    \r\n    // Kim tra th sinh  ng k cuc thi hay cha\r\n    function isContestantRegistered(string memory contestId, string memory contestantId) public view returns (bool) {\r\n        return contestantRegistrations[contestId][contestantId];\r\n    }\r\n    \r\n    // Ly danh sch th sinh  ng k mt cuc thi\r\n    function getContestantsInContest(string memory contestId) public view returns (string[] memory) {\r\n        require(contests[contestId].exists, \"Contest does not exist\");\r\n        \r\n        // m s th sinh  ng k\r\n        uint count = 0;\r\n        for (uint i = 0; i < contestantIds.length; i++) {\r\n            if (contestantRegistrations[contestId][contestantIds[i]]) {\r\n                count++;\r\n            }\r\n        }\r\n        \r\n        // To mng kt qu\r\n        string[] memory result = new string[](count);\r\n        uint index = 0;\r\n        for (uint i = 0; i < contestantIds.length; i++) {\r\n            if (contestantRegistrations[contestId][contestantIds[i]]) {\r\n                result[index] = contestantIds[i];\r\n                index++;\r\n            }\r\n        }\r\n        \r\n        return result;\r\n    }\r\n}\r\n",
  "sourcePath": "D:\\intern\\test-ui\\backend\\truffle\\contracts\\ContentStorage.sol",
  "compiler": {
    "name": "solc",
    "version": "0.8.21+commit.d9974bed.Emscripten.clang"
  },
  "schemaVersion": "3.4.16",
  "updatedAt": "2025-07-06T10:08:18.021Z",
  "networkType": "ethereum",
  "devdoc": {
    "kind": "dev",
    "methods": {},
    "version": 1
  },
  "userdoc": {
    "kind": "user",
    "methods": {},
    "version": 1
  }
}